{
  "_format": "hh-sol-artifact-1",
  "contractName": "DividendDispatcherPlugin",
  "sourceName": "contracts/DividendDispatcherPlugin.sol",
  "abi": [
    {
      "inputs": [
        {
          "internalType": "string",
          "name": "name_",
          "type": "string"
        },
        {
          "internalType": "string",
          "name": "symbol_",
          "type": "string"
        },
        {
          "internalType": "contract IERC20Plugins",
          "name": "token_",
          "type": "address"
        }
      ],
      "stateMutability": "nonpayable",
      "type": "constructor"
    },
    {
      "inputs": [],
      "name": "AccessDenied",
      "type": "error"
    },
    {
      "inputs": [],
      "name": "ApproveDisabled",
      "type": "error"
    },
    {
      "inputs": [],
      "name": "TransferDisabled",
      "type": "error"
    },
    {
      "anonymous": false,
      "inputs": [
        {
          "indexed": true,
          "internalType": "address",
          "name": "owner",
          "type": "address"
        },
        {
          "indexed": true,
          "internalType": "address",
          "name": "spender",
          "type": "address"
        },
        {
          "indexed": false,
          "internalType": "uint256",
          "name": "value",
          "type": "uint256"
        }
      ],
      "name": "Approval",
      "type": "event"
    },
    {
      "anonymous": false,
      "inputs": [
        {
          "indexed": true,
          "internalType": "address",
          "name": "previousOwner",
          "type": "address"
        },
        {
          "indexed": true,
          "internalType": "address",
          "name": "newOwner",
          "type": "address"
        }
      ],
      "name": "OwnershipTransferred",
      "type": "event"
    },
    {
      "anonymous": false,
      "inputs": [
        {
          "indexed": true,
          "internalType": "address",
          "name": "from",
          "type": "address"
        },
        {
          "indexed": true,
          "internalType": "address",
          "name": "to",
          "type": "address"
        },
        {
          "indexed": false,
          "internalType": "uint256",
          "name": "value",
          "type": "uint256"
        }
      ],
      "name": "Transfer",
      "type": "event"
    },
    {
      "inputs": [
        {
          "internalType": "address",
          "name": "owner",
          "type": "address"
        },
        {
          "internalType": "address",
          "name": "spender",
          "type": "address"
        }
      ],
      "name": "allowance",
      "outputs": [
        {
          "internalType": "uint256",
          "name": "",
          "type": "uint256"
        }
      ],
      "stateMutability": "view",
      "type": "function"
    },
    {
      "inputs": [
        {
          "internalType": "address",
          "name": "",
          "type": "address"
        },
        {
          "internalType": "uint256",
          "name": "",
          "type": "uint256"
        }
      ],
      "name": "approve",
      "outputs": [
        {
          "internalType": "bool",
          "name": "",
          "type": "bool"
        }
      ],
      "stateMutability": "pure",
      "type": "function"
    },
    {
      "inputs": [
        {
          "internalType": "address",
          "name": "account",
          "type": "address"
        }
      ],
      "name": "balanceOf",
      "outputs": [
        {
          "internalType": "uint256",
          "name": "",
          "type": "uint256"
        }
      ],
      "stateMutability": "view",
      "type": "function"
    },
    {
      "inputs": [],
      "name": "claimDividend",
      "outputs": [],
      "stateMutability": "nonpayable",
      "type": "function"
    },
    {
      "inputs": [
        {
          "internalType": "address",
          "name": "",
          "type": "address"
        }
      ],
      "name": "claimedDividend",
      "outputs": [
        {
          "internalType": "bool",
          "name": "",
          "type": "bool"
        }
      ],
      "stateMutability": "view",
      "type": "function"
    },
    {
      "inputs": [
        {
          "internalType": "uint256",
          "name": "",
          "type": "uint256"
        }
      ],
      "name": "claimedUsers",
      "outputs": [
        {
          "internalType": "address",
          "name": "",
          "type": "address"
        }
      ],
      "stateMutability": "view",
      "type": "function"
    },
    {
      "inputs": [],
      "name": "decimals",
      "outputs": [
        {
          "internalType": "uint8",
          "name": "",
          "type": "uint8"
        }
      ],
      "stateMutability": "view",
      "type": "function"
    },
    {
      "inputs": [
        {
          "internalType": "address",
          "name": "",
          "type": "address"
        },
        {
          "internalType": "uint256",
          "name": "",
          "type": "uint256"
        }
      ],
      "name": "decreaseAllowance",
      "outputs": [
        {
          "internalType": "bool",
          "name": "",
          "type": "bool"
        }
      ],
      "stateMutability": "pure",
      "type": "function"
    },
    {
      "inputs": [
        {
          "internalType": "address",
          "name": "",
          "type": "address"
        },
        {
          "internalType": "uint256",
          "name": "",
          "type": "uint256"
        }
      ],
      "name": "increaseAllowance",
      "outputs": [
        {
          "internalType": "bool",
          "name": "",
          "type": "bool"
        }
      ],
      "stateMutability": "pure",
      "type": "function"
    },
    {
      "inputs": [
        {
          "internalType": "address",
          "name": "",
          "type": "address"
        }
      ],
      "name": "ledger",
      "outputs": [
        {
          "internalType": "uint256",
          "name": "",
          "type": "uint256"
        }
      ],
      "stateMutability": "view",
      "type": "function"
    },
    {
      "inputs": [],
      "name": "name",
      "outputs": [
        {
          "internalType": "string",
          "name": "",
          "type": "string"
        }
      ],
      "stateMutability": "view",
      "type": "function"
    },
    {
      "inputs": [],
      "name": "owner",
      "outputs": [
        {
          "internalType": "address",
          "name": "",
          "type": "address"
        }
      ],
      "stateMutability": "view",
      "type": "function"
    },
    {
      "inputs": [],
      "name": "renounceOwnership",
      "outputs": [],
      "stateMutability": "nonpayable",
      "type": "function"
    },
    {
      "inputs": [
        {
          "internalType": "uint256",
          "name": "value",
          "type": "uint256"
        }
      ],
      "name": "setDividend",
      "outputs": [],
      "stateMutability": "payable",
      "type": "function"
    },
    {
      "inputs": [],
      "name": "symbol",
      "outputs": [
        {
          "internalType": "string",
          "name": "",
          "type": "string"
        }
      ],
      "stateMutability": "view",
      "type": "function"
    },
    {
      "inputs": [],
      "name": "token",
      "outputs": [
        {
          "internalType": "contract IERC20Plugins",
          "name": "",
          "type": "address"
        }
      ],
      "stateMutability": "view",
      "type": "function"
    },
    {
      "inputs": [],
      "name": "totalClaimedDividend",
      "outputs": [
        {
          "internalType": "uint256",
          "name": "",
          "type": "uint256"
        }
      ],
      "stateMutability": "view",
      "type": "function"
    },
    {
      "inputs": [],
      "name": "totalDividendPool",
      "outputs": [
        {
          "internalType": "uint256",
          "name": "",
          "type": "uint256"
        }
      ],
      "stateMutability": "view",
      "type": "function"
    },
    {
      "inputs": [],
      "name": "totalSubscribedSupply",
      "outputs": [
        {
          "internalType": "uint256",
          "name": "",
          "type": "uint256"
        }
      ],
      "stateMutability": "view",
      "type": "function"
    },
    {
      "inputs": [],
      "name": "totalSupply",
      "outputs": [
        {
          "internalType": "uint256",
          "name": "",
          "type": "uint256"
        }
      ],
      "stateMutability": "view",
      "type": "function"
    },
    {
      "inputs": [
        {
          "internalType": "address",
          "name": "",
          "type": "address"
        },
        {
          "internalType": "uint256",
          "name": "",
          "type": "uint256"
        }
      ],
      "name": "transfer",
      "outputs": [
        {
          "internalType": "bool",
          "name": "",
          "type": "bool"
        }
      ],
      "stateMutability": "pure",
      "type": "function"
    },
    {
      "inputs": [
        {
          "internalType": "address",
          "name": "",
          "type": "address"
        },
        {
          "internalType": "address",
          "name": "",
          "type": "address"
        },
        {
          "internalType": "uint256",
          "name": "",
          "type": "uint256"
        }
      ],
      "name": "transferFrom",
      "outputs": [
        {
          "internalType": "bool",
          "name": "",
          "type": "bool"
        }
      ],
      "stateMutability": "pure",
      "type": "function"
    },
    {
      "inputs": [
        {
          "internalType": "address",
          "name": "newOwner",
          "type": "address"
        }
      ],
      "name": "transferOwnership",
      "outputs": [],
      "stateMutability": "nonpayable",
      "type": "function"
    },
    {
      "inputs": [
        {
          "internalType": "address",
          "name": "from",
          "type": "address"
        },
        {
          "internalType": "address",
          "name": "to",
          "type": "address"
        },
        {
          "internalType": "uint256",
          "name": "amount",
          "type": "uint256"
        }
      ],
      "name": "updateBalances",
      "outputs": [],
      "stateMutability": "nonpayable",
      "type": "function"
    }
  ],
  "bytecode": "0x60a06040523462000386576200173f803803806200001d816200038b565b9283398101606082820312620003865781516001600160401b03908181116200038657826200004e918501620003b1565b906020928385015182811162000386576040916200006e918701620003b1565b9401516001600160a01b03949085811681036200038657608052825182811162000286576003918254916001958684811c941680156200037b575b8885101462000365578190601f948581116200030f575b508890858311600114620002a8576000926200029c575b505060001982861b1c191690861b1783555b8051938411620002865760049586548681811c911680156200027b575b8282101462000266578381116200021b575b5080928511600114620001ad5750938394918492600095620001a1575b50501b92600019911b1c19161790555b60058054336001600160a01b03198216811790925560405192167f8be0079c531659141344cd1fd0a4f28419497f9722a3daafe3b4186f6b6457e0600080a361131b90816200042482396080518181816101760152610c030152f35b01519350388062000135565b92919084601f1981168860005285600020956000905b89838310620002005750505010620001e5575b50505050811b01905562000145565b01519060f884600019921b161c1916905538808080620001d6565b858701518955909701969485019488935090810190620001c3565b87600052816000208480880160051c8201928489106200025c575b0160051c019087905b8281106200024f57505062000118565b600081550187906200023f565b9250819262000236565b602288634e487b7160e01b6000525260246000fd5b90607f169062000106565b634e487b7160e01b600052604160045260246000fd5b015190503880620000d7565b90889350601f19831691876000528a6000209260005b8c828210620002f85750508411620002df575b505050811b018355620000e9565b015160001983881b60f8161c19169055388080620002d1565b8385015186558c97909501949384019301620002be565b90915085600052886000208580850160051c8201928b86106200035b575b918a91869594930160051c01915b8281106200034b575050620000c0565b600081558594508a91016200033b565b925081926200032d565b634e487b7160e01b600052602260045260246000fd5b93607f1693620000a9565b600080fd5b6040519190601f01601f191682016001600160401b038111838210176200028657604052565b919080601f84011215620003865782516001600160401b0381116200028657602090620003e7601f8201601f191683016200038b565b92818452828287010111620003865760005b8181106200040f57508260009394955001015290565b8581018301518482018401528201620003f956fe608060408181526004918236101561001657600080fd5b600092833560e01c91826306fdde0314610ead57508163095ea7b31461098057816318160ddd14610e7057816323b872dd14610e36578163313ce56714610dfc578163395093511461098057816370a0823114610d9b578163715018a614610cfd5781637a1f1aa914610bd4578163860030a614610b6d5781638da5cb5b14610b1a57816395d89b41146109c25781639ed7e55614610985578163a457c2d714610980578163a9059cbb14610920578163ae21f6f2146108e3578163b478191214610873578163b54ec8e614610836578163dd62ed3e146107b7578163e091f45314610629578163f0fc6bca1461033c578163f2fde38b146101ff57508063fbfa941f1461019e5763fc0c546a1461012d57600080fd5b3461019a57817ffffffffffffffffffffffffffffffffffffffffffffffffffffffffffffffffc36011261019a576020905173ffffffffffffffffffffffffffffffffffffffff7f0000000000000000000000000000000000000000000000000000000000000000168152f35b5080fd5b503461019a5760207ffffffffffffffffffffffffffffffffffffffffffffffffffffffffffffffffc36011261019a578060209273ffffffffffffffffffffffffffffffffffffffff6101ef61105d565b1681526006845220549051908152f35b9050346103385760207ffffffffffffffffffffffffffffffffffffffffffffffffffffffffffffffffc3601126103385761023861105d565b906102416111ad565b73ffffffffffffffffffffffffffffffffffffffff8092169283156102b5575050600554827fffffffffffffffffffffffff0000000000000000000000000000000000000000821617600555167f8be0079c531659141344cd1fd0a4f28419497f9722a3daafe3b4186f6b6457e08380a380f35b90602060849251917f08c379a0000000000000000000000000000000000000000000000000000000008352820152602660248201527f4f776e61626c653a206e6577206f776e657220697320746865207a65726f206160448201527f64647265737300000000000000000000000000000000000000000000000000006064820152fd5b8280fd5b9190503461033857827ffffffffffffffffffffffffffffffffffffffffffffffffffffffffffffffffc360112610338573383526020906007825260ff81852054166105a857600b546801000000000000000081101561057c578060016103a69201600b55611147565b81549060031b9073ffffffffffffffffffffffffffffffffffffffff33831b921b19161790553384526007825280842060017fffffffffffffffffffffffffffffffffffffffffffffffffffffffffffffff0082541617905560068252808420546008549081156105505704926064840284810460641485151715610524576064600954809602029481860414901517156104f85761044784600a5461129c565b600a55331561049d575083917fddf252ad1be2c89b69c2b068fc378daa952ba7f163c4a11628f55a4df523b3ef916104818560025461129c565b600255338452838252808420858154019055519384523393a380f35b8260649251917f08c379a0000000000000000000000000000000000000000000000000000000008352820152601f60248201527f45524332303a206d696e7420746f20746865207a65726f2061646472657373006044820152fd5b8460116024927f4e487b7100000000000000000000000000000000000000000000000000000000835252fd5b6024866011847f4e487b7100000000000000000000000000000000000000000000000000000000835252fd5b6024866012877f4e487b7100000000000000000000000000000000000000000000000000000000835252fd5b6024856041867f4e487b7100000000000000000000000000000000000000000000000000000000835252fd5b6084935051917f08c379a0000000000000000000000000000000000000000000000000000000008352820152603260248201527f4469766964656e6444697370617463686572506c7567696e3a20616c7265616460448201527f7920636c61696d6564206469766964656e6400000000000000000000000000006064820152fd5b839150602092837ffffffffffffffffffffffffffffffffffffffffffffffffffffffffffffffffc360112610338576106606111ad565b813560095582600a55825b600b548110156107255773ffffffffffffffffffffffffffffffffffffffff61069382611147565b90549060031b1c168452600785528184207fffffffffffffffffffffffffffffffffffffffffffffffffffffffffffffff0081541690557fffffffffffffffffffffffffffffffffffffffffffffffffffffffffffffffff81146106f95760010161066b565b6024846011857f4e487b7100000000000000000000000000000000000000000000000000000000835252fd5b505167ffffffffffffffff81850190811191111761078b5750600b5481600b558061074e575080f35b7f0175b7a638427703f0dbe7bb9bbf987a2551717b34e79f33b5b1008d1fa01db9908101905b81811061078057505080f35b828155600101610774565b9060416024927f4e487b7100000000000000000000000000000000000000000000000000000000835252fd5b50503461019a57807ffffffffffffffffffffffffffffffffffffffffffffffffffffffffffffffffc36011261019a576107ef61105d565b6024359073ffffffffffffffffffffffffffffffffffffffff90818316809303610832579160209491849316825260018552828220908252845220549051908152f35b8480fd5b50503461019a57817ffffffffffffffffffffffffffffffffffffffffffffffffffffffffffffffffc36011261019a576020906009549051908152f35b9050346103385760207ffffffffffffffffffffffffffffffffffffffffffffffffffffffffffffffffc360112610338573591600b548310156108e0575073ffffffffffffffffffffffffffffffffffffffff6108d1602093611147565b92905490519260031b1c168152f35b80fd5b50503461019a57817ffffffffffffffffffffffffffffffffffffffffffffffffffffffffffffffffc36011261019a57602090600a549051908152f35b8284346108e057817ffffffffffffffffffffffffffffffffffffffffffffffffffffffffffffffffc3601126108e0575061095961105d565b50517fa24e573d000000000000000000000000000000000000000000000000000000008152fd5b611085565b50503461019a57817ffffffffffffffffffffffffffffffffffffffffffffffffffffffffffffffffc36011261019a576020906008549051908152f35b83833461019a57817ffffffffffffffffffffffffffffffffffffffffffffffffffffffffffffffffc36011261019a57805191809380549160019083821c92828516948515610b10575b6020958686108114610ae457858952908115610aa25750600114610a4a575b610a468787610a3c828c038361122c565b5191829182610ff7565b0390f35b81529295507f8a35acfbc15ff81a39ae7d344fd709f28e8600b4aa8c65c6b64bfe7fe36bd19b5b828410610a8f5750505082610a4694610a3c92820101948680610a2b565b8054868501880152928601928101610a71565b7fffffffffffffffffffffffffffffffffffffffffffffffffffffffffffffff00168887015250505050151560051b8301019250610a3c82610a468680610a2b565b6024846022857f4e487b7100000000000000000000000000000000000000000000000000000000835252fd5b93607f1693610a0c565b50503461019a57817ffffffffffffffffffffffffffffffffffffffffffffffffffffffffffffffffc36011261019a5760209073ffffffffffffffffffffffffffffffffffffffff600554169051908152f35b50503461019a5760207ffffffffffffffffffffffffffffffffffffffffffffffffffffffffffffffffc36011261019a5760ff8160209373ffffffffffffffffffffffffffffffffffffffff610bc161105d565b1681526007855220541690519015158152f35b9190503461033857610be5366110e7565b929173ffffffffffffffffffffffffffffffffffffffff94919491827f0000000000000000000000000000000000000000000000000000000000000000163303610cd65750811680610c6857508293610c44610c5a939460085461129c565b600855169283855260066020528285205461129c565b918352600660205282205580f35b9316929083610ca457610c9e93508185526006602052610c8b83828720546112d8565b91855260066020528420556008546112d8565b60085580f35b9181610c5a9286526006602052610cbe82858820546112d8565b9086526006602052838620558385528285205461129c565b83517f4ca88867000000000000000000000000000000000000000000000000000000008152fd5b83346108e057807ffffffffffffffffffffffffffffffffffffffffffffffffffffffffffffffffc3601126108e057610d346111ad565b8073ffffffffffffffffffffffffffffffffffffffff6005547fffffffffffffffffffffffff00000000000000000000000000000000000000008116600555167f8be0079c531659141344cd1fd0a4f28419497f9722a3daafe3b4186f6b6457e08280a380f35b50503461019a5760207ffffffffffffffffffffffffffffffffffffffffffffffffffffffffffffffffc36011261019a578060209273ffffffffffffffffffffffffffffffffffffffff610ded61105d565b16815280845220549051908152f35b50503461019a57817ffffffffffffffffffffffffffffffffffffffffffffffffffffffffffffffffc36011261019a576020905160128152f35b8284346108e05750610e47366110e7565b505050517fa24e573d000000000000000000000000000000000000000000000000000000008152fd5b50503461019a57817ffffffffffffffffffffffffffffffffffffffffffffffffffffffffffffffffc36011261019a576020906002549051908152f35b92915034610ff357837ffffffffffffffffffffffffffffffffffffffffffffffffffffffffffffffffc360112610ff357600354600181811c9186908281168015610fe9575b6020958686108214610fbd5750848852908115610f7d5750600114610f24575b610a468686610a3c828b038361122c565b929550600383527fc2575a0e9e593c00f959f8c92f12db2869c3395a3b0502d05e2516446f71f85b5b828410610f6a5750505082610a4694610a3c928201019438610f13565b8054868501880152928601928101610f4d565b7fffffffffffffffffffffffffffffffffffffffffffffffffffffffffffffff001687860152505050151560051b8301019250610a3c82610a4638610f13565b8360226024927f4e487b7100000000000000000000000000000000000000000000000000000000835252fd5b93607f1693610ef3565b8380fd5b60208082528251818301819052939260005b858110611049575050507fffffffffffffffffffffffffffffffffffffffffffffffffffffffffffffffe0601f8460006040809697860101520116010190565b818101830151848201604001528201611009565b6004359073ffffffffffffffffffffffffffffffffffffffff8216820361108057565b600080fd5b346110805760407ffffffffffffffffffffffffffffffffffffffffffffffffffffffffffffffffc360112611080576110bc61105d565b5060046040517feb60c2c4000000000000000000000000000000000000000000000000000000008152fd5b7ffffffffffffffffffffffffffffffffffffffffffffffffffffffffffffffffc60609101126110805773ffffffffffffffffffffffffffffffffffffffff90600435828116810361108057916024359081168103611080579060443590565b600b5481101561117e57600b6000527f0175b7a638427703f0dbe7bb9bbf987a2551717b34e79f33b5b1008d1fa01db90190600090565b7f4e487b7100000000000000000000000000000000000000000000000000000000600052603260045260246000fd5b73ffffffffffffffffffffffffffffffffffffffff6005541633036111ce57565b60646040517f08c379a000000000000000000000000000000000000000000000000000000000815260206004820152602060248201527f4f776e61626c653a2063616c6c6572206973206e6f7420746865206f776e65726044820152fd5b90601f7fffffffffffffffffffffffffffffffffffffffffffffffffffffffffffffffe0910116810190811067ffffffffffffffff82111761126d57604052565b7f4e487b7100000000000000000000000000000000000000000000000000000000600052604160045260246000fd5b919082018092116112a957565b7f4e487b7100000000000000000000000000000000000000000000000000000000600052601160045260246000fd5b919082039182116112a95756fea2646970667358221220389445d99bdea0ca722644bb75416ce9539b0e1f4323f082ace7f0731062799b64736f6c63430008130033",
  "linkReferences": {},
  "deployedLinkReferences": {}
}