{
  "_format": "hh-sol-artifact-1",
  "contractName": "DividendDispatcherPlugin",
  "sourceName": "contracts/DividendDispatcherPlugin.sol",
  "abi": [
    {
      "inputs": [
        {
          "internalType": "string",
          "name": "name_",
          "type": "string"
        },
        {
          "internalType": "string",
          "name": "symbol_",
          "type": "string"
        },
        {
          "internalType": "contract IERC20Plugins",
          "name": "token_",
          "type": "address"
        }
      ],
      "stateMutability": "nonpayable",
      "type": "constructor"
    },
    {
      "inputs": [],
      "name": "AccessDenied",
      "type": "error"
    },
    {
      "inputs": [],
      "name": "ApproveDisabled",
      "type": "error"
    },
    {
      "inputs": [],
      "name": "TransferDisabled",
      "type": "error"
    },
    {
      "anonymous": false,
      "inputs": [
        {
          "indexed": true,
          "internalType": "address",
          "name": "owner",
          "type": "address"
        },
        {
          "indexed": true,
          "internalType": "address",
          "name": "spender",
          "type": "address"
        },
        {
          "indexed": false,
          "internalType": "uint256",
          "name": "value",
          "type": "uint256"
        }
      ],
      "name": "Approval",
      "type": "event"
    },
    {
      "anonymous": false,
      "inputs": [
        {
          "indexed": true,
          "internalType": "address",
          "name": "previousOwner",
          "type": "address"
        },
        {
          "indexed": true,
          "internalType": "address",
          "name": "newOwner",
          "type": "address"
        }
      ],
      "name": "OwnershipTransferred",
      "type": "event"
    },
    {
      "anonymous": false,
      "inputs": [
        {
          "indexed": true,
          "internalType": "address",
          "name": "from",
          "type": "address"
        },
        {
          "indexed": true,
          "internalType": "address",
          "name": "to",
          "type": "address"
        },
        {
          "indexed": false,
          "internalType": "uint256",
          "name": "value",
          "type": "uint256"
        }
      ],
      "name": "Transfer",
      "type": "event"
    },
    {
      "inputs": [
        {
          "internalType": "address",
          "name": "owner",
          "type": "address"
        },
        {
          "internalType": "address",
          "name": "spender",
          "type": "address"
        }
      ],
      "name": "allowance",
      "outputs": [
        {
          "internalType": "uint256",
          "name": "",
          "type": "uint256"
        }
      ],
      "stateMutability": "view",
      "type": "function"
    },
    {
      "inputs": [
        {
          "internalType": "address",
          "name": "",
          "type": "address"
        },
        {
          "internalType": "uint256",
          "name": "",
          "type": "uint256"
        }
      ],
      "name": "approve",
      "outputs": [
        {
          "internalType": "bool",
          "name": "",
          "type": "bool"
        }
      ],
      "stateMutability": "pure",
      "type": "function"
    },
    {
      "inputs": [
        {
          "internalType": "address",
          "name": "account",
          "type": "address"
        }
      ],
      "name": "balanceOf",
      "outputs": [
        {
          "internalType": "uint256",
          "name": "",
          "type": "uint256"
        }
      ],
      "stateMutability": "view",
      "type": "function"
    },
    {
      "inputs": [],
      "name": "claimDividend",
      "outputs": [],
      "stateMutability": "nonpayable",
      "type": "function"
    },
    {
      "inputs": [
        {
          "internalType": "address",
          "name": "",
          "type": "address"
        }
      ],
      "name": "claimedDividend",
      "outputs": [
        {
          "internalType": "bool",
          "name": "",
          "type": "bool"
        }
      ],
      "stateMutability": "view",
      "type": "function"
    },
    {
      "inputs": [
        {
          "internalType": "uint256",
          "name": "",
          "type": "uint256"
        }
      ],
      "name": "claimedUsers",
      "outputs": [
        {
          "internalType": "address",
          "name": "",
          "type": "address"
        }
      ],
      "stateMutability": "view",
      "type": "function"
    },
    {
      "inputs": [],
      "name": "decimals",
      "outputs": [
        {
          "internalType": "uint8",
          "name": "",
          "type": "uint8"
        }
      ],
      "stateMutability": "view",
      "type": "function"
    },
    {
      "inputs": [
        {
          "internalType": "address",
          "name": "",
          "type": "address"
        },
        {
          "internalType": "uint256",
          "name": "",
          "type": "uint256"
        }
      ],
      "name": "decreaseAllowance",
      "outputs": [
        {
          "internalType": "bool",
          "name": "",
          "type": "bool"
        }
      ],
      "stateMutability": "pure",
      "type": "function"
    },
    {
      "inputs": [
        {
          "internalType": "address",
          "name": "",
          "type": "address"
        },
        {
          "internalType": "uint256",
          "name": "",
          "type": "uint256"
        }
      ],
      "name": "increaseAllowance",
      "outputs": [
        {
          "internalType": "bool",
          "name": "",
          "type": "bool"
        }
      ],
      "stateMutability": "pure",
      "type": "function"
    },
    {
      "inputs": [
        {
          "internalType": "address",
          "name": "",
          "type": "address"
        }
      ],
      "name": "ledger",
      "outputs": [
        {
          "internalType": "uint256",
          "name": "",
          "type": "uint256"
        }
      ],
      "stateMutability": "view",
      "type": "function"
    },
    {
      "inputs": [],
      "name": "name",
      "outputs": [
        {
          "internalType": "string",
          "name": "",
          "type": "string"
        }
      ],
      "stateMutability": "view",
      "type": "function"
    },
    {
      "inputs": [],
      "name": "owner",
      "outputs": [
        {
          "internalType": "address",
          "name": "",
          "type": "address"
        }
      ],
      "stateMutability": "view",
      "type": "function"
    },
    {
      "inputs": [],
      "name": "renounceOwnership",
      "outputs": [],
      "stateMutability": "nonpayable",
      "type": "function"
    },
    {
      "inputs": [
        {
          "internalType": "uint256",
          "name": "value",
          "type": "uint256"
        }
      ],
      "name": "setDividend",
      "outputs": [],
      "stateMutability": "payable",
      "type": "function"
    },
    {
      "inputs": [],
      "name": "symbol",
      "outputs": [
        {
          "internalType": "string",
          "name": "",
          "type": "string"
        }
      ],
      "stateMutability": "view",
      "type": "function"
    },
    {
      "inputs": [],
      "name": "token",
      "outputs": [
        {
          "internalType": "contract IERC20Plugins",
          "name": "",
          "type": "address"
        }
      ],
      "stateMutability": "view",
      "type": "function"
    },
    {
      "inputs": [],
      "name": "totalClaimedDividend",
      "outputs": [
        {
          "internalType": "uint256",
          "name": "",
          "type": "uint256"
        }
      ],
      "stateMutability": "view",
      "type": "function"
    },
    {
      "inputs": [],
      "name": "totalDividendPool",
      "outputs": [
        {
          "internalType": "uint256",
          "name": "",
          "type": "uint256"
        }
      ],
      "stateMutability": "view",
      "type": "function"
    },
    {
      "inputs": [],
      "name": "totalSubscribedSupply",
      "outputs": [
        {
          "internalType": "uint256",
          "name": "",
          "type": "uint256"
        }
      ],
      "stateMutability": "view",
      "type": "function"
    },
    {
      "inputs": [],
      "name": "totalSupply",
      "outputs": [
        {
          "internalType": "uint256",
          "name": "",
          "type": "uint256"
        }
      ],
      "stateMutability": "view",
      "type": "function"
    },
    {
      "inputs": [
        {
          "internalType": "address",
          "name": "",
          "type": "address"
        },
        {
          "internalType": "uint256",
          "name": "",
          "type": "uint256"
        }
      ],
      "name": "transfer",
      "outputs": [
        {
          "internalType": "bool",
          "name": "",
          "type": "bool"
        }
      ],
      "stateMutability": "pure",
      "type": "function"
    },
    {
      "inputs": [
        {
          "internalType": "address",
          "name": "",
          "type": "address"
        },
        {
          "internalType": "address",
          "name": "",
          "type": "address"
        },
        {
          "internalType": "uint256",
          "name": "",
          "type": "uint256"
        }
      ],
      "name": "transferFrom",
      "outputs": [
        {
          "internalType": "bool",
          "name": "",
          "type": "bool"
        }
      ],
      "stateMutability": "pure",
      "type": "function"
    },
    {
      "inputs": [
        {
          "internalType": "address",
          "name": "newOwner",
          "type": "address"
        }
      ],
      "name": "transferOwnership",
      "outputs": [],
      "stateMutability": "nonpayable",
      "type": "function"
    },
    {
      "inputs": [
        {
          "internalType": "address",
          "name": "from",
          "type": "address"
        },
        {
          "internalType": "address",
          "name": "to",
          "type": "address"
        },
        {
          "internalType": "uint256",
          "name": "amount",
          "type": "uint256"
        }
      ],
      "name": "updateBalances",
      "outputs": [],
      "stateMutability": "nonpayable",
      "type": "function"
    }
  ],
  "bytecode": "0x60a06040523462000386576200167e803803806200001d816200038b565b9283398101606082820312620003865781516001600160401b03908181116200038657826200004e918501620003b1565b906020928385015182811162000386576040916200006e918701620003b1565b9401516001600160a01b03949085811681036200038657608052825182811162000286576003918254916001958684811c941680156200037b575b8885101462000365578190601f948581116200030f575b508890858311600114620002a8576000926200029c575b505060001982861b1c191690861b1783555b8051938411620002865760049586548681811c911680156200027b575b8282101462000266578381116200021b575b5080928511600114620001ad5750938394918492600095620001a1575b50501b92600019911b1c19161790555b60058054336001600160a01b03198216811790925560405192167f8be0079c531659141344cd1fd0a4f28419497f9722a3daafe3b4186f6b6457e0600080a361125a90816200042482396080518181816101760152610b420152f35b01519350388062000135565b92919084601f1981168860005285600020956000905b89838310620002005750505010620001e5575b50505050811b01905562000145565b01519060f884600019921b161c1916905538808080620001d6565b858701518955909701969485019488935090810190620001c3565b87600052816000208480880160051c8201928489106200025c575b0160051c019087905b8281106200024f57505062000118565b600081550187906200023f565b9250819262000236565b602288634e487b7160e01b6000525260246000fd5b90607f169062000106565b634e487b7160e01b600052604160045260246000fd5b015190503880620000d7565b90889350601f19831691876000528a6000209260005b8c828210620002f85750508411620002df575b505050811b018355620000e9565b015160001983881b60f8161c19169055388080620002d1565b8385015186558c97909501949384019301620002be565b90915085600052886000208580850160051c8201928b86106200035b575b918a91869594930160051c01915b8281106200034b575050620000c0565b600081558594508a91016200033b565b925081926200032d565b634e487b7160e01b600052602260045260246000fd5b93607f1693620000a9565b600080fd5b6040519190601f01601f191682016001600160401b038111838210176200028657604052565b919080601f84011215620003865782516001600160401b0381116200028657602090620003e7601f8201601f191683016200038b565b92818452828287010111620003865760005b8181106200040f57508260009394955001015290565b8581018301518482018401528201620003f956fe608060408181526004918236101561001657600080fd5b600092833560e01c91826306fdde0314610dec57508163095ea7b3146108bf57816318160ddd14610daf57816323b872dd14610d75578163313ce56714610d3b57816339509351146108bf57816370a0823114610cda578163715018a614610c3c5781637a1f1aa914610b13578163860030a614610aac5781638da5cb5b14610a5957816395d89b41146109015781639ed7e556146108c4578163a457c2d7146108bf578163a9059cbb1461085f578163ae21f6f214610822578163b4781912146107b2578163b54ec8e614610775578163dd62ed3e146106f6578163e091f45314610568578163f0fc6bca1461033c578163f2fde38b146101ff57508063fbfa941f1461019e5763fc0c546a1461012d57600080fd5b3461019a57817ffffffffffffffffffffffffffffffffffffffffffffffffffffffffffffffffc36011261019a576020905173ffffffffffffffffffffffffffffffffffffffff7f0000000000000000000000000000000000000000000000000000000000000000168152f35b5080fd5b503461019a5760207ffffffffffffffffffffffffffffffffffffffffffffffffffffffffffffffffc36011261019a578060209273ffffffffffffffffffffffffffffffffffffffff6101ef610f9c565b1681526006845220549051908152f35b9050346103385760207ffffffffffffffffffffffffffffffffffffffffffffffffffffffffffffffffc36011261033857610238610f9c565b906102416110ec565b73ffffffffffffffffffffffffffffffffffffffff8092169283156102b5575050600554827fffffffffffffffffffffffff0000000000000000000000000000000000000000821617600555167f8be0079c531659141344cd1fd0a4f28419497f9722a3daafe3b4186f6b6457e08380a380f35b90602060849251917f08c379a0000000000000000000000000000000000000000000000000000000008352820152602660248201527f4f776e61626c653a206e6577206f776e657220697320746865207a65726f206160448201527f64647265737300000000000000000000000000000000000000000000000000006064820152fd5b8280fd5b90503461033857827ffffffffffffffffffffffffffffffffffffffffffffffffffffffffffffffffc36011261033857338352600760205260ff82842054166104e657600b54680100000000000000008110156104ba578060016103a39201600b55611086565b81549060031b9073ffffffffffffffffffffffffffffffffffffffff33831b921b1916179055338352600760205281832060017fffffffffffffffffffffffffffffffffffffffffffffffffffffffffffffff008254161790556006602052818320546009549081810291818304149015171561048e5760085491821561046257508380809381930461043881600a546111db565b600a55818115610459575b3390f11561044f575080f35b51903d90823e3d90fd5b506108fc610443565b8460126024927f4e487b7100000000000000000000000000000000000000000000000000000000835252fd5b6024846011847f4e487b7100000000000000000000000000000000000000000000000000000000835252fd5b6024846041847f4e487b7100000000000000000000000000000000000000000000000000000000835252fd5b602060849251917f08c379a0000000000000000000000000000000000000000000000000000000008352820152603260248201527f4469766964656e6444697370617463686572506c7567696e3a20616c7265616460448201527f7920636c61696d6564206469766964656e6400000000000000000000000000006064820152fd5b839150602092837ffffffffffffffffffffffffffffffffffffffffffffffffffffffffffffffffc3601126103385761059f6110ec565b813560095582600a55825b600b548110156106645773ffffffffffffffffffffffffffffffffffffffff6105d282611086565b90549060031b1c168452600785528184207fffffffffffffffffffffffffffffffffffffffffffffffffffffffffffffff0081541690557fffffffffffffffffffffffffffffffffffffffffffffffffffffffffffffffff8114610638576001016105aa565b6024846011857f4e487b7100000000000000000000000000000000000000000000000000000000835252fd5b505167ffffffffffffffff8185019081119111176106ca5750600b5481600b558061068d575080f35b7f0175b7a638427703f0dbe7bb9bbf987a2551717b34e79f33b5b1008d1fa01db9908101905b8181106106bf57505080f35b8281556001016106b3565b9060416024927f4e487b7100000000000000000000000000000000000000000000000000000000835252fd5b50503461019a57807ffffffffffffffffffffffffffffffffffffffffffffffffffffffffffffffffc36011261019a5761072e610f9c565b6024359073ffffffffffffffffffffffffffffffffffffffff90818316809303610771579160209491849316825260018552828220908252845220549051908152f35b8480fd5b50503461019a57817ffffffffffffffffffffffffffffffffffffffffffffffffffffffffffffffffc36011261019a576020906009549051908152f35b9050346103385760207ffffffffffffffffffffffffffffffffffffffffffffffffffffffffffffffffc360112610338573591600b5483101561081f575073ffffffffffffffffffffffffffffffffffffffff610810602093611086565b92905490519260031b1c168152f35b80fd5b50503461019a57817ffffffffffffffffffffffffffffffffffffffffffffffffffffffffffffffffc36011261019a57602090600a549051908152f35b82843461081f57817ffffffffffffffffffffffffffffffffffffffffffffffffffffffffffffffffc36011261081f5750610898610f9c565b50517fa24e573d000000000000000000000000000000000000000000000000000000008152fd5b610fc4565b50503461019a57817ffffffffffffffffffffffffffffffffffffffffffffffffffffffffffffffffc36011261019a576020906008549051908152f35b83833461019a57817ffffffffffffffffffffffffffffffffffffffffffffffffffffffffffffffffc36011261019a57805191809380549160019083821c92828516948515610a4f575b6020958686108114610a23578589529081156109e15750600114610989575b610985878761097b828c038361116b565b5191829182610f36565b0390f35b81529295507f8a35acfbc15ff81a39ae7d344fd709f28e8600b4aa8c65c6b64bfe7fe36bd19b5b8284106109ce57505050826109859461097b9282010194868061096a565b80548685018801529286019281016109b0565b7fffffffffffffffffffffffffffffffffffffffffffffffffffffffffffffff00168887015250505050151560051b830101925061097b82610985868061096a565b6024846022857f4e487b7100000000000000000000000000000000000000000000000000000000835252fd5b93607f169361094b565b50503461019a57817ffffffffffffffffffffffffffffffffffffffffffffffffffffffffffffffffc36011261019a5760209073ffffffffffffffffffffffffffffffffffffffff600554169051908152f35b50503461019a5760207ffffffffffffffffffffffffffffffffffffffffffffffffffffffffffffffffc36011261019a5760ff8160209373ffffffffffffffffffffffffffffffffffffffff610b00610f9c565b1681526007855220541690519015158152f35b9190503461033857610b2436611026565b929173ffffffffffffffffffffffffffffffffffffffff94919491827f0000000000000000000000000000000000000000000000000000000000000000163303610c155750811680610ba757508293610b83610b9993946008546111db565b60085516928385526006602052828520546111db565b918352600660205282205580f35b9316929083610be357610bdd93508185526006602052610bca8382872054611217565b9185526006602052842055600854611217565b60085580f35b9181610b999286526006602052610bfd8285882054611217565b908652600660205283862055838552828520546111db565b83517f4ca88867000000000000000000000000000000000000000000000000000000008152fd5b833461081f57807ffffffffffffffffffffffffffffffffffffffffffffffffffffffffffffffffc36011261081f57610c736110ec565b8073ffffffffffffffffffffffffffffffffffffffff6005547fffffffffffffffffffffffff00000000000000000000000000000000000000008116600555167f8be0079c531659141344cd1fd0a4f28419497f9722a3daafe3b4186f6b6457e08280a380f35b50503461019a5760207ffffffffffffffffffffffffffffffffffffffffffffffffffffffffffffffffc36011261019a578060209273ffffffffffffffffffffffffffffffffffffffff610d2c610f9c565b16815280845220549051908152f35b50503461019a57817ffffffffffffffffffffffffffffffffffffffffffffffffffffffffffffffffc36011261019a576020905160128152f35b82843461081f5750610d8636611026565b505050517fa24e573d000000000000000000000000000000000000000000000000000000008152fd5b50503461019a57817ffffffffffffffffffffffffffffffffffffffffffffffffffffffffffffffffc36011261019a576020906002549051908152f35b92915034610f3257837ffffffffffffffffffffffffffffffffffffffffffffffffffffffffffffffffc360112610f3257600354600181811c9186908281168015610f28575b6020958686108214610efc5750848852908115610ebc5750600114610e63575b610985868661097b828b038361116b565b929550600383527fc2575a0e9e593c00f959f8c92f12db2869c3395a3b0502d05e2516446f71f85b5b828410610ea957505050826109859461097b928201019438610e52565b8054868501880152928601928101610e8c565b7fffffffffffffffffffffffffffffffffffffffffffffffffffffffffffffff001687860152505050151560051b830101925061097b8261098538610e52565b8360226024927f4e487b7100000000000000000000000000000000000000000000000000000000835252fd5b93607f1693610e32565b8380fd5b60208082528251818301819052939260005b858110610f88575050507fffffffffffffffffffffffffffffffffffffffffffffffffffffffffffffffe0601f8460006040809697860101520116010190565b818101830151848201604001528201610f48565b6004359073ffffffffffffffffffffffffffffffffffffffff82168203610fbf57565b600080fd5b34610fbf5760407ffffffffffffffffffffffffffffffffffffffffffffffffffffffffffffffffc360112610fbf57610ffb610f9c565b5060046040517feb60c2c4000000000000000000000000000000000000000000000000000000008152fd5b7ffffffffffffffffffffffffffffffffffffffffffffffffffffffffffffffffc6060910112610fbf5773ffffffffffffffffffffffffffffffffffffffff906004358281168103610fbf57916024359081168103610fbf579060443590565b600b548110156110bd57600b6000527f0175b7a638427703f0dbe7bb9bbf987a2551717b34e79f33b5b1008d1fa01db90190600090565b7f4e487b7100000000000000000000000000000000000000000000000000000000600052603260045260246000fd5b73ffffffffffffffffffffffffffffffffffffffff60055416330361110d57565b60646040517f08c379a000000000000000000000000000000000000000000000000000000000815260206004820152602060248201527f4f776e61626c653a2063616c6c6572206973206e6f7420746865206f776e65726044820152fd5b90601f7fffffffffffffffffffffffffffffffffffffffffffffffffffffffffffffffe0910116810190811067ffffffffffffffff8211176111ac57604052565b7f4e487b7100000000000000000000000000000000000000000000000000000000600052604160045260246000fd5b919082018092116111e857565b7f4e487b7100000000000000000000000000000000000000000000000000000000600052601160045260246000fd5b919082039182116111e85756fea2646970667358221220c91ae5c2036df42bc5b1719d7d6d5b2139d14a2ab2ac652bda4d1a67712134fa64736f6c63430008130033",
  "linkReferences": {},
  "deployedLinkReferences": {}
}