{
  "_format": "hh-sol-artifact-1",
  "contractName": "CompanyStock",
  "sourceName": "contracts/CompanyStock.sol",
  "abi": [
    {
      "inputs": [
        {
          "internalType": "string",
          "name": "name_",
          "type": "string"
        },
        {
          "internalType": "string",
          "name": "symbol_",
          "type": "string"
        },
        {
          "internalType": "uint256",
          "name": "maxUserPlugins_",
          "type": "uint256"
        },
        {
          "internalType": "uint256",
          "name": "pluginCallGasLimit_",
          "type": "uint256"
        }
      ],
      "stateMutability": "nonpayable",
      "type": "constructor"
    },
    {
      "inputs": [],
      "name": "IndexOutOfBounds",
      "type": "error"
    },
    {
      "inputs": [],
      "name": "InvalidPluginAddress",
      "type": "error"
    },
    {
      "inputs": [],
      "name": "InvalidTokenInPlugin",
      "type": "error"
    },
    {
      "inputs": [],
      "name": "NotOwnerPlugin",
      "type": "error"
    },
    {
      "inputs": [],
      "name": "OutputArrayTooSmall",
      "type": "error"
    },
    {
      "inputs": [],
      "name": "PluginAlreadyAdded",
      "type": "error"
    },
    {
      "inputs": [],
      "name": "PluginNotFound",
      "type": "error"
    },
    {
      "inputs": [],
      "name": "PluginsLimitReachedForAccount",
      "type": "error"
    },
    {
      "inputs": [],
      "name": "PopFromEmptyArray",
      "type": "error"
    },
    {
      "inputs": [],
      "name": "ReentrantCall",
      "type": "error"
    },
    {
      "inputs": [],
      "name": "ZeroPluginsLimit",
      "type": "error"
    },
    {
      "anonymous": false,
      "inputs": [
        {
          "indexed": true,
          "internalType": "address",
          "name": "owner",
          "type": "address"
        },
        {
          "indexed": true,
          "internalType": "address",
          "name": "spender",
          "type": "address"
        },
        {
          "indexed": false,
          "internalType": "uint256",
          "name": "value",
          "type": "uint256"
        }
      ],
      "name": "Approval",
      "type": "event"
    },
    {
      "anonymous": false,
      "inputs": [
        {
          "indexed": false,
          "internalType": "address",
          "name": "account",
          "type": "address"
        },
        {
          "indexed": false,
          "internalType": "address",
          "name": "plugin",
          "type": "address"
        }
      ],
      "name": "PluginAdded",
      "type": "event"
    },
    {
      "anonymous": false,
      "inputs": [
        {
          "indexed": false,
          "internalType": "address",
          "name": "account",
          "type": "address"
        },
        {
          "indexed": false,
          "internalType": "address",
          "name": "plugin",
          "type": "address"
        }
      ],
      "name": "PluginRemoved",
      "type": "event"
    },
    {
      "anonymous": false,
      "inputs": [
        {
          "indexed": true,
          "internalType": "address",
          "name": "from",
          "type": "address"
        },
        {
          "indexed": true,
          "internalType": "address",
          "name": "to",
          "type": "address"
        },
        {
          "indexed": false,
          "internalType": "uint256",
          "name": "value",
          "type": "uint256"
        }
      ],
      "name": "Transfer",
      "type": "event"
    },
    {
      "inputs": [
        {
          "internalType": "address",
          "name": "plugin",
          "type": "address"
        }
      ],
      "name": "addPlugin",
      "outputs": [],
      "stateMutability": "nonpayable",
      "type": "function"
    },
    {
      "inputs": [
        {
          "internalType": "address",
          "name": "owner",
          "type": "address"
        },
        {
          "internalType": "address",
          "name": "spender",
          "type": "address"
        }
      ],
      "name": "allowance",
      "outputs": [
        {
          "internalType": "uint256",
          "name": "",
          "type": "uint256"
        }
      ],
      "stateMutability": "view",
      "type": "function"
    },
    {
      "inputs": [
        {
          "internalType": "address",
          "name": "spender",
          "type": "address"
        },
        {
          "internalType": "uint256",
          "name": "amount",
          "type": "uint256"
        }
      ],
      "name": "approve",
      "outputs": [
        {
          "internalType": "bool",
          "name": "",
          "type": "bool"
        }
      ],
      "stateMutability": "nonpayable",
      "type": "function"
    },
    {
      "inputs": [
        {
          "internalType": "address",
          "name": "account",
          "type": "address"
        }
      ],
      "name": "balanceOf",
      "outputs": [
        {
          "internalType": "uint256",
          "name": "",
          "type": "uint256"
        }
      ],
      "stateMutability": "view",
      "type": "function"
    },
    {
      "inputs": [
        {
          "internalType": "address",
          "name": "account",
          "type": "address"
        },
        {
          "internalType": "uint256",
          "name": "amount",
          "type": "uint256"
        }
      ],
      "name": "burn",
      "outputs": [],
      "stateMutability": "nonpayable",
      "type": "function"
    },
    {
      "inputs": [],
      "name": "decimals",
      "outputs": [
        {
          "internalType": "uint8",
          "name": "",
          "type": "uint8"
        }
      ],
      "stateMutability": "view",
      "type": "function"
    },
    {
      "inputs": [
        {
          "internalType": "address",
          "name": "spender",
          "type": "address"
        },
        {
          "internalType": "uint256",
          "name": "subtractedValue",
          "type": "uint256"
        }
      ],
      "name": "decreaseAllowance",
      "outputs": [
        {
          "internalType": "bool",
          "name": "",
          "type": "bool"
        }
      ],
      "stateMutability": "nonpayable",
      "type": "function"
    },
    {
      "inputs": [
        {
          "internalType": "address",
          "name": "account",
          "type": "address"
        },
        {
          "internalType": "address",
          "name": "plugin",
          "type": "address"
        }
      ],
      "name": "hasPlugin",
      "outputs": [
        {
          "internalType": "bool",
          "name": "",
          "type": "bool"
        }
      ],
      "stateMutability": "view",
      "type": "function"
    },
    {
      "inputs": [
        {
          "internalType": "address",
          "name": "spender",
          "type": "address"
        },
        {
          "internalType": "uint256",
          "name": "addedValue",
          "type": "uint256"
        }
      ],
      "name": "increaseAllowance",
      "outputs": [
        {
          "internalType": "bool",
          "name": "",
          "type": "bool"
        }
      ],
      "stateMutability": "nonpayable",
      "type": "function"
    },
    {
      "inputs": [
        {
          "internalType": "address",
          "name": "account",
          "type": "address"
        },
        {
          "internalType": "uint256",
          "name": "amount",
          "type": "uint256"
        }
      ],
      "name": "mint",
      "outputs": [],
      "stateMutability": "nonpayable",
      "type": "function"
    },
    {
      "inputs": [],
      "name": "name",
      "outputs": [
        {
          "internalType": "string",
          "name": "",
          "type": "string"
        }
      ],
      "stateMutability": "view",
      "type": "function"
    },
    {
      "inputs": [],
      "name": "ownerPlugin",
      "outputs": [
        {
          "internalType": "address",
          "name": "",
          "type": "address"
        }
      ],
      "stateMutability": "view",
      "type": "function"
    },
    {
      "inputs": [
        {
          "internalType": "address",
          "name": "account",
          "type": "address"
        },
        {
          "internalType": "uint256",
          "name": "index",
          "type": "uint256"
        }
      ],
      "name": "pluginAt",
      "outputs": [
        {
          "internalType": "address",
          "name": "",
          "type": "address"
        }
      ],
      "stateMutability": "view",
      "type": "function"
    },
    {
      "inputs": [
        {
          "internalType": "address",
          "name": "plugin",
          "type": "address"
        },
        {
          "internalType": "address",
          "name": "account",
          "type": "address"
        }
      ],
      "name": "pluginBalanceOf",
      "outputs": [
        {
          "internalType": "uint256",
          "name": "",
          "type": "uint256"
        }
      ],
      "stateMutability": "view",
      "type": "function"
    },
    {
      "inputs": [
        {
          "internalType": "address",
          "name": "account",
          "type": "address"
        }
      ],
      "name": "plugins",
      "outputs": [
        {
          "internalType": "address[]",
          "name": "",
          "type": "address[]"
        }
      ],
      "stateMutability": "view",
      "type": "function"
    },
    {
      "inputs": [],
      "name": "pluginsCallGasLimit",
      "outputs": [
        {
          "internalType": "uint256",
          "name": "",
          "type": "uint256"
        }
      ],
      "stateMutability": "view",
      "type": "function"
    },
    {
      "inputs": [
        {
          "internalType": "address",
          "name": "account",
          "type": "address"
        }
      ],
      "name": "pluginsCount",
      "outputs": [
        {
          "internalType": "uint256",
          "name": "",
          "type": "uint256"
        }
      ],
      "stateMutability": "view",
      "type": "function"
    },
    {
      "inputs": [],
      "name": "pluginsCountLimit",
      "outputs": [
        {
          "internalType": "uint256",
          "name": "",
          "type": "uint256"
        }
      ],
      "stateMutability": "view",
      "type": "function"
    },
    {
      "inputs": [],
      "name": "removeAllPlugins",
      "outputs": [],
      "stateMutability": "nonpayable",
      "type": "function"
    },
    {
      "inputs": [
        {
          "internalType": "address",
          "name": "plugin",
          "type": "address"
        }
      ],
      "name": "removePlugin",
      "outputs": [],
      "stateMutability": "nonpayable",
      "type": "function"
    },
    {
      "inputs": [],
      "name": "symbol",
      "outputs": [
        {
          "internalType": "string",
          "name": "",
          "type": "string"
        }
      ],
      "stateMutability": "view",
      "type": "function"
    },
    {
      "inputs": [],
      "name": "totalSupply",
      "outputs": [
        {
          "internalType": "uint256",
          "name": "",
          "type": "uint256"
        }
      ],
      "stateMutability": "view",
      "type": "function"
    },
    {
      "inputs": [
        {
          "internalType": "address",
          "name": "to",
          "type": "address"
        },
        {
          "internalType": "uint256",
          "name": "amount",
          "type": "uint256"
        }
      ],
      "name": "transfer",
      "outputs": [
        {
          "internalType": "bool",
          "name": "",
          "type": "bool"
        }
      ],
      "stateMutability": "nonpayable",
      "type": "function"
    },
    {
      "inputs": [
        {
          "internalType": "address",
          "name": "from",
          "type": "address"
        },
        {
          "internalType": "address",
          "name": "to",
          "type": "address"
        },
        {
          "internalType": "uint256",
          "name": "amount",
          "type": "uint256"
        }
      ],
      "name": "transferFrom",
      "outputs": [
        {
          "internalType": "bool",
          "name": "",
          "type": "bool"
        }
      ],
      "stateMutability": "nonpayable",
      "type": "function"
    }
  ],
  "bytecode": "0x60e0604052346200039c57620027c4803803806200001d81620003a1565b92833981016080828203126200039c5781516001600160401b03908181116200039c57826200004e918501620003c7565b9260209283820151908382116200039c576200006c918301620003c7565b606060408301519201519285518181116200029c576003908154906001988983811c9316801562000391575b898410146200037b578190601f9384811162000325575b508990848311600114620002be57600092620002b2575b505060001982851b1c191690891b1782555b83519283116200029c576004938454978989811c9916801562000291575b818a10146200027c5782891162000230575b84959697985080928511600114620001c25750600093620001b6575b505082871b92600019911b1c19161781555b8115620001a7575060805260a0526005553360c05260405161238a90816200043a82396080518181816102f60152610eda015260a051818181610dcd01528181611c0301528181611c8a01528181611d190152611f70015260c05181818161078301528181610c280152610ff20152f35b60405163cdaf747b60e01b8152fd5b01519150388062000124565b929190899550601f1985168760005284600020946000905b828210620002165750508511620001fb575b50505050811b01815562000136565b01519060f884600019921b161c1916905538808080620001ec565b8484015187558c98909601959384019390810190620001da565b856000528060002083860160051c81019982871062000271575b840160051c01988a905b8a81106200026457505062000108565b60008155018a9062000254565b90995089906200024a565b602286634e487b7160e01b6000525260246000fd5b98607f1698620000f6565b634e487b7160e01b600052604160045260246000fd5b015190503880620000c6565b908b9350601f19831691866000528b6000209260005b8d8282106200030e5750508411620002f5575b505050811b018255620000d8565b015160001983871b60f8161c19169055388080620002e7565b8385015186558f97909501949384019301620002d4565b90915084600052896000208480850160051c8201928c861062000371575b918d91869594930160051c01915b82811062000361575050620000af565b600081558594508d910162000351565b9250819262000343565b634e487b7160e01b600052602260045260246000fd5b92607f169262000098565b600080fd5b6040519190601f01601f191682016001600160401b038111838210176200029c57604052565b919080601f840112156200039c5782516001600160401b0381116200029c57602090620003fd601f8201601f19168301620003a1565b928184528282870101116200039c5760005b8181106200042557508260009394955001015290565b85810183015184820184015282016200040f56fe608060408181526004918236101561001657600080fd5b600092833560e01c91826306fdde03146114c657508163095ea7b31461147e57816318160ddd146114415781631945f729146113d357816323b872dd146112a5578163313ce5671461126b57816339509351146111f157816340c10f1914610f9b5781634b12e64314610efd57816353cea5df14610ea45781636172813414610e3457816370a0823114610df05781637ee688cb14610d975781638b822d8814610c4c5781638e371bef14610bdd57816395d89b4114610a855781639dc29fac1461072c578163a457c2d714610629578163a4d95b641461054a578163a9059cbb146104fb578163c125563514610471578163d8867fc81461021b57508063dd62ed3e146101a85763ed6edc821461012d57600080fd5b346101a457807ffffffffffffffffffffffffffffffffffffffffffffffffffffffffffffffffc3601126101a45780602092610167611672565b61016f61169a565b73ffffffffffffffffffffffffffffffffffffffff918216835260068652838320911682526001018452205490519015158152f35b5080fd5b50346101a457807ffffffffffffffffffffffffffffffffffffffffffffffffffffffffffffffffc3601126101a457806020926101e3611672565b6101eb61169a565b73ffffffffffffffffffffffffffffffffffffffff91821683526001865283832091168252845220549051908152f35b9190503461046d57602091827ffffffffffffffffffffffffffffffffffffffffffffffffffffffffffffffffc36011261046957610257611672565b9273ffffffffffffffffffffffffffffffffffffffff808516801561044157908284928651938480927ffc0c546a0000000000000000000000000000000000000000000000000000000082525afa9182156104375787926103fb575b50309116036103d357338552600681526102cf84848720611957565b156103ab57600690338652526102f48285206000805260205260406000205460a01c90565b7f00000000000000000000000000000000000000000000000000000000000000001061038457505133815273ffffffffffffffffffffffffffffffffffffffff821660208201527f68aafb7a848a8e6e0e8fe992de5812474789ddec166ce06be4de83b3aaa2864e90604090a161036a336118ae565b80610373578280f35b61037e913390611bfe565b38808280f35b90517f2846f78a000000000000000000000000000000000000000000000000000000008152fd5b5090517ffce323d6000000000000000000000000000000000000000000000000000000008152fd5b5090517f5940fcc8000000000000000000000000000000000000000000000000000000008152fd5b9091508281813d8311610430575b61041381836116bd565b8101031261042c5751818116810361042c5790386102b3565b8680fd5b503d610409565b85513d89823e3d90fd5b8385517f4c6ea03c000000000000000000000000000000000000000000000000000000008152fd5b8380fd5b8280fd5b8284346104f857817ffffffffffffffffffffffffffffffffffffffffffffffffffffffffffffffffc3601126104f857506104aa611672565b6104b261169a565b926002600554146104d157506020926104ca91611909565b9051908152f35b82517f37ed32e8000000000000000000000000000000000000000000000000000000008152fd5b80fd5b5050346101a457807ffffffffffffffffffffffffffffffffffffffffffffffffffffffffffffffffc3601126101a457602090610543610539611672565b6024359033611dc2565b5160018152f35b9190503461046d5760207ffffffffffffffffffffffffffffffffffffffffffffffffffffffffffffffffc36011261046d57610584611672565b91338452600660205261059983838620611a20565b1561060257505133815273ffffffffffffffffffffffffffffffffffffffff821660208201527f550ef13f654f6fc7054e7c556d2647cb8838befbfa68640bb3050fc458ad473590604090a16105ee336118ae565b806105f7578280f35b61037e913390611d14565b90517f108a506d000000000000000000000000000000000000000000000000000000008152fd5b905082346104f857827ffffffffffffffffffffffffffffffffffffffffffffffffffffffffffffffffc3601126104f857610662611672565b918360243592338152600160205281812073ffffffffffffffffffffffffffffffffffffffff861682526020522054908282106106a95760208561054385850387336121df565b60849060208651917f08c379a0000000000000000000000000000000000000000000000000000000008352820152602560248201527f45524332303a2064656372656173656420616c6c6f77616e63652062656c6f7760448201527f207a65726f0000000000000000000000000000000000000000000000000000006064820152fd5b9190503461046d57807ffffffffffffffffffffffffffffffffffffffffffffffffffffffffffffffffc36011261046d57610765611672565b906024359173ffffffffffffffffffffffffffffffffffffffff91827f0000000000000000000000000000000000000000000000000000000000000000163303610a5d578282169081156109db5781875260209587875281882054868110610959578690848a528989520382892055856002540360025587837fddf252ad1be2c89b69c2b068fc378daa952ba7f163c4a11628f55a4df523b3ef8985518a8152a3600260055414610932575060026005558415158061092a575b61082d575b86600160055580f35b610850918752600686526006610844828920611745565b96888052528620611745565b90845190825195875b8381106108a25750505050845b8481106108735780610824565b80836108816001938561186b565b51168581610892575b505001610866565b61089b91611c87565b388561088a565b856108ad828461186b565b51169089915b88858b8086106108e1575b600195146108d0575b50505001610859565b6108d992611d14565b3888856108c7565b8d8b6108f1888d9997989961186b565b51168614610907575050505060010191906108b3565b938594610918858560019a99611d14565b610922828d61186b565b5295506108be565b50600161081f565b90517f37ed32e8000000000000000000000000000000000000000000000000000000008152fd5b508660849251917f08c379a0000000000000000000000000000000000000000000000000000000008352820152602260248201527f45524332303a206275726e20616d6f756e7420657863656564732062616c616e60448201527f63650000000000000000000000000000000000000000000000000000000000006064820152fd5b517f08c379a0000000000000000000000000000000000000000000000000000000008152602081870152602160248201527f45524332303a206275726e2066726f6d20746865207a65726f2061646472657360448201527f73000000000000000000000000000000000000000000000000000000000000006064820152608490fd5b8490517fb6559712000000000000000000000000000000000000000000000000000000008152fd5b8383346101a457817ffffffffffffffffffffffffffffffffffffffffffffffffffffffffffffffffc3601126101a457805191809380549160019083821c92828516948515610bd3575b6020958686108114610ba757858952908115610b655750600114610b0d575b610b098787610aff828c03836116bd565b519182918261160c565b0390f35b81529295507f8a35acfbc15ff81a39ae7d344fd709f28e8600b4aa8c65c6b64bfe7fe36bd19b5b828410610b525750505082610b0994610aff92820101948680610aee565b8054868501880152928601928101610b34565b7fffffffffffffffffffffffffffffffffffffffffffffffffffffffffffffff00168887015250505050151560051b8301019250610aff82610b098680610aee565b6024846022857f4e487b7100000000000000000000000000000000000000000000000000000000835252fd5b93607f1693610acf565b5050346101a457817ffffffffffffffffffffffffffffffffffffffffffffffffffffffffffffffffc3601126101a4576020905173ffffffffffffffffffffffffffffffffffffffff7f0000000000000000000000000000000000000000000000000000000000000000168152f35b5050346101a457817ffffffffffffffffffffffffffffffffffffffffffffffffffffffffffffffffc3601126101a457338252600690602091808352610c93828520611745565b610c9c336118ae565b9181519081841515925b610cae578780f35b7fffffffffffffffffffffffffffffffffffffffffffffffffffffffffffffffff9033895282885286892086838301610d0973ffffffffffffffffffffffffffffffffffffffff9384610d01848c61186b565b511690611a20565b50867f550ef13f654f6fc7054e7c556d2647cb8838befbfa68640bb3050fc458ad4735610d6785610d3a858d61186b565b518e51338152911673ffffffffffffffffffffffffffffffffffffffff1660208201529081906040820190565b0390a1610d79575b5050500180610ca6565b610d8f92610d8833928a61186b565b5116611d14565b388681610d6f565b5050346101a457817ffffffffffffffffffffffffffffffffffffffffffffffffffffffffffffffffc3601126101a457602090517f00000000000000000000000000000000000000000000000000000000000000008152f35b5050346101a45760207ffffffffffffffffffffffffffffffffffffffffffffffffffffffffffffffffc3601126101a4576020906104ca610e2f611672565b6118ae565b5050346101a45760207ffffffffffffffffffffffffffffffffffffffffffffffffffffffffffffffffc3601126101a4576104ca8160209373ffffffffffffffffffffffffffffffffffffffff610e89611672565b16815260068552206000805260205260406000205460a01c90565b5050346101a457817ffffffffffffffffffffffffffffffffffffffffffffffffffffffffffffffffc3601126101a457602090517f00000000000000000000000000000000000000000000000000000000000000008152f35b8284346104f8576020807ffffffffffffffffffffffffffffffffffffffffffffffffffffffffffffffffc3601126101a4578273ffffffffffffffffffffffffffffffffffffffff9283610f4f611672565b16815260068352610f61828220611745565b918051938080860192818752855180945286019401925b828110610f855785850386f35b8351871685529381019392810192600101610f78565b9190503461046d57807ffffffffffffffffffffffffffffffffffffffffffffffffffffffffffffffffc36011261046d57610fd4611672565b906024359073ffffffffffffffffffffffffffffffffffffffff90817f0000000000000000000000000000000000000000000000000000000000000000163303610a5d578184169485156111955761102e84600254611d86565b6002558587528660205281872084815401905585877fddf252ad1be2c89b69c2b068fc378daa952ba7f163c4a11628f55a4df523b3ef60208551888152a3600260055414610932575060026005558215158061118d575b611093575b85600160055580f35b6110b99086805260066020526110aa818820611745565b95875260066020528620611745565b8451815195875b82811061110b57505050855b8581106110d9575061108a565b80836110e76001938561186b565b51168587826110fa575b505050016110cc565b61110392611bfe565b3885876110f1565b84611116828461186b565b51169089915b878a808510611147575b60019414611137575b5050016110c0565b61114091611c87565b388761112f565b88611156868a9795969761186b565b5116841461116a575050600101919061111c565b839261117a838d60019897611bfe565b8d611185828b61186b565b529450611126565b506001611085565b602060649251917f08c379a0000000000000000000000000000000000000000000000000000000008352820152601f60248201527f45524332303a206d696e7420746f20746865207a65726f2061646472657373006044820152fd5b5050346101a457807ffffffffffffffffffffffffffffffffffffffffffffffffffffffffffffffffc3601126101a457610543602092611264611232611672565b913381526001865284812073ffffffffffffffffffffffffffffffffffffffff84168252865284602435912054611d86565b90336121df565b5050346101a457817ffffffffffffffffffffffffffffffffffffffffffffffffffffffffffffffffc3601126101a4576020905160128152f35b839150346101a45760607ffffffffffffffffffffffffffffffffffffffffffffffffffffffffffffffffc3601126101a4576112df611672565b6112e761169a565b91846044359473ffffffffffffffffffffffffffffffffffffffff8416815260016020528181203382526020522054907fffffffffffffffffffffffffffffffffffffffffffffffffffffffffffffffff820361134d575b602086610543878787611dc2565b848210611376575091839161136b60209695610543950333836121df565b91939481935061133f565b60649060208751917f08c379a0000000000000000000000000000000000000000000000000000000008352820152601d60248201527f45524332303a20696e73756666696369656e7420616c6c6f77616e63650000006044820152fd5b5050346101a457807ffffffffffffffffffffffffffffffffffffffffffffffffffffffffffffffffc3601126101a4576020918173ffffffffffffffffffffffffffffffffffffffff9182611426611672565b16815260068552818120602435825285522054169051908152f35b5050346101a457817ffffffffffffffffffffffffffffffffffffffffffffffffffffffffffffffffc3601126101a4576020906002549051908152f35b5050346101a457807ffffffffffffffffffffffffffffffffffffffffffffffffffffffffffffffffc3601126101a4576020906105436114bc611672565b60243590336121df565b9291503461046957837ffffffffffffffffffffffffffffffffffffffffffffffffffffffffffffffffc36011261046957600354600181811c9186908281168015611602575b60209586861082146115d65750848852908115611596575060011461153d575b610b098686610aff828b03836116bd565b929550600383527fc2575a0e9e593c00f959f8c92f12db2869c3395a3b0502d05e2516446f71f85b5b8284106115835750505082610b0994610aff92820101943861152c565b8054868501880152928601928101611566565b7fffffffffffffffffffffffffffffffffffffffffffffffffffffffffffffff001687860152505050151560051b8301019250610aff82610b093861152c565b8360226024927f4e487b7100000000000000000000000000000000000000000000000000000000835252fd5b93607f169361150c565b60208082528251818301819052939260005b85811061165e575050507fffffffffffffffffffffffffffffffffffffffffffffffffffffffffffffffe0601f8460006040809697860101520116010190565b81810183015184820160400152820161161e565b6004359073ffffffffffffffffffffffffffffffffffffffff8216820361169557565b600080fd5b6024359073ffffffffffffffffffffffffffffffffffffffff8216820361169557565b90601f7fffffffffffffffffffffffffffffffffffffffffffffffffffffffffffffffe0910116810190811067ffffffffffffffff8211176116fe57604052565b7f4e487b7100000000000000000000000000000000000000000000000000000000600052604160045260246000fd5b67ffffffffffffffff81116116fe5760051b60200190565b906000808052602090838252604090818120548060a01c926117668461172d565b92611773825194856116bd565b84845261177f8561172d565b977fffffffffffffffffffffffffffffffffffffffffffffffffffffffffffffffe08786019901368a3784988551871161184257866117c3575b5050505050505050565b8551156118155773ffffffffffffffffffffffffffffffffffffffff8095169052600196875b8781106117f657506117b9565b808991855283835286868620541661180e828a61186b565b52016117e9565b6024837f4e487b710000000000000000000000000000000000000000000000000000000081526032600452fd5b600484517ff9a99b25000000000000000000000000000000000000000000000000000000008152fd5b805182101561187f5760209160051b010190565b7f4e487b7100000000000000000000000000000000000000000000000000000000600052603260045260246000fd5b6002600554146118df5773ffffffffffffffffffffffffffffffffffffffff16600052600060205260406000205490565b60046040517f37ed32e8000000000000000000000000000000000000000000000000000000008152fd5b73ffffffffffffffffffffffffffffffffffffffff80921690600092828452600660205260016040852001911683526020526040822054611948575090565b90604091815280602052205490565b9073ffffffffffffffffffffffffffffffffffffffff600183019116600092818452826020526040842054611a1a5760409260019285805282602052848620928354938460a01c9485156000146119f257505086805260205274ffffffffffffffffffffffffffffffffffffffffff81740100000000000000000000000000000000000000000116858720555b855260205201912055600190565b74010000000000000000000000000000000000000000019055508286528486208190556119e4565b50505090565b906001820173ffffffffffffffffffffffffffffffffffffffff8092169260009380855260209183835260409485872054908115611bf457611a6f836000805260205260406000205460a01c90565b8210611b29575b505085805280835284862054908160a01c908115611b0057906001917fffffffffffffffffffffffffffffffffffffffffffffffffffffffffffffffff820189528552878781205511611ad0575b50845252812055600190565b7fffffffffffffffffffffffff000000000000000000000000000000000000000090868052018486205538611ac4565b600487517f06a2af9e000000000000000000000000000000000000000000000000000000008152fd5b7fffffffffffffffffffffffffffffffffffffffffffffffffffffffffffffffff9081611b63856000805260205260406000205460a01c90565b0189528386528789205416908201611b88846000805260205260406000205460a01c90565b9081811015611bcb5782919080611bb9575089805284875260a01b17878920555b8752848452858720553880611a76565b91505088528285528087892055611ba9565b600489517f4e23d035000000000000000000000000000000000000000000000000000000008152fd5b5050505050505090565b9190917f000000000000000000000000000000000000000000000000000000000000000091604051937f7a1f1aa90000000000000000000000000000000000000000000000000000000085526000600486015260248501526044840152600080606485825a9587f115611c7057505050565b603f0260061c10611c7e5750565b3d6000823e3d90fd5b907f0000000000000000000000000000000000000000000000000000000000000000604051927f7a1f1aa900000000000000000000000000000000000000000000000000000000845260009283600486015283602486015260448501528280606486825a9587f115611cfa575b50505050565b603f0260061c10611d0c578080611cf4565b3d90823e3d90fd5b9190917f000000000000000000000000000000000000000000000000000000000000000091604051937f7a1f1aa90000000000000000000000000000000000000000000000000000000085526004850152600060248501526044840152600080606485825a9587f115611c7057505050565b91908201809211611d9357565b7f4e487b7100000000000000000000000000000000000000000000000000000000600052601160045260246000fd5b9173ffffffffffffffffffffffffffffffffffffffff808416801561215b578184169485156120d75760009082825260209282845260409384842054878110612054578790838652858352038585205588845284842087815401905588827fddf252ad1be2c89b69c2b068fc378daa952ba7f163c4a11628f55a4df523b3ef8388518b8152a360026005541461202b57600260055586151580612021575b611e75575b5050505050505050506001600555565b6006918452818152611e88858520611745565b98845252611e97838320611745565b92875191845198845b848110611eee5750505050505b858110611ebc57808080611e65565b8083611eca6001938561186b565b5116858782611edd575b50505001611ead565b611ee692611bfe565b388587611ed4565b808a8a858e8c8b81611f018f998b61186b565b51169581925b848410611f36575b5050506001965014611f25575b50505001611ea0565b611f2e92611d14565b388a85611f1c565b611f45848b989796959861186b565b51168714611f6957505050505060019192935001908a858e8b95948f8c908f611f07565b94919293947f00000000000000000000000000000000000000000000000000000000000000008c51917f7a1f1aa900000000000000000000000000000000000000000000000000000000835286600484015260248301528660448301525a8380606485828d87f115611ff2575b505050611fe58260019961186b565b528f8d97508c908f611f0f565b93979899509450945050603f91500260061c1061201957858e8b9594938b8f948080611fd6565b3d89823e3d90fd5b5088821415611e60565b600485517f37ed32e8000000000000000000000000000000000000000000000000000000008152fd5b6084828751907f08c379a00000000000000000000000000000000000000000000000000000000082526004820152602660248201527f45524332303a207472616e7366657220616d6f756e742065786365656473206260448201527f616c616e636500000000000000000000000000000000000000000000000000006064820152fd5b60846040517f08c379a000000000000000000000000000000000000000000000000000000000815260206004820152602360248201527f45524332303a207472616e7366657220746f20746865207a65726f206164647260448201527f65737300000000000000000000000000000000000000000000000000000000006064820152fd5b60846040517f08c379a000000000000000000000000000000000000000000000000000000000815260206004820152602560248201527f45524332303a207472616e736665722066726f6d20746865207a65726f20616460448201527f64726573730000000000000000000000000000000000000000000000000000006064820152fd5b73ffffffffffffffffffffffffffffffffffffffff8091169182156122d1571691821561224d5760207f8c5be1e5ebec7d5bd14f71427d1e84f3dd0314c0f7b2291e5b200ac8c7c3b925918360005260018252604060002085600052825280604060002055604051908152a3565b60846040517f08c379a000000000000000000000000000000000000000000000000000000000815260206004820152602260248201527f45524332303a20617070726f766520746f20746865207a65726f20616464726560448201527f73730000000000000000000000000000000000000000000000000000000000006064820152fd5b60846040517f08c379a0000000000000000000000000000000000000000000000000000000008152602060048201526024808201527f45524332303a20617070726f76652066726f6d20746865207a65726f2061646460448201527f72657373000000000000000000000000000000000000000000000000000000006064820152fdfea26469706673582212202ccde52373e82050c255373476c61164e77b1cc8b3bce60d248a35c01039b8e064736f6c63430008130033",
  "linkReferences": {},
  "deployedLinkReferences": {}
}