{"contracts/DividendDispatcherPlugin.sol":{"DividendDispatcherPlugin":{"abi":[{"inputs":[{"internalType":"string","name":"name_","type":"string"},{"internalType":"string","name":"symbol_","type":"string"},{"internalType":"contract IERC20Plugins","name":"token_","type":"address"}],"stateMutability":"nonpayable","type":"constructor"},{"inputs":[],"name":"AccessDenied","type":"error"},{"inputs":[],"name":"ApproveDisabled","type":"error"},{"inputs":[],"name":"TransferDisabled","type":"error"},{"anonymous":false,"inputs":[{"indexed":true,"internalType":"address","name":"owner","type":"address"},{"indexed":true,"internalType":"address","name":"spender","type":"address"},{"indexed":false,"internalType":"uint256","name":"value","type":"uint256"}],"name":"Approval","type":"event"},{"anonymous":false,"inputs":[{"indexed":true,"internalType":"address","name":"previousOwner","type":"address"},{"indexed":true,"internalType":"address","name":"newOwner","type":"address"}],"name":"OwnershipTransferred","type":"event"},{"anonymous":false,"inputs":[{"indexed":true,"internalType":"address","name":"from","type":"address"},{"indexed":true,"internalType":"address","name":"to","type":"address"},{"indexed":false,"internalType":"uint256","name":"value","type":"uint256"}],"name":"Transfer","type":"event"},{"inputs":[{"internalType":"address","name":"owner","type":"address"},{"internalType":"address","name":"spender","type":"address"}],"name":"allowance","outputs":[{"internalType":"uint256","name":"","type":"uint256"}],"stateMutability":"view","type":"function"},{"inputs":[{"internalType":"address","name":"","type":"address"},{"internalType":"uint256","name":"","type":"uint256"}],"name":"approve","outputs":[{"internalType":"bool","name":"","type":"bool"}],"stateMutability":"pure","type":"function"},{"inputs":[{"internalType":"address","name":"account","type":"address"}],"name":"balanceOf","outputs":[{"internalType":"uint256","name":"","type":"uint256"}],"stateMutability":"view","type":"function"},{"inputs":[],"name":"claimDividend","outputs":[],"stateMutability":"nonpayable","type":"function"},{"inputs":[{"internalType":"address","name":"","type":"address"}],"name":"claimedDividend","outputs":[{"internalType":"bool","name":"","type":"bool"}],"stateMutability":"view","type":"function"},{"inputs":[{"internalType":"uint256","name":"","type":"uint256"}],"name":"claimedUsers","outputs":[{"internalType":"address","name":"","type":"address"}],"stateMutability":"view","type":"function"},{"inputs":[],"name":"decimals","outputs":[{"internalType":"uint8","name":"","type":"uint8"}],"stateMutability":"view","type":"function"},{"inputs":[{"internalType":"address","name":"","type":"address"},{"internalType":"uint256","name":"","type":"uint256"}],"name":"decreaseAllowance","outputs":[{"internalType":"bool","name":"","type":"bool"}],"stateMutability":"pure","type":"function"},{"inputs":[{"internalType":"address","name":"","type":"address"},{"internalType":"uint256","name":"","type":"uint256"}],"name":"increaseAllowance","outputs":[{"internalType":"bool","name":"","type":"bool"}],"stateMutability":"pure","type":"function"},{"inputs":[{"internalType":"address","name":"","type":"address"}],"name":"ledger","outputs":[{"internalType":"uint256","name":"","type":"uint256"}],"stateMutability":"view","type":"function"},{"inputs":[],"name":"name","outputs":[{"internalType":"string","name":"","type":"string"}],"stateMutability":"view","type":"function"},{"inputs":[],"name":"owner","outputs":[{"internalType":"address","name":"","type":"address"}],"stateMutability":"view","type":"function"},{"inputs":[],"name":"renounceOwnership","outputs":[],"stateMutability":"nonpayable","type":"function"},{"inputs":[{"internalType":"uint256","name":"value","type":"uint256"}],"name":"setDividend","outputs":[],"stateMutability":"payable","type":"function"},{"inputs":[],"name":"symbol","outputs":[{"internalType":"string","name":"","type":"string"}],"stateMutability":"view","type":"function"},{"inputs":[],"name":"token","outputs":[{"internalType":"contract IERC20Plugins","name":"","type":"address"}],"stateMutability":"view","type":"function"},{"inputs":[],"name":"totalClaimedDividend","outputs":[{"internalType":"uint256","name":"","type":"uint256"}],"stateMutability":"view","type":"function"},{"inputs":[],"name":"totalDividendPool","outputs":[{"internalType":"uint256","name":"","type":"uint256"}],"stateMutability":"view","type":"function"},{"inputs":[],"name":"totalSubscribedSupply","outputs":[{"internalType":"uint256","name":"","type":"uint256"}],"stateMutability":"view","type":"function"},{"inputs":[],"name":"totalSupply","outputs":[{"internalType":"uint256","name":"","type":"uint256"}],"stateMutability":"view","type":"function"},{"inputs":[{"internalType":"address","name":"","type":"address"},{"internalType":"uint256","name":"","type":"uint256"}],"name":"transfer","outputs":[{"internalType":"bool","name":"","type":"bool"}],"stateMutability":"pure","type":"function"},{"inputs":[{"internalType":"address","name":"","type":"address"},{"internalType":"address","name":"","type":"address"},{"internalType":"uint256","name":"","type":"uint256"}],"name":"transferFrom","outputs":[{"internalType":"bool","name":"","type":"bool"}],"stateMutability":"pure","type":"function"},{"inputs":[{"internalType":"address","name":"newOwner","type":"address"}],"name":"transferOwnership","outputs":[],"stateMutability":"nonpayable","type":"function"},{"inputs":[{"internalType":"address","name":"from","type":"address"},{"internalType":"address","name":"to","type":"address"},{"internalType":"uint256","name":"amount","type":"uint256"}],"name":"updateBalances","outputs":[],"stateMutability":"nonpayable","type":"function"}],"devdoc":{"events":{"Approval(address,address,uint256)":{"details":"Emitted when the allowance of a `spender` for an `owner` is set by a call to {approve}. `value` is the new allowance."},"Transfer(address,address,uint256)":{"details":"Emitted when `value` tokens are moved from one account (`from`) to another (`to`). Note that `value` may be zero."}},"kind":"dev","methods":{"allowance(address,address)":{"details":"See {IERC20-allowance}."},"balanceOf(address)":{"details":"See {IERC20-balanceOf}."},"decimals()":{"details":"Returns the number of decimals used to get its user representation. For example, if `decimals` equals `2`, a balance of `505` tokens should be displayed to a user as `5.05` (`505 / 10 ** 2`). Tokens usually opt for a value of 18, imitating the relationship between Ether and Wei. This is the default value returned by this function, unless it's overridden. NOTE: This information is only used for _display_ purposes: it in no way affects any of the arithmetic of the contract, including {IERC20-balanceOf} and {IERC20-transfer}."},"name()":{"details":"Returns the name of the token."},"owner()":{"details":"Returns the address of the current owner."},"renounceOwnership()":{"details":"Leaves the contract without owner. It will not be possible to call `onlyOwner` functions. Can only be called by the current owner. NOTE: Renouncing ownership will leave the contract without an owner, thereby disabling any functionality that is only available to the owner."},"symbol()":{"details":"Returns the symbol of the token, usually a shorter version of the name."},"totalSupply()":{"details":"See {IERC20-totalSupply}."},"transferOwnership(address)":{"details":"Transfers ownership of the contract to a new account (`newOwner`). Can only be called by the current owner."},"updateBalances(address,address,uint256)":{"details":"Updates the balances of two addresses in the plugin as a result of any balance changes. Only the Token contract is allowed to call this function.","params":{"amount":"The amount of tokens transferred","from":"The address from which tokens were transferred","to":"The address to which tokens were transferred"}}},"version":1},"evm":{"bytecode":{"linkReferences":{},"object":"60a06040523462000386576200167e803803806200001d816200038b565b9283398101606082820312620003865781516001600160401b03908181116200038657826200004e918501620003b1565b906020928385015182811162000386576040916200006e918701620003b1565b9401516001600160a01b03949085811681036200038657608052825182811162000286576003918254916001958684811c941680156200037b575b8885101462000365578190601f948581116200030f575b508890858311600114620002a8576000926200029c575b505060001982861b1c191690861b1783555b8051938411620002865760049586548681811c911680156200027b575b8282101462000266578381116200021b575b5080928511600114620001ad5750938394918492600095620001a1575b50501b92600019911b1c19161790555b60058054336001600160a01b03198216811790925560405192167f8be0079c531659141344cd1fd0a4f28419497f9722a3daafe3b4186f6b6457e0600080a361125a90816200042482396080518181816101760152610b420152f35b01519350388062000135565b92919084601f1981168860005285600020956000905b89838310620002005750505010620001e5575b50505050811b01905562000145565b01519060f884600019921b161c1916905538808080620001d6565b858701518955909701969485019488935090810190620001c3565b87600052816000208480880160051c8201928489106200025c575b0160051c019087905b8281106200024f57505062000118565b600081550187906200023f565b9250819262000236565b602288634e487b7160e01b6000525260246000fd5b90607f169062000106565b634e487b7160e01b600052604160045260246000fd5b015190503880620000d7565b90889350601f19831691876000528a6000209260005b8c828210620002f85750508411620002df575b505050811b018355620000e9565b015160001983881b60f8161c19169055388080620002d1565b8385015186558c97909501949384019301620002be565b90915085600052886000208580850160051c8201928b86106200035b575b918a91869594930160051c01915b8281106200034b575050620000c0565b600081558594508a91016200033b565b925081926200032d565b634e487b7160e01b600052602260045260246000fd5b93607f1693620000a9565b600080fd5b6040519190601f01601f191682016001600160401b038111838210176200028657604052565b919080601f84011215620003865782516001600160401b0381116200028657602090620003e7601f8201601f191683016200038b565b92818452828287010111620003865760005b8181106200040f57508260009394955001015290565b8581018301518482018401528201620003f956fe608060408181526004918236101561001657600080fd5b600092833560e01c91826306fdde0314610dec57508163095ea7b3146108bf57816318160ddd14610daf57816323b872dd14610d75578163313ce56714610d3b57816339509351146108bf57816370a0823114610cda578163715018a614610c3c5781637a1f1aa914610b13578163860030a614610aac5781638da5cb5b14610a5957816395d89b41146109015781639ed7e556146108c4578163a457c2d7146108bf578163a9059cbb1461085f578163ae21f6f214610822578163b4781912146107b2578163b54ec8e614610775578163dd62ed3e146106f6578163e091f45314610568578163f0fc6bca1461033c578163f2fde38b146101ff57508063fbfa941f1461019e5763fc0c546a1461012d57600080fd5b3461019a57817ffffffffffffffffffffffffffffffffffffffffffffffffffffffffffffffffc36011261019a576020905173ffffffffffffffffffffffffffffffffffffffff7f0000000000000000000000000000000000000000000000000000000000000000168152f35b5080fd5b503461019a5760207ffffffffffffffffffffffffffffffffffffffffffffffffffffffffffffffffc36011261019a578060209273ffffffffffffffffffffffffffffffffffffffff6101ef610f9c565b1681526006845220549051908152f35b9050346103385760207ffffffffffffffffffffffffffffffffffffffffffffffffffffffffffffffffc36011261033857610238610f9c565b906102416110ec565b73ffffffffffffffffffffffffffffffffffffffff8092169283156102b5575050600554827fffffffffffffffffffffffff0000000000000000000000000000000000000000821617600555167f8be0079c531659141344cd1fd0a4f28419497f9722a3daafe3b4186f6b6457e08380a380f35b90602060849251917f08c379a0000000000000000000000000000000000000000000000000000000008352820152602660248201527f4f776e61626c653a206e6577206f776e657220697320746865207a65726f206160448201527f64647265737300000000000000000000000000000000000000000000000000006064820152fd5b8280fd5b90503461033857827ffffffffffffffffffffffffffffffffffffffffffffffffffffffffffffffffc36011261033857338352600760205260ff82842054166104e657600b54680100000000000000008110156104ba578060016103a39201600b55611086565b81549060031b9073ffffffffffffffffffffffffffffffffffffffff33831b921b1916179055338352600760205281832060017fffffffffffffffffffffffffffffffffffffffffffffffffffffffffffffff008254161790556006602052818320546009549081810291818304149015171561048e5760085491821561046257508380809381930461043881600a546111db565b600a55818115610459575b3390f11561044f575080f35b51903d90823e3d90fd5b506108fc610443565b8460126024927f4e487b7100000000000000000000000000000000000000000000000000000000835252fd5b6024846011847f4e487b7100000000000000000000000000000000000000000000000000000000835252fd5b6024846041847f4e487b7100000000000000000000000000000000000000000000000000000000835252fd5b602060849251917f08c379a0000000000000000000000000000000000000000000000000000000008352820152603260248201527f4469766964656e6444697370617463686572506c7567696e3a20616c7265616460448201527f7920636c61696d6564206469766964656e6400000000000000000000000000006064820152fd5b839150602092837ffffffffffffffffffffffffffffffffffffffffffffffffffffffffffffffffc3601126103385761059f6110ec565b813560095582600a55825b600b548110156106645773ffffffffffffffffffffffffffffffffffffffff6105d282611086565b90549060031b1c168452600785528184207fffffffffffffffffffffffffffffffffffffffffffffffffffffffffffffff0081541690557fffffffffffffffffffffffffffffffffffffffffffffffffffffffffffffffff8114610638576001016105aa565b6024846011857f4e487b7100000000000000000000000000000000000000000000000000000000835252fd5b505167ffffffffffffffff8185019081119111176106ca5750600b5481600b558061068d575080f35b7f0175b7a638427703f0dbe7bb9bbf987a2551717b34e79f33b5b1008d1fa01db9908101905b8181106106bf57505080f35b8281556001016106b3565b9060416024927f4e487b7100000000000000000000000000000000000000000000000000000000835252fd5b50503461019a57807ffffffffffffffffffffffffffffffffffffffffffffffffffffffffffffffffc36011261019a5761072e610f9c565b6024359073ffffffffffffffffffffffffffffffffffffffff90818316809303610771579160209491849316825260018552828220908252845220549051908152f35b8480fd5b50503461019a57817ffffffffffffffffffffffffffffffffffffffffffffffffffffffffffffffffc36011261019a576020906009549051908152f35b9050346103385760207ffffffffffffffffffffffffffffffffffffffffffffffffffffffffffffffffc360112610338573591600b5483101561081f575073ffffffffffffffffffffffffffffffffffffffff610810602093611086565b92905490519260031b1c168152f35b80fd5b50503461019a57817ffffffffffffffffffffffffffffffffffffffffffffffffffffffffffffffffc36011261019a57602090600a549051908152f35b82843461081f57817ffffffffffffffffffffffffffffffffffffffffffffffffffffffffffffffffc36011261081f5750610898610f9c565b50517fa24e573d000000000000000000000000000000000000000000000000000000008152fd5b610fc4565b50503461019a57817ffffffffffffffffffffffffffffffffffffffffffffffffffffffffffffffffc36011261019a576020906008549051908152f35b83833461019a57817ffffffffffffffffffffffffffffffffffffffffffffffffffffffffffffffffc36011261019a57805191809380549160019083821c92828516948515610a4f575b6020958686108114610a23578589529081156109e15750600114610989575b610985878761097b828c038361116b565b5191829182610f36565b0390f35b81529295507f8a35acfbc15ff81a39ae7d344fd709f28e8600b4aa8c65c6b64bfe7fe36bd19b5b8284106109ce57505050826109859461097b9282010194868061096a565b80548685018801529286019281016109b0565b7fffffffffffffffffffffffffffffffffffffffffffffffffffffffffffffff00168887015250505050151560051b830101925061097b82610985868061096a565b6024846022857f4e487b7100000000000000000000000000000000000000000000000000000000835252fd5b93607f169361094b565b50503461019a57817ffffffffffffffffffffffffffffffffffffffffffffffffffffffffffffffffc36011261019a5760209073ffffffffffffffffffffffffffffffffffffffff600554169051908152f35b50503461019a5760207ffffffffffffffffffffffffffffffffffffffffffffffffffffffffffffffffc36011261019a5760ff8160209373ffffffffffffffffffffffffffffffffffffffff610b00610f9c565b1681526007855220541690519015158152f35b9190503461033857610b2436611026565b929173ffffffffffffffffffffffffffffffffffffffff94919491827f0000000000000000000000000000000000000000000000000000000000000000163303610c155750811680610ba757508293610b83610b9993946008546111db565b60085516928385526006602052828520546111db565b918352600660205282205580f35b9316929083610be357610bdd93508185526006602052610bca8382872054611217565b9185526006602052842055600854611217565b60085580f35b9181610b999286526006602052610bfd8285882054611217565b908652600660205283862055838552828520546111db565b83517f4ca88867000000000000000000000000000000000000000000000000000000008152fd5b833461081f57807ffffffffffffffffffffffffffffffffffffffffffffffffffffffffffffffffc36011261081f57610c736110ec565b8073ffffffffffffffffffffffffffffffffffffffff6005547fffffffffffffffffffffffff00000000000000000000000000000000000000008116600555167f8be0079c531659141344cd1fd0a4f28419497f9722a3daafe3b4186f6b6457e08280a380f35b50503461019a5760207ffffffffffffffffffffffffffffffffffffffffffffffffffffffffffffffffc36011261019a578060209273ffffffffffffffffffffffffffffffffffffffff610d2c610f9c565b16815280845220549051908152f35b50503461019a57817ffffffffffffffffffffffffffffffffffffffffffffffffffffffffffffffffc36011261019a576020905160128152f35b82843461081f5750610d8636611026565b505050517fa24e573d000000000000000000000000000000000000000000000000000000008152fd5b50503461019a57817ffffffffffffffffffffffffffffffffffffffffffffffffffffffffffffffffc36011261019a576020906002549051908152f35b92915034610f3257837ffffffffffffffffffffffffffffffffffffffffffffffffffffffffffffffffc360112610f3257600354600181811c9186908281168015610f28575b6020958686108214610efc5750848852908115610ebc5750600114610e63575b610985868661097b828b038361116b565b929550600383527fc2575a0e9e593c00f959f8c92f12db2869c3395a3b0502d05e2516446f71f85b5b828410610ea957505050826109859461097b928201019438610e52565b8054868501880152928601928101610e8c565b7fffffffffffffffffffffffffffffffffffffffffffffffffffffffffffffff001687860152505050151560051b830101925061097b8261098538610e52565b8360226024927f4e487b7100000000000000000000000000000000000000000000000000000000835252fd5b93607f1693610e32565b8380fd5b60208082528251818301819052939260005b858110610f88575050507fffffffffffffffffffffffffffffffffffffffffffffffffffffffffffffffe0601f8460006040809697860101520116010190565b818101830151848201604001528201610f48565b6004359073ffffffffffffffffffffffffffffffffffffffff82168203610fbf57565b600080fd5b34610fbf5760407ffffffffffffffffffffffffffffffffffffffffffffffffffffffffffffffffc360112610fbf57610ffb610f9c565b5060046040517feb60c2c4000000000000000000000000000000000000000000000000000000008152fd5b7ffffffffffffffffffffffffffffffffffffffffffffffffffffffffffffffffc6060910112610fbf5773ffffffffffffffffffffffffffffffffffffffff906004358281168103610fbf57916024359081168103610fbf579060443590565b600b548110156110bd57600b6000527f0175b7a638427703f0dbe7bb9bbf987a2551717b34e79f33b5b1008d1fa01db90190600090565b7f4e487b7100000000000000000000000000000000000000000000000000000000600052603260045260246000fd5b73ffffffffffffffffffffffffffffffffffffffff60055416330361110d57565b60646040517f08c379a000000000000000000000000000000000000000000000000000000000815260206004820152602060248201527f4f776e61626c653a2063616c6c6572206973206e6f7420746865206f776e65726044820152fd5b90601f7fffffffffffffffffffffffffffffffffffffffffffffffffffffffffffffffe0910116810190811067ffffffffffffffff8211176111ac57604052565b7f4e487b7100000000000000000000000000000000000000000000000000000000600052604160045260246000fd5b919082018092116111e857565b7f4e487b7100000000000000000000000000000000000000000000000000000000600052601160045260246000fd5b919082039182116111e85756fea2646970667358221220c91ae5c2036df42bc5b1719d7d6d5b2139d14a2ab2ac652bda4d1a67712134fa64736f6c63430008130033","opcodes":"PUSH1 0xA0 PUSH1 0x40 MSTORE CALLVALUE PUSH3 0x386 JUMPI PUSH3 0x167E DUP1 CODESIZE SUB DUP1 PUSH3 0x1D DUP2 PUSH3 0x38B JUMP JUMPDEST SWAP3 DUP4 CODECOPY DUP2 ADD PUSH1 0x60 DUP3 DUP3 SUB SLT PUSH3 0x386 JUMPI DUP2 MLOAD PUSH1 0x1 PUSH1 0x1 PUSH1 0x40 SHL SUB SWAP1 DUP2 DUP2 GT PUSH3 0x386 JUMPI DUP3 PUSH3 0x4E SWAP2 DUP6 ADD PUSH3 0x3B1 JUMP JUMPDEST SWAP1 PUSH1 0x20 SWAP3 DUP4 DUP6 ADD MLOAD DUP3 DUP2 GT PUSH3 0x386 JUMPI PUSH1 0x40 SWAP2 PUSH3 0x6E SWAP2 DUP8 ADD PUSH3 0x3B1 JUMP JUMPDEST SWAP5 ADD MLOAD PUSH1 0x1 PUSH1 0x1 PUSH1 0xA0 SHL SUB SWAP5 SWAP1 DUP6 DUP2 AND DUP2 SUB PUSH3 0x386 JUMPI PUSH1 0x80 MSTORE DUP3 MLOAD DUP3 DUP2 GT PUSH3 0x286 JUMPI PUSH1 0x3 SWAP2 DUP3 SLOAD SWAP2 PUSH1 0x1 SWAP6 DUP7 DUP5 DUP2 SHR SWAP5 AND DUP1 ISZERO PUSH3 0x37B JUMPI JUMPDEST DUP9 DUP6 LT EQ PUSH3 0x365 JUMPI DUP2 SWAP1 PUSH1 0x1F SWAP5 DUP6 DUP2 GT PUSH3 0x30F JUMPI JUMPDEST POP DUP9 SWAP1 DUP6 DUP4 GT PUSH1 0x1 EQ PUSH3 0x2A8 JUMPI PUSH1 0x0 SWAP3 PUSH3 0x29C JUMPI JUMPDEST POP POP PUSH1 0x0 NOT DUP3 DUP7 SHL SHR NOT AND SWAP1 DUP7 SHL OR DUP4 SSTORE JUMPDEST DUP1 MLOAD SWAP4 DUP5 GT PUSH3 0x286 JUMPI PUSH1 0x4 SWAP6 DUP7 SLOAD DUP7 DUP2 DUP2 SHR SWAP2 AND DUP1 ISZERO PUSH3 0x27B JUMPI JUMPDEST DUP3 DUP3 LT EQ PUSH3 0x266 JUMPI DUP4 DUP2 GT PUSH3 0x21B JUMPI JUMPDEST POP DUP1 SWAP3 DUP6 GT PUSH1 0x1 EQ PUSH3 0x1AD JUMPI POP SWAP4 DUP4 SWAP5 SWAP2 DUP5 SWAP3 PUSH1 0x0 SWAP6 PUSH3 0x1A1 JUMPI JUMPDEST POP POP SHL SWAP3 PUSH1 0x0 NOT SWAP2 SHL SHR NOT AND OR SWAP1 SSTORE JUMPDEST PUSH1 0x5 DUP1 SLOAD CALLER PUSH1 0x1 PUSH1 0x1 PUSH1 0xA0 SHL SUB NOT DUP3 AND DUP2 OR SWAP1 SWAP3 SSTORE PUSH1 0x40 MLOAD SWAP3 AND PUSH32 0x8BE0079C531659141344CD1FD0A4F28419497F9722A3DAAFE3B4186F6B6457E0 PUSH1 0x0 DUP1 LOG3 PUSH2 0x125A SWAP1 DUP2 PUSH3 0x424 DUP3 CODECOPY PUSH1 0x80 MLOAD DUP2 DUP2 DUP2 PUSH2 0x176 ADD MSTORE PUSH2 0xB42 ADD MSTORE RETURN JUMPDEST ADD MLOAD SWAP4 POP CODESIZE DUP1 PUSH3 0x135 JUMP JUMPDEST SWAP3 SWAP2 SWAP1 DUP5 PUSH1 0x1F NOT DUP2 AND DUP9 PUSH1 0x0 MSTORE DUP6 PUSH1 0x0 KECCAK256 SWAP6 PUSH1 0x0 SWAP1 JUMPDEST DUP10 DUP4 DUP4 LT PUSH3 0x200 JUMPI POP POP POP LT PUSH3 0x1E5 JUMPI JUMPDEST POP POP POP POP DUP2 SHL ADD SWAP1 SSTORE PUSH3 0x145 JUMP JUMPDEST ADD MLOAD SWAP1 PUSH1 0xF8 DUP5 PUSH1 0x0 NOT SWAP3 SHL AND SHR NOT AND SWAP1 SSTORE CODESIZE DUP1 DUP1 DUP1 PUSH3 0x1D6 JUMP JUMPDEST DUP6 DUP8 ADD MLOAD DUP10 SSTORE SWAP1 SWAP8 ADD SWAP7 SWAP5 DUP6 ADD SWAP5 DUP9 SWAP4 POP SWAP1 DUP2 ADD SWAP1 PUSH3 0x1C3 JUMP JUMPDEST DUP8 PUSH1 0x0 MSTORE DUP2 PUSH1 0x0 KECCAK256 DUP5 DUP1 DUP9 ADD PUSH1 0x5 SHR DUP3 ADD SWAP3 DUP5 DUP10 LT PUSH3 0x25C JUMPI JUMPDEST ADD PUSH1 0x5 SHR ADD SWAP1 DUP8 SWAP1 JUMPDEST DUP3 DUP2 LT PUSH3 0x24F JUMPI POP POP PUSH3 0x118 JUMP JUMPDEST PUSH1 0x0 DUP2 SSTORE ADD DUP8 SWAP1 PUSH3 0x23F JUMP JUMPDEST SWAP3 POP DUP2 SWAP3 PUSH3 0x236 JUMP JUMPDEST PUSH1 0x22 DUP9 PUSH4 0x4E487B71 PUSH1 0xE0 SHL PUSH1 0x0 MSTORE MSTORE PUSH1 0x24 PUSH1 0x0 REVERT JUMPDEST SWAP1 PUSH1 0x7F AND SWAP1 PUSH3 0x106 JUMP JUMPDEST PUSH4 0x4E487B71 PUSH1 0xE0 SHL PUSH1 0x0 MSTORE PUSH1 0x41 PUSH1 0x4 MSTORE PUSH1 0x24 PUSH1 0x0 REVERT JUMPDEST ADD MLOAD SWAP1 POP CODESIZE DUP1 PUSH3 0xD7 JUMP JUMPDEST SWAP1 DUP9 SWAP4 POP PUSH1 0x1F NOT DUP4 AND SWAP2 DUP8 PUSH1 0x0 MSTORE DUP11 PUSH1 0x0 KECCAK256 SWAP3 PUSH1 0x0 JUMPDEST DUP13 DUP3 DUP3 LT PUSH3 0x2F8 JUMPI POP POP DUP5 GT PUSH3 0x2DF JUMPI JUMPDEST POP POP POP DUP2 SHL ADD DUP4 SSTORE PUSH3 0xE9 JUMP JUMPDEST ADD MLOAD PUSH1 0x0 NOT DUP4 DUP9 SHL PUSH1 0xF8 AND SHR NOT AND SWAP1 SSTORE CODESIZE DUP1 DUP1 PUSH3 0x2D1 JUMP JUMPDEST DUP4 DUP6 ADD MLOAD DUP7 SSTORE DUP13 SWAP8 SWAP1 SWAP6 ADD SWAP5 SWAP4 DUP5 ADD SWAP4 ADD PUSH3 0x2BE JUMP JUMPDEST SWAP1 SWAP2 POP DUP6 PUSH1 0x0 MSTORE DUP9 PUSH1 0x0 KECCAK256 DUP6 DUP1 DUP6 ADD PUSH1 0x5 SHR DUP3 ADD SWAP3 DUP12 DUP7 LT PUSH3 0x35B JUMPI JUMPDEST SWAP2 DUP11 SWAP2 DUP7 SWAP6 SWAP5 SWAP4 ADD PUSH1 0x5 SHR ADD SWAP2 JUMPDEST DUP3 DUP2 LT PUSH3 0x34B JUMPI POP POP PUSH3 0xC0 JUMP JUMPDEST PUSH1 0x0 DUP2 SSTORE DUP6 SWAP5 POP DUP11 SWAP2 ADD PUSH3 0x33B JUMP JUMPDEST SWAP3 POP DUP2 SWAP3 PUSH3 0x32D JUMP JUMPDEST PUSH4 0x4E487B71 PUSH1 0xE0 SHL PUSH1 0x0 MSTORE PUSH1 0x22 PUSH1 0x4 MSTORE PUSH1 0x24 PUSH1 0x0 REVERT JUMPDEST SWAP4 PUSH1 0x7F AND SWAP4 PUSH3 0xA9 JUMP JUMPDEST PUSH1 0x0 DUP1 REVERT JUMPDEST PUSH1 0x40 MLOAD SWAP2 SWAP1 PUSH1 0x1F ADD PUSH1 0x1F NOT AND DUP3 ADD PUSH1 0x1 PUSH1 0x1 PUSH1 0x40 SHL SUB DUP2 GT DUP4 DUP3 LT OR PUSH3 0x286 JUMPI PUSH1 0x40 MSTORE JUMP JUMPDEST SWAP2 SWAP1 DUP1 PUSH1 0x1F DUP5 ADD SLT ISZERO PUSH3 0x386 JUMPI DUP3 MLOAD PUSH1 0x1 PUSH1 0x1 PUSH1 0x40 SHL SUB DUP2 GT PUSH3 0x286 JUMPI PUSH1 0x20 SWAP1 PUSH3 0x3E7 PUSH1 0x1F DUP3 ADD PUSH1 0x1F NOT AND DUP4 ADD PUSH3 0x38B JUMP JUMPDEST SWAP3 DUP2 DUP5 MSTORE DUP3 DUP3 DUP8 ADD ADD GT PUSH3 0x386 JUMPI PUSH1 0x0 JUMPDEST DUP2 DUP2 LT PUSH3 0x40F JUMPI POP DUP3 PUSH1 0x0 SWAP4 SWAP5 SWAP6 POP ADD ADD MSTORE SWAP1 JUMP JUMPDEST DUP6 DUP2 ADD DUP4 ADD MLOAD DUP5 DUP3 ADD DUP5 ADD MSTORE DUP3 ADD PUSH3 0x3F9 JUMP INVALID PUSH1 0x80 PUSH1 0x40 DUP2 DUP2 MSTORE PUSH1 0x4 SWAP2 DUP3 CALLDATASIZE LT ISZERO PUSH2 0x16 JUMPI PUSH1 0x0 DUP1 REVERT JUMPDEST PUSH1 0x0 SWAP3 DUP4 CALLDATALOAD PUSH1 0xE0 SHR SWAP2 DUP3 PUSH4 0x6FDDE03 EQ PUSH2 0xDEC JUMPI POP DUP2 PUSH4 0x95EA7B3 EQ PUSH2 0x8BF JUMPI DUP2 PUSH4 0x18160DDD EQ PUSH2 0xDAF JUMPI DUP2 PUSH4 0x23B872DD EQ PUSH2 0xD75 JUMPI DUP2 PUSH4 0x313CE567 EQ PUSH2 0xD3B JUMPI DUP2 PUSH4 0x39509351 EQ PUSH2 0x8BF JUMPI DUP2 PUSH4 0x70A08231 EQ PUSH2 0xCDA JUMPI DUP2 PUSH4 0x715018A6 EQ PUSH2 0xC3C JUMPI DUP2 PUSH4 0x7A1F1AA9 EQ PUSH2 0xB13 JUMPI DUP2 PUSH4 0x860030A6 EQ PUSH2 0xAAC JUMPI DUP2 PUSH4 0x8DA5CB5B EQ PUSH2 0xA59 JUMPI DUP2 PUSH4 0x95D89B41 EQ PUSH2 0x901 JUMPI DUP2 PUSH4 0x9ED7E556 EQ PUSH2 0x8C4 JUMPI DUP2 PUSH4 0xA457C2D7 EQ PUSH2 0x8BF JUMPI DUP2 PUSH4 0xA9059CBB EQ PUSH2 0x85F JUMPI DUP2 PUSH4 0xAE21F6F2 EQ PUSH2 0x822 JUMPI DUP2 PUSH4 0xB4781912 EQ PUSH2 0x7B2 JUMPI DUP2 PUSH4 0xB54EC8E6 EQ PUSH2 0x775 JUMPI DUP2 PUSH4 0xDD62ED3E EQ PUSH2 0x6F6 JUMPI DUP2 PUSH4 0xE091F453 EQ PUSH2 0x568 JUMPI DUP2 PUSH4 0xF0FC6BCA EQ PUSH2 0x33C JUMPI DUP2 PUSH4 0xF2FDE38B EQ PUSH2 0x1FF JUMPI POP DUP1 PUSH4 0xFBFA941F EQ PUSH2 0x19E JUMPI PUSH4 0xFC0C546A EQ PUSH2 0x12D JUMPI PUSH1 0x0 DUP1 REVERT JUMPDEST CALLVALUE PUSH2 0x19A JUMPI DUP2 PUSH32 0xFFFFFFFFFFFFFFFFFFFFFFFFFFFFFFFFFFFFFFFFFFFFFFFFFFFFFFFFFFFFFFFC CALLDATASIZE ADD SLT PUSH2 0x19A JUMPI PUSH1 0x20 SWAP1 MLOAD PUSH20 0xFFFFFFFFFFFFFFFFFFFFFFFFFFFFFFFFFFFFFFFF PUSH32 0x0 AND DUP2 MSTORE RETURN JUMPDEST POP DUP1 REVERT JUMPDEST POP CALLVALUE PUSH2 0x19A JUMPI PUSH1 0x20 PUSH32 0xFFFFFFFFFFFFFFFFFFFFFFFFFFFFFFFFFFFFFFFFFFFFFFFFFFFFFFFFFFFFFFFC CALLDATASIZE ADD SLT PUSH2 0x19A JUMPI DUP1 PUSH1 0x20 SWAP3 PUSH20 0xFFFFFFFFFFFFFFFFFFFFFFFFFFFFFFFFFFFFFFFF PUSH2 0x1EF PUSH2 0xF9C JUMP JUMPDEST AND DUP2 MSTORE PUSH1 0x6 DUP5 MSTORE KECCAK256 SLOAD SWAP1 MLOAD SWAP1 DUP2 MSTORE RETURN JUMPDEST SWAP1 POP CALLVALUE PUSH2 0x338 JUMPI PUSH1 0x20 PUSH32 0xFFFFFFFFFFFFFFFFFFFFFFFFFFFFFFFFFFFFFFFFFFFFFFFFFFFFFFFFFFFFFFFC CALLDATASIZE ADD SLT PUSH2 0x338 JUMPI PUSH2 0x238 PUSH2 0xF9C JUMP JUMPDEST SWAP1 PUSH2 0x241 PUSH2 0x10EC JUMP JUMPDEST PUSH20 0xFFFFFFFFFFFFFFFFFFFFFFFFFFFFFFFFFFFFFFFF DUP1 SWAP3 AND SWAP3 DUP4 ISZERO PUSH2 0x2B5 JUMPI POP POP PUSH1 0x5 SLOAD DUP3 PUSH32 0xFFFFFFFFFFFFFFFFFFFFFFFF0000000000000000000000000000000000000000 DUP3 AND OR PUSH1 0x5 SSTORE AND PUSH32 0x8BE0079C531659141344CD1FD0A4F28419497F9722A3DAAFE3B4186F6B6457E0 DUP4 DUP1 LOG3 DUP1 RETURN JUMPDEST SWAP1 PUSH1 0x20 PUSH1 0x84 SWAP3 MLOAD SWAP2 PUSH32 0x8C379A000000000000000000000000000000000000000000000000000000000 DUP4 MSTORE DUP3 ADD MSTORE PUSH1 0x26 PUSH1 0x24 DUP3 ADD MSTORE PUSH32 0x4F776E61626C653A206E6577206F776E657220697320746865207A65726F2061 PUSH1 0x44 DUP3 ADD MSTORE PUSH32 0x6464726573730000000000000000000000000000000000000000000000000000 PUSH1 0x64 DUP3 ADD MSTORE REVERT JUMPDEST DUP3 DUP1 REVERT JUMPDEST SWAP1 POP CALLVALUE PUSH2 0x338 JUMPI DUP3 PUSH32 0xFFFFFFFFFFFFFFFFFFFFFFFFFFFFFFFFFFFFFFFFFFFFFFFFFFFFFFFFFFFFFFFC CALLDATASIZE ADD SLT PUSH2 0x338 JUMPI CALLER DUP4 MSTORE PUSH1 0x7 PUSH1 0x20 MSTORE PUSH1 0xFF DUP3 DUP5 KECCAK256 SLOAD AND PUSH2 0x4E6 JUMPI PUSH1 0xB SLOAD PUSH9 0x10000000000000000 DUP2 LT ISZERO PUSH2 0x4BA JUMPI DUP1 PUSH1 0x1 PUSH2 0x3A3 SWAP3 ADD PUSH1 0xB SSTORE PUSH2 0x1086 JUMP JUMPDEST DUP2 SLOAD SWAP1 PUSH1 0x3 SHL SWAP1 PUSH20 0xFFFFFFFFFFFFFFFFFFFFFFFFFFFFFFFFFFFFFFFF CALLER DUP4 SHL SWAP3 SHL NOT AND OR SWAP1 SSTORE CALLER DUP4 MSTORE PUSH1 0x7 PUSH1 0x20 MSTORE DUP2 DUP4 KECCAK256 PUSH1 0x1 PUSH32 0xFFFFFFFFFFFFFFFFFFFFFFFFFFFFFFFFFFFFFFFFFFFFFFFFFFFFFFFFFFFFFF00 DUP3 SLOAD AND OR SWAP1 SSTORE PUSH1 0x6 PUSH1 0x20 MSTORE DUP2 DUP4 KECCAK256 SLOAD PUSH1 0x9 SLOAD SWAP1 DUP2 DUP2 MUL SWAP2 DUP2 DUP4 DIV EQ SWAP1 ISZERO OR ISZERO PUSH2 0x48E JUMPI PUSH1 0x8 SLOAD SWAP2 DUP3 ISZERO PUSH2 0x462 JUMPI POP DUP4 DUP1 DUP1 SWAP4 DUP2 SWAP4 DIV PUSH2 0x438 DUP2 PUSH1 0xA SLOAD PUSH2 0x11DB JUMP JUMPDEST PUSH1 0xA SSTORE DUP2 DUP2 ISZERO PUSH2 0x459 JUMPI JUMPDEST CALLER SWAP1 CALL ISZERO PUSH2 0x44F JUMPI POP DUP1 RETURN JUMPDEST MLOAD SWAP1 RETURNDATASIZE SWAP1 DUP3 RETURNDATACOPY RETURNDATASIZE SWAP1 REVERT JUMPDEST POP PUSH2 0x8FC PUSH2 0x443 JUMP JUMPDEST DUP5 PUSH1 0x12 PUSH1 0x24 SWAP3 PUSH32 0x4E487B7100000000000000000000000000000000000000000000000000000000 DUP4 MSTORE MSTORE REVERT JUMPDEST PUSH1 0x24 DUP5 PUSH1 0x11 DUP5 PUSH32 0x4E487B7100000000000000000000000000000000000000000000000000000000 DUP4 MSTORE MSTORE REVERT JUMPDEST PUSH1 0x24 DUP5 PUSH1 0x41 DUP5 PUSH32 0x4E487B7100000000000000000000000000000000000000000000000000000000 DUP4 MSTORE MSTORE REVERT JUMPDEST PUSH1 0x20 PUSH1 0x84 SWAP3 MLOAD SWAP2 PUSH32 0x8C379A000000000000000000000000000000000000000000000000000000000 DUP4 MSTORE DUP3 ADD MSTORE PUSH1 0x32 PUSH1 0x24 DUP3 ADD MSTORE PUSH32 0x4469766964656E6444697370617463686572506C7567696E3A20616C72656164 PUSH1 0x44 DUP3 ADD MSTORE PUSH32 0x7920636C61696D6564206469766964656E640000000000000000000000000000 PUSH1 0x64 DUP3 ADD MSTORE REVERT JUMPDEST DUP4 SWAP2 POP PUSH1 0x20 SWAP3 DUP4 PUSH32 0xFFFFFFFFFFFFFFFFFFFFFFFFFFFFFFFFFFFFFFFFFFFFFFFFFFFFFFFFFFFFFFFC CALLDATASIZE ADD SLT PUSH2 0x338 JUMPI PUSH2 0x59F PUSH2 0x10EC JUMP JUMPDEST DUP2 CALLDATALOAD PUSH1 0x9 SSTORE DUP3 PUSH1 0xA SSTORE DUP3 JUMPDEST PUSH1 0xB SLOAD DUP2 LT ISZERO PUSH2 0x664 JUMPI PUSH20 0xFFFFFFFFFFFFFFFFFFFFFFFFFFFFFFFFFFFFFFFF PUSH2 0x5D2 DUP3 PUSH2 0x1086 JUMP JUMPDEST SWAP1 SLOAD SWAP1 PUSH1 0x3 SHL SHR AND DUP5 MSTORE PUSH1 0x7 DUP6 MSTORE DUP2 DUP5 KECCAK256 PUSH32 0xFFFFFFFFFFFFFFFFFFFFFFFFFFFFFFFFFFFFFFFFFFFFFFFFFFFFFFFFFFFFFF00 DUP2 SLOAD AND SWAP1 SSTORE PUSH32 0xFFFFFFFFFFFFFFFFFFFFFFFFFFFFFFFFFFFFFFFFFFFFFFFFFFFFFFFFFFFFFFFF DUP2 EQ PUSH2 0x638 JUMPI PUSH1 0x1 ADD PUSH2 0x5AA JUMP JUMPDEST PUSH1 0x24 DUP5 PUSH1 0x11 DUP6 PUSH32 0x4E487B7100000000000000000000000000000000000000000000000000000000 DUP4 MSTORE MSTORE REVERT JUMPDEST POP MLOAD PUSH8 0xFFFFFFFFFFFFFFFF DUP2 DUP6 ADD SWAP1 DUP2 GT SWAP2 GT OR PUSH2 0x6CA JUMPI POP PUSH1 0xB SLOAD DUP2 PUSH1 0xB SSTORE DUP1 PUSH2 0x68D JUMPI POP DUP1 RETURN JUMPDEST PUSH32 0x175B7A638427703F0DBE7BB9BBF987A2551717B34E79F33B5B1008D1FA01DB9 SWAP1 DUP2 ADD SWAP1 JUMPDEST DUP2 DUP2 LT PUSH2 0x6BF JUMPI POP POP DUP1 RETURN JUMPDEST DUP3 DUP2 SSTORE PUSH1 0x1 ADD PUSH2 0x6B3 JUMP JUMPDEST SWAP1 PUSH1 0x41 PUSH1 0x24 SWAP3 PUSH32 0x4E487B7100000000000000000000000000000000000000000000000000000000 DUP4 MSTORE MSTORE REVERT JUMPDEST POP POP CALLVALUE PUSH2 0x19A JUMPI DUP1 PUSH32 0xFFFFFFFFFFFFFFFFFFFFFFFFFFFFFFFFFFFFFFFFFFFFFFFFFFFFFFFFFFFFFFFC CALLDATASIZE ADD SLT PUSH2 0x19A JUMPI PUSH2 0x72E PUSH2 0xF9C JUMP JUMPDEST PUSH1 0x24 CALLDATALOAD SWAP1 PUSH20 0xFFFFFFFFFFFFFFFFFFFFFFFFFFFFFFFFFFFFFFFF SWAP1 DUP2 DUP4 AND DUP1 SWAP4 SUB PUSH2 0x771 JUMPI SWAP2 PUSH1 0x20 SWAP5 SWAP2 DUP5 SWAP4 AND DUP3 MSTORE PUSH1 0x1 DUP6 MSTORE DUP3 DUP3 KECCAK256 SWAP1 DUP3 MSTORE DUP5 MSTORE KECCAK256 SLOAD SWAP1 MLOAD SWAP1 DUP2 MSTORE RETURN JUMPDEST DUP5 DUP1 REVERT JUMPDEST POP POP CALLVALUE PUSH2 0x19A JUMPI DUP2 PUSH32 0xFFFFFFFFFFFFFFFFFFFFFFFFFFFFFFFFFFFFFFFFFFFFFFFFFFFFFFFFFFFFFFFC CALLDATASIZE ADD SLT PUSH2 0x19A JUMPI PUSH1 0x20 SWAP1 PUSH1 0x9 SLOAD SWAP1 MLOAD SWAP1 DUP2 MSTORE RETURN JUMPDEST SWAP1 POP CALLVALUE PUSH2 0x338 JUMPI PUSH1 0x20 PUSH32 0xFFFFFFFFFFFFFFFFFFFFFFFFFFFFFFFFFFFFFFFFFFFFFFFFFFFFFFFFFFFFFFFC CALLDATASIZE ADD SLT PUSH2 0x338 JUMPI CALLDATALOAD SWAP2 PUSH1 0xB SLOAD DUP4 LT ISZERO PUSH2 0x81F JUMPI POP PUSH20 0xFFFFFFFFFFFFFFFFFFFFFFFFFFFFFFFFFFFFFFFF PUSH2 0x810 PUSH1 0x20 SWAP4 PUSH2 0x1086 JUMP JUMPDEST SWAP3 SWAP1 SLOAD SWAP1 MLOAD SWAP3 PUSH1 0x3 SHL SHR AND DUP2 MSTORE RETURN JUMPDEST DUP1 REVERT JUMPDEST POP POP CALLVALUE PUSH2 0x19A JUMPI DUP2 PUSH32 0xFFFFFFFFFFFFFFFFFFFFFFFFFFFFFFFFFFFFFFFFFFFFFFFFFFFFFFFFFFFFFFFC CALLDATASIZE ADD SLT PUSH2 0x19A JUMPI PUSH1 0x20 SWAP1 PUSH1 0xA SLOAD SWAP1 MLOAD SWAP1 DUP2 MSTORE RETURN JUMPDEST DUP3 DUP5 CALLVALUE PUSH2 0x81F JUMPI DUP2 PUSH32 0xFFFFFFFFFFFFFFFFFFFFFFFFFFFFFFFFFFFFFFFFFFFFFFFFFFFFFFFFFFFFFFFC CALLDATASIZE ADD SLT PUSH2 0x81F JUMPI POP PUSH2 0x898 PUSH2 0xF9C JUMP JUMPDEST POP MLOAD PUSH32 0xA24E573D00000000000000000000000000000000000000000000000000000000 DUP2 MSTORE REVERT JUMPDEST PUSH2 0xFC4 JUMP JUMPDEST POP POP CALLVALUE PUSH2 0x19A JUMPI DUP2 PUSH32 0xFFFFFFFFFFFFFFFFFFFFFFFFFFFFFFFFFFFFFFFFFFFFFFFFFFFFFFFFFFFFFFFC CALLDATASIZE ADD SLT PUSH2 0x19A JUMPI PUSH1 0x20 SWAP1 PUSH1 0x8 SLOAD SWAP1 MLOAD SWAP1 DUP2 MSTORE RETURN JUMPDEST DUP4 DUP4 CALLVALUE PUSH2 0x19A JUMPI DUP2 PUSH32 0xFFFFFFFFFFFFFFFFFFFFFFFFFFFFFFFFFFFFFFFFFFFFFFFFFFFFFFFFFFFFFFFC CALLDATASIZE ADD SLT PUSH2 0x19A JUMPI DUP1 MLOAD SWAP2 DUP1 SWAP4 DUP1 SLOAD SWAP2 PUSH1 0x1 SWAP1 DUP4 DUP3 SHR SWAP3 DUP3 DUP6 AND SWAP5 DUP6 ISZERO PUSH2 0xA4F JUMPI JUMPDEST PUSH1 0x20 SWAP6 DUP7 DUP7 LT DUP2 EQ PUSH2 0xA23 JUMPI DUP6 DUP10 MSTORE SWAP1 DUP2 ISZERO PUSH2 0x9E1 JUMPI POP PUSH1 0x1 EQ PUSH2 0x989 JUMPI JUMPDEST PUSH2 0x985 DUP8 DUP8 PUSH2 0x97B DUP3 DUP13 SUB DUP4 PUSH2 0x116B JUMP JUMPDEST MLOAD SWAP2 DUP3 SWAP2 DUP3 PUSH2 0xF36 JUMP JUMPDEST SUB SWAP1 RETURN JUMPDEST DUP2 MSTORE SWAP3 SWAP6 POP PUSH32 0x8A35ACFBC15FF81A39AE7D344FD709F28E8600B4AA8C65C6B64BFE7FE36BD19B JUMPDEST DUP3 DUP5 LT PUSH2 0x9CE JUMPI POP POP POP DUP3 PUSH2 0x985 SWAP5 PUSH2 0x97B SWAP3 DUP3 ADD ADD SWAP5 DUP7 DUP1 PUSH2 0x96A JUMP JUMPDEST DUP1 SLOAD DUP7 DUP6 ADD DUP9 ADD MSTORE SWAP3 DUP7 ADD SWAP3 DUP2 ADD PUSH2 0x9B0 JUMP JUMPDEST PUSH32 0xFFFFFFFFFFFFFFFFFFFFFFFFFFFFFFFFFFFFFFFFFFFFFFFFFFFFFFFFFFFFFF00 AND DUP9 DUP8 ADD MSTORE POP POP POP POP ISZERO ISZERO PUSH1 0x5 SHL DUP4 ADD ADD SWAP3 POP PUSH2 0x97B DUP3 PUSH2 0x985 DUP7 DUP1 PUSH2 0x96A JUMP JUMPDEST PUSH1 0x24 DUP5 PUSH1 0x22 DUP6 PUSH32 0x4E487B7100000000000000000000000000000000000000000000000000000000 DUP4 MSTORE MSTORE REVERT JUMPDEST SWAP4 PUSH1 0x7F AND SWAP4 PUSH2 0x94B JUMP JUMPDEST POP POP CALLVALUE PUSH2 0x19A JUMPI DUP2 PUSH32 0xFFFFFFFFFFFFFFFFFFFFFFFFFFFFFFFFFFFFFFFFFFFFFFFFFFFFFFFFFFFFFFFC CALLDATASIZE ADD SLT PUSH2 0x19A JUMPI PUSH1 0x20 SWAP1 PUSH20 0xFFFFFFFFFFFFFFFFFFFFFFFFFFFFFFFFFFFFFFFF PUSH1 0x5 SLOAD AND SWAP1 MLOAD SWAP1 DUP2 MSTORE RETURN JUMPDEST POP POP CALLVALUE PUSH2 0x19A JUMPI PUSH1 0x20 PUSH32 0xFFFFFFFFFFFFFFFFFFFFFFFFFFFFFFFFFFFFFFFFFFFFFFFFFFFFFFFFFFFFFFFC CALLDATASIZE ADD SLT PUSH2 0x19A JUMPI PUSH1 0xFF DUP2 PUSH1 0x20 SWAP4 PUSH20 0xFFFFFFFFFFFFFFFFFFFFFFFFFFFFFFFFFFFFFFFF PUSH2 0xB00 PUSH2 0xF9C JUMP JUMPDEST AND DUP2 MSTORE PUSH1 0x7 DUP6 MSTORE KECCAK256 SLOAD AND SWAP1 MLOAD SWAP1 ISZERO ISZERO DUP2 MSTORE RETURN JUMPDEST SWAP2 SWAP1 POP CALLVALUE PUSH2 0x338 JUMPI PUSH2 0xB24 CALLDATASIZE PUSH2 0x1026 JUMP JUMPDEST SWAP3 SWAP2 PUSH20 0xFFFFFFFFFFFFFFFFFFFFFFFFFFFFFFFFFFFFFFFF SWAP5 SWAP2 SWAP5 SWAP2 DUP3 PUSH32 0x0 AND CALLER SUB PUSH2 0xC15 JUMPI POP DUP2 AND DUP1 PUSH2 0xBA7 JUMPI POP DUP3 SWAP4 PUSH2 0xB83 PUSH2 0xB99 SWAP4 SWAP5 PUSH1 0x8 SLOAD PUSH2 0x11DB JUMP JUMPDEST PUSH1 0x8 SSTORE AND SWAP3 DUP4 DUP6 MSTORE PUSH1 0x6 PUSH1 0x20 MSTORE DUP3 DUP6 KECCAK256 SLOAD PUSH2 0x11DB JUMP JUMPDEST SWAP2 DUP4 MSTORE PUSH1 0x6 PUSH1 0x20 MSTORE DUP3 KECCAK256 SSTORE DUP1 RETURN JUMPDEST SWAP4 AND SWAP3 SWAP1 DUP4 PUSH2 0xBE3 JUMPI PUSH2 0xBDD SWAP4 POP DUP2 DUP6 MSTORE PUSH1 0x6 PUSH1 0x20 MSTORE PUSH2 0xBCA DUP4 DUP3 DUP8 KECCAK256 SLOAD PUSH2 0x1217 JUMP JUMPDEST SWAP2 DUP6 MSTORE PUSH1 0x6 PUSH1 0x20 MSTORE DUP5 KECCAK256 SSTORE PUSH1 0x8 SLOAD PUSH2 0x1217 JUMP JUMPDEST PUSH1 0x8 SSTORE DUP1 RETURN JUMPDEST SWAP2 DUP2 PUSH2 0xB99 SWAP3 DUP7 MSTORE PUSH1 0x6 PUSH1 0x20 MSTORE PUSH2 0xBFD DUP3 DUP6 DUP9 KECCAK256 SLOAD PUSH2 0x1217 JUMP JUMPDEST SWAP1 DUP7 MSTORE PUSH1 0x6 PUSH1 0x20 MSTORE DUP4 DUP7 KECCAK256 SSTORE DUP4 DUP6 MSTORE DUP3 DUP6 KECCAK256 SLOAD PUSH2 0x11DB JUMP JUMPDEST DUP4 MLOAD PUSH32 0x4CA8886700000000000000000000000000000000000000000000000000000000 DUP2 MSTORE REVERT JUMPDEST DUP4 CALLVALUE PUSH2 0x81F JUMPI DUP1 PUSH32 0xFFFFFFFFFFFFFFFFFFFFFFFFFFFFFFFFFFFFFFFFFFFFFFFFFFFFFFFFFFFFFFFC CALLDATASIZE ADD SLT PUSH2 0x81F JUMPI PUSH2 0xC73 PUSH2 0x10EC JUMP JUMPDEST DUP1 PUSH20 0xFFFFFFFFFFFFFFFFFFFFFFFFFFFFFFFFFFFFFFFF PUSH1 0x5 SLOAD PUSH32 0xFFFFFFFFFFFFFFFFFFFFFFFF0000000000000000000000000000000000000000 DUP2 AND PUSH1 0x5 SSTORE AND PUSH32 0x8BE0079C531659141344CD1FD0A4F28419497F9722A3DAAFE3B4186F6B6457E0 DUP3 DUP1 LOG3 DUP1 RETURN JUMPDEST POP POP CALLVALUE PUSH2 0x19A JUMPI PUSH1 0x20 PUSH32 0xFFFFFFFFFFFFFFFFFFFFFFFFFFFFFFFFFFFFFFFFFFFFFFFFFFFFFFFFFFFFFFFC CALLDATASIZE ADD SLT PUSH2 0x19A JUMPI DUP1 PUSH1 0x20 SWAP3 PUSH20 0xFFFFFFFFFFFFFFFFFFFFFFFFFFFFFFFFFFFFFFFF PUSH2 0xD2C PUSH2 0xF9C JUMP JUMPDEST AND DUP2 MSTORE DUP1 DUP5 MSTORE KECCAK256 SLOAD SWAP1 MLOAD SWAP1 DUP2 MSTORE RETURN JUMPDEST POP POP CALLVALUE PUSH2 0x19A JUMPI DUP2 PUSH32 0xFFFFFFFFFFFFFFFFFFFFFFFFFFFFFFFFFFFFFFFFFFFFFFFFFFFFFFFFFFFFFFFC CALLDATASIZE ADD SLT PUSH2 0x19A JUMPI PUSH1 0x20 SWAP1 MLOAD PUSH1 0x12 DUP2 MSTORE RETURN JUMPDEST DUP3 DUP5 CALLVALUE PUSH2 0x81F JUMPI POP PUSH2 0xD86 CALLDATASIZE PUSH2 0x1026 JUMP JUMPDEST POP POP POP MLOAD PUSH32 0xA24E573D00000000000000000000000000000000000000000000000000000000 DUP2 MSTORE REVERT JUMPDEST POP POP CALLVALUE PUSH2 0x19A JUMPI DUP2 PUSH32 0xFFFFFFFFFFFFFFFFFFFFFFFFFFFFFFFFFFFFFFFFFFFFFFFFFFFFFFFFFFFFFFFC CALLDATASIZE ADD SLT PUSH2 0x19A JUMPI PUSH1 0x20 SWAP1 PUSH1 0x2 SLOAD SWAP1 MLOAD SWAP1 DUP2 MSTORE RETURN JUMPDEST SWAP3 SWAP2 POP CALLVALUE PUSH2 0xF32 JUMPI DUP4 PUSH32 0xFFFFFFFFFFFFFFFFFFFFFFFFFFFFFFFFFFFFFFFFFFFFFFFFFFFFFFFFFFFFFFFC CALLDATASIZE ADD SLT PUSH2 0xF32 JUMPI PUSH1 0x3 SLOAD PUSH1 0x1 DUP2 DUP2 SHR SWAP2 DUP7 SWAP1 DUP3 DUP2 AND DUP1 ISZERO PUSH2 0xF28 JUMPI JUMPDEST PUSH1 0x20 SWAP6 DUP7 DUP7 LT DUP3 EQ PUSH2 0xEFC JUMPI POP DUP5 DUP9 MSTORE SWAP1 DUP2 ISZERO PUSH2 0xEBC JUMPI POP PUSH1 0x1 EQ PUSH2 0xE63 JUMPI JUMPDEST PUSH2 0x985 DUP7 DUP7 PUSH2 0x97B DUP3 DUP12 SUB DUP4 PUSH2 0x116B JUMP JUMPDEST SWAP3 SWAP6 POP PUSH1 0x3 DUP4 MSTORE PUSH32 0xC2575A0E9E593C00F959F8C92F12DB2869C3395A3B0502D05E2516446F71F85B JUMPDEST DUP3 DUP5 LT PUSH2 0xEA9 JUMPI POP POP POP DUP3 PUSH2 0x985 SWAP5 PUSH2 0x97B SWAP3 DUP3 ADD ADD SWAP5 CODESIZE PUSH2 0xE52 JUMP JUMPDEST DUP1 SLOAD DUP7 DUP6 ADD DUP9 ADD MSTORE SWAP3 DUP7 ADD SWAP3 DUP2 ADD PUSH2 0xE8C JUMP JUMPDEST PUSH32 0xFFFFFFFFFFFFFFFFFFFFFFFFFFFFFFFFFFFFFFFFFFFFFFFFFFFFFFFFFFFFFF00 AND DUP8 DUP7 ADD MSTORE POP POP POP ISZERO ISZERO PUSH1 0x5 SHL DUP4 ADD ADD SWAP3 POP PUSH2 0x97B DUP3 PUSH2 0x985 CODESIZE PUSH2 0xE52 JUMP JUMPDEST DUP4 PUSH1 0x22 PUSH1 0x24 SWAP3 PUSH32 0x4E487B7100000000000000000000000000000000000000000000000000000000 DUP4 MSTORE MSTORE REVERT JUMPDEST SWAP4 PUSH1 0x7F AND SWAP4 PUSH2 0xE32 JUMP JUMPDEST DUP4 DUP1 REVERT JUMPDEST PUSH1 0x20 DUP1 DUP3 MSTORE DUP3 MLOAD DUP2 DUP4 ADD DUP2 SWAP1 MSTORE SWAP4 SWAP3 PUSH1 0x0 JUMPDEST DUP6 DUP2 LT PUSH2 0xF88 JUMPI POP POP POP PUSH32 0xFFFFFFFFFFFFFFFFFFFFFFFFFFFFFFFFFFFFFFFFFFFFFFFFFFFFFFFFFFFFFFE0 PUSH1 0x1F DUP5 PUSH1 0x0 PUSH1 0x40 DUP1 SWAP7 SWAP8 DUP7 ADD ADD MSTORE ADD AND ADD ADD SWAP1 JUMP JUMPDEST DUP2 DUP2 ADD DUP4 ADD MLOAD DUP5 DUP3 ADD PUSH1 0x40 ADD MSTORE DUP3 ADD PUSH2 0xF48 JUMP JUMPDEST PUSH1 0x4 CALLDATALOAD SWAP1 PUSH20 0xFFFFFFFFFFFFFFFFFFFFFFFFFFFFFFFFFFFFFFFF DUP3 AND DUP3 SUB PUSH2 0xFBF JUMPI JUMP JUMPDEST PUSH1 0x0 DUP1 REVERT JUMPDEST CALLVALUE PUSH2 0xFBF JUMPI PUSH1 0x40 PUSH32 0xFFFFFFFFFFFFFFFFFFFFFFFFFFFFFFFFFFFFFFFFFFFFFFFFFFFFFFFFFFFFFFFC CALLDATASIZE ADD SLT PUSH2 0xFBF JUMPI PUSH2 0xFFB PUSH2 0xF9C JUMP JUMPDEST POP PUSH1 0x4 PUSH1 0x40 MLOAD PUSH32 0xEB60C2C400000000000000000000000000000000000000000000000000000000 DUP2 MSTORE REVERT JUMPDEST PUSH32 0xFFFFFFFFFFFFFFFFFFFFFFFFFFFFFFFFFFFFFFFFFFFFFFFFFFFFFFFFFFFFFFFC PUSH1 0x60 SWAP2 ADD SLT PUSH2 0xFBF JUMPI PUSH20 0xFFFFFFFFFFFFFFFFFFFFFFFFFFFFFFFFFFFFFFFF SWAP1 PUSH1 0x4 CALLDATALOAD DUP3 DUP2 AND DUP2 SUB PUSH2 0xFBF JUMPI SWAP2 PUSH1 0x24 CALLDATALOAD SWAP1 DUP2 AND DUP2 SUB PUSH2 0xFBF JUMPI SWAP1 PUSH1 0x44 CALLDATALOAD SWAP1 JUMP JUMPDEST PUSH1 0xB SLOAD DUP2 LT ISZERO PUSH2 0x10BD JUMPI PUSH1 0xB PUSH1 0x0 MSTORE PUSH32 0x175B7A638427703F0DBE7BB9BBF987A2551717B34E79F33B5B1008D1FA01DB9 ADD SWAP1 PUSH1 0x0 SWAP1 JUMP JUMPDEST PUSH32 0x4E487B7100000000000000000000000000000000000000000000000000000000 PUSH1 0x0 MSTORE PUSH1 0x32 PUSH1 0x4 MSTORE PUSH1 0x24 PUSH1 0x0 REVERT JUMPDEST PUSH20 0xFFFFFFFFFFFFFFFFFFFFFFFFFFFFFFFFFFFFFFFF PUSH1 0x5 SLOAD AND CALLER SUB PUSH2 0x110D JUMPI JUMP JUMPDEST PUSH1 0x64 PUSH1 0x40 MLOAD PUSH32 0x8C379A000000000000000000000000000000000000000000000000000000000 DUP2 MSTORE PUSH1 0x20 PUSH1 0x4 DUP3 ADD MSTORE PUSH1 0x20 PUSH1 0x24 DUP3 ADD MSTORE PUSH32 0x4F776E61626C653A2063616C6C6572206973206E6F7420746865206F776E6572 PUSH1 0x44 DUP3 ADD MSTORE REVERT JUMPDEST SWAP1 PUSH1 0x1F PUSH32 0xFFFFFFFFFFFFFFFFFFFFFFFFFFFFFFFFFFFFFFFFFFFFFFFFFFFFFFFFFFFFFFE0 SWAP2 ADD AND DUP2 ADD SWAP1 DUP2 LT PUSH8 0xFFFFFFFFFFFFFFFF DUP3 GT OR PUSH2 0x11AC JUMPI PUSH1 0x40 MSTORE JUMP JUMPDEST PUSH32 0x4E487B7100000000000000000000000000000000000000000000000000000000 PUSH1 0x0 MSTORE PUSH1 0x41 PUSH1 0x4 MSTORE PUSH1 0x24 PUSH1 0x0 REVERT JUMPDEST SWAP2 SWAP1 DUP3 ADD DUP1 SWAP3 GT PUSH2 0x11E8 JUMPI JUMP JUMPDEST PUSH32 0x4E487B7100000000000000000000000000000000000000000000000000000000 PUSH1 0x0 MSTORE PUSH1 0x11 PUSH1 0x4 MSTORE PUSH1 0x24 PUSH1 0x0 REVERT JUMPDEST SWAP2 SWAP1 DUP3 SUB SWAP2 DUP3 GT PUSH2 0x11E8 JUMPI JUMP INVALID LOG2 PUSH5 0x6970667358 0x22 SLT KECCAK256 0xC9 BYTE 0xE5 0xC2 SUB PUSH14 0xF42BC5B1719D7D6D5B2139D14A2A 0xB2 0xAC PUSH6 0x2BDA4D1A6771 0x21 CALLVALUE STATICCALL PUSH5 0x736F6C6343 STOP ADDMOD SGT STOP CALLER "},"gasEstimates":{"creation":{"codeDepositCost":"939600","executionCost":"infinite","totalCost":"infinite"},"external":{"allowance(address,address)":"2912","approve(address,uint256)":"264","balanceOf(address)":"2533","claimDividend()":"infinite","claimedDividend(address)":"2611","claimedUsers(uint256)":"6954","decimals()":"259","decreaseAllowance(address,uint256)":"528","increaseAllowance(address,uint256)":"352","ledger(address)":"2885","name()":"infinite","owner()":"2503","renounceOwnership()":"28187","setDividend(uint256)":"infinite","symbol()":"infinite","token()":"infinite","totalClaimedDividend()":"2607","totalDividendPool()":"2651","totalSubscribedSupply()":"2541","totalSupply()":"2321","transfer(address,uint256)":"540","transferFrom(address,address,uint256)":"357","transferOwnership(address)":"28599","updateBalances(address,address,uint256)":"infinite"},"internal":{"_updateBalances(address,address,uint256)":"infinite"}},"methodIdentifiers":{"allowance(address,address)":"dd62ed3e","approve(address,uint256)":"095ea7b3","balanceOf(address)":"70a08231","claimDividend()":"f0fc6bca","claimedDividend(address)":"860030a6","claimedUsers(uint256)":"b4781912","decimals()":"313ce567","decreaseAllowance(address,uint256)":"a457c2d7","increaseAllowance(address,uint256)":"39509351","ledger(address)":"fbfa941f","name()":"06fdde03","owner()":"8da5cb5b","renounceOwnership()":"715018a6","setDividend(uint256)":"e091f453","symbol()":"95d89b41","token()":"fc0c546a","totalClaimedDividend()":"ae21f6f2","totalDividendPool()":"b54ec8e6","totalSubscribedSupply()":"9ed7e556","totalSupply()":"18160ddd","transfer(address,uint256)":"a9059cbb","transferFrom(address,address,uint256)":"23b872dd","transferOwnership(address)":"f2fde38b","updateBalances(address,address,uint256)":"7a1f1aa9"}},"storageLayout":{"storage":[{"astId":304,"contract":"contracts/DividendDispatcherPlugin.sol:DividendDispatcherPlugin","label":"_balances","offset":0,"slot":"0","type":"t_mapping(t_address,t_uint256)"},{"astId":310,"contract":"contracts/DividendDispatcherPlugin.sol:DividendDispatcherPlugin","label":"_allowances","offset":0,"slot":"1","type":"t_mapping(t_address,t_mapping(t_address,t_uint256))"},{"astId":312,"contract":"contracts/DividendDispatcherPlugin.sol:DividendDispatcherPlugin","label":"_totalSupply","offset":0,"slot":"2","type":"t_uint256"},{"astId":314,"contract":"contracts/DividendDispatcherPlugin.sol:DividendDispatcherPlugin","label":"_name","offset":0,"slot":"3","type":"t_string_storage"},{"astId":316,"contract":"contracts/DividendDispatcherPlugin.sol:DividendDispatcherPlugin","label":"_symbol","offset":0,"slot":"4","type":"t_string_storage"},{"astId":183,"contract":"contracts/DividendDispatcherPlugin.sol:DividendDispatcherPlugin","label":"_owner","offset":0,"slot":"5","type":"t_address"},{"astId":1342,"contract":"contracts/DividendDispatcherPlugin.sol:DividendDispatcherPlugin","label":"ledger","offset":0,"slot":"6","type":"t_mapping(t_address,t_uint256)"},{"astId":1346,"contract":"contracts/DividendDispatcherPlugin.sol:DividendDispatcherPlugin","label":"claimedDividend","offset":0,"slot":"7","type":"t_mapping(t_address,t_bool)"},{"astId":1348,"contract":"contracts/DividendDispatcherPlugin.sol:DividendDispatcherPlugin","label":"totalSubscribedSupply","offset":0,"slot":"8","type":"t_uint256"},{"astId":1350,"contract":"contracts/DividendDispatcherPlugin.sol:DividendDispatcherPlugin","label":"totalDividendPool","offset":0,"slot":"9","type":"t_uint256"},{"astId":1352,"contract":"contracts/DividendDispatcherPlugin.sol:DividendDispatcherPlugin","label":"totalClaimedDividend","offset":0,"slot":"10","type":"t_uint256"},{"astId":1355,"contract":"contracts/DividendDispatcherPlugin.sol:DividendDispatcherPlugin","label":"claimedUsers","offset":0,"slot":"11","type":"t_array(t_address)dyn_storage"}],"types":{"t_address":{"encoding":"inplace","label":"address","numberOfBytes":"20"},"t_array(t_address)dyn_storage":{"base":"t_address","encoding":"dynamic_array","label":"address[]","numberOfBytes":"32"},"t_bool":{"encoding":"inplace","label":"bool","numberOfBytes":"1"},"t_mapping(t_address,t_bool)":{"encoding":"mapping","key":"t_address","label":"mapping(address => bool)","numberOfBytes":"32","value":"t_bool"},"t_mapping(t_address,t_mapping(t_address,t_uint256))":{"encoding":"mapping","key":"t_address","label":"mapping(address => mapping(address => uint256))","numberOfBytes":"32","value":"t_mapping(t_address,t_uint256)"},"t_mapping(t_address,t_uint256)":{"encoding":"mapping","key":"t_address","label":"mapping(address => uint256)","numberOfBytes":"32","value":"t_uint256"},"t_string_storage":{"encoding":"bytes","label":"string","numberOfBytes":"32"},"t_uint256":{"encoding":"inplace","label":"uint256","numberOfBytes":"32"}}},"userdoc":{"kind":"user","methods":{},"version":1}}}}