{"contracts/CompanyStock.sol":{"CompanyStock":{"abi":[{"inputs":[{"internalType":"string","name":"name_","type":"string"},{"internalType":"string","name":"symbol_","type":"string"},{"internalType":"uint256","name":"maxUserPlugins_","type":"uint256"},{"internalType":"uint256","name":"pluginCallGasLimit_","type":"uint256"}],"stateMutability":"nonpayable","type":"constructor"},{"inputs":[],"name":"IndexOutOfBounds","type":"error"},{"inputs":[],"name":"InvalidPluginAddress","type":"error"},{"inputs":[],"name":"InvalidTokenInPlugin","type":"error"},{"inputs":[],"name":"NotOwnerPlugin","type":"error"},{"inputs":[],"name":"OutputArrayTooSmall","type":"error"},{"inputs":[],"name":"PluginAlreadyAdded","type":"error"},{"inputs":[],"name":"PluginNotFound","type":"error"},{"inputs":[],"name":"PluginsLimitReachedForAccount","type":"error"},{"inputs":[],"name":"PopFromEmptyArray","type":"error"},{"inputs":[],"name":"ReentrantCall","type":"error"},{"inputs":[],"name":"ZeroPluginsLimit","type":"error"},{"anonymous":false,"inputs":[{"indexed":true,"internalType":"address","name":"owner","type":"address"},{"indexed":true,"internalType":"address","name":"spender","type":"address"},{"indexed":false,"internalType":"uint256","name":"value","type":"uint256"}],"name":"Approval","type":"event"},{"anonymous":false,"inputs":[{"indexed":false,"internalType":"address","name":"account","type":"address"},{"indexed":false,"internalType":"address","name":"plugin","type":"address"}],"name":"PluginAdded","type":"event"},{"anonymous":false,"inputs":[{"indexed":false,"internalType":"address","name":"account","type":"address"},{"indexed":false,"internalType":"address","name":"plugin","type":"address"}],"name":"PluginRemoved","type":"event"},{"anonymous":false,"inputs":[{"indexed":true,"internalType":"address","name":"from","type":"address"},{"indexed":true,"internalType":"address","name":"to","type":"address"},{"indexed":false,"internalType":"uint256","name":"value","type":"uint256"}],"name":"Transfer","type":"event"},{"inputs":[{"internalType":"address","name":"plugin","type":"address"}],"name":"addPlugin","outputs":[],"stateMutability":"nonpayable","type":"function"},{"inputs":[{"internalType":"address","name":"owner","type":"address"},{"internalType":"address","name":"spender","type":"address"}],"name":"allowance","outputs":[{"internalType":"uint256","name":"","type":"uint256"}],"stateMutability":"view","type":"function"},{"inputs":[{"internalType":"address","name":"spender","type":"address"},{"internalType":"uint256","name":"amount","type":"uint256"}],"name":"approve","outputs":[{"internalType":"bool","name":"","type":"bool"}],"stateMutability":"nonpayable","type":"function"},{"inputs":[{"internalType":"address","name":"account","type":"address"}],"name":"balanceOf","outputs":[{"internalType":"uint256","name":"","type":"uint256"}],"stateMutability":"view","type":"function"},{"inputs":[{"internalType":"address","name":"account","type":"address"},{"internalType":"uint256","name":"amount","type":"uint256"}],"name":"burn","outputs":[],"stateMutability":"nonpayable","type":"function"},{"inputs":[],"name":"decimals","outputs":[{"internalType":"uint8","name":"","type":"uint8"}],"stateMutability":"view","type":"function"},{"inputs":[{"internalType":"address","name":"spender","type":"address"},{"internalType":"uint256","name":"subtractedValue","type":"uint256"}],"name":"decreaseAllowance","outputs":[{"internalType":"bool","name":"","type":"bool"}],"stateMutability":"nonpayable","type":"function"},{"inputs":[{"internalType":"address","name":"account","type":"address"},{"internalType":"address","name":"plugin","type":"address"}],"name":"hasPlugin","outputs":[{"internalType":"bool","name":"","type":"bool"}],"stateMutability":"view","type":"function"},{"inputs":[{"internalType":"address","name":"spender","type":"address"},{"internalType":"uint256","name":"addedValue","type":"uint256"}],"name":"increaseAllowance","outputs":[{"internalType":"bool","name":"","type":"bool"}],"stateMutability":"nonpayable","type":"function"},{"inputs":[{"internalType":"address","name":"account","type":"address"},{"internalType":"uint256","name":"amount","type":"uint256"}],"name":"mint","outputs":[],"stateMutability":"nonpayable","type":"function"},{"inputs":[],"name":"name","outputs":[{"internalType":"string","name":"","type":"string"}],"stateMutability":"view","type":"function"},{"inputs":[],"name":"ownerPlugin","outputs":[{"internalType":"address","name":"","type":"address"}],"stateMutability":"view","type":"function"},{"inputs":[{"internalType":"address","name":"account","type":"address"},{"internalType":"uint256","name":"index","type":"uint256"}],"name":"pluginAt","outputs":[{"internalType":"address","name":"","type":"address"}],"stateMutability":"view","type":"function"},{"inputs":[{"internalType":"address","name":"plugin","type":"address"},{"internalType":"address","name":"account","type":"address"}],"name":"pluginBalanceOf","outputs":[{"internalType":"uint256","name":"","type":"uint256"}],"stateMutability":"view","type":"function"},{"inputs":[{"internalType":"address","name":"account","type":"address"}],"name":"plugins","outputs":[{"internalType":"address[]","name":"","type":"address[]"}],"stateMutability":"view","type":"function"},{"inputs":[],"name":"pluginsCallGasLimit","outputs":[{"internalType":"uint256","name":"","type":"uint256"}],"stateMutability":"view","type":"function"},{"inputs":[{"internalType":"address","name":"account","type":"address"}],"name":"pluginsCount","outputs":[{"internalType":"uint256","name":"","type":"uint256"}],"stateMutability":"view","type":"function"},{"inputs":[],"name":"pluginsCountLimit","outputs":[{"internalType":"uint256","name":"","type":"uint256"}],"stateMutability":"view","type":"function"},{"inputs":[],"name":"removeAllPlugins","outputs":[],"stateMutability":"nonpayable","type":"function"},{"inputs":[{"internalType":"address","name":"plugin","type":"address"}],"name":"removePlugin","outputs":[],"stateMutability":"nonpayable","type":"function"},{"inputs":[],"name":"symbol","outputs":[{"internalType":"string","name":"","type":"string"}],"stateMutability":"view","type":"function"},{"inputs":[],"name":"totalSupply","outputs":[{"internalType":"uint256","name":"","type":"uint256"}],"stateMutability":"view","type":"function"},{"inputs":[{"internalType":"address","name":"to","type":"address"},{"internalType":"uint256","name":"amount","type":"uint256"}],"name":"transfer","outputs":[{"internalType":"bool","name":"","type":"bool"}],"stateMutability":"nonpayable","type":"function"},{"inputs":[{"internalType":"address","name":"from","type":"address"},{"internalType":"address","name":"to","type":"address"},{"internalType":"uint256","name":"amount","type":"uint256"}],"name":"transferFrom","outputs":[{"internalType":"bool","name":"","type":"bool"}],"stateMutability":"nonpayable","type":"function"}],"devdoc":{"details":"CompanyStock is a specialized version of an ERC20 token with additional functionalities that acts as the stock in the company.","errors":{"ReentrantCall()":[{"details":"Emit when reentrancy detected"}]},"events":{"Approval(address,address,uint256)":{"details":"Emitted when the allowance of a `spender` for an `owner` is set by a call to {approve}. `value` is the new allowance."},"Transfer(address,address,uint256)":{"details":"Emitted when `value` tokens are moved from one account (`from`) to another (`to`). Note that `value` may be zero."}},"kind":"dev","methods":{"addPlugin(address)":{"details":"Adds a new plugin for the calling account.","params":{"plugin":"The address of the plugin to add."}},"allowance(address,address)":{"details":"See {IERC20-allowance}."},"approve(address,uint256)":{"details":"See {IERC20-approve}. NOTE: If `amount` is the maximum `uint256`, the allowance is not updated on `transferFrom`. This is semantically equivalent to an infinite approval. Requirements: - `spender` cannot be the zero address."},"balanceOf(address)":{"details":"Returns the balance of a given account.","params":{"account":"The address of the account."},"returns":{"_0":"balance The account balance."}},"burn(address,uint256)":{"details":"Only callable by the owner plugin.","params":{"account":"The address to burn tokens from.","amount":"The amount of tokens to burn."}},"constructor":{"params":{"maxUserPlugins_":"The maximum number of user plugins.","name_":"The name of the token.","pluginCallGasLimit_":"The gas limit for plugin calls.","symbol_":"The symbol of the token."}},"decimals()":{"details":"Returns the number of decimals used to get its user representation. For example, if `decimals` equals `2`, a balance of `505` tokens should be displayed to a user as `5.05` (`505 / 10 ** 2`). Tokens usually opt for a value of 18, imitating the relationship between Ether and Wei. This is the default value returned by this function, unless it's overridden. NOTE: This information is only used for _display_ purposes: it in no way affects any of the arithmetic of the contract, including {IERC20-balanceOf} and {IERC20-transfer}."},"decreaseAllowance(address,uint256)":{"details":"Atomically decreases the allowance granted to `spender` by the caller. This is an alternative to {approve} that can be used as a mitigation for problems described in {IERC20-approve}. Emits an {Approval} event indicating the updated allowance. Requirements: - `spender` cannot be the zero address. - `spender` must have allowance for the caller of at least `subtractedValue`."},"hasPlugin(address,address)":{"details":"Returns whether an account has a specific plugin.","params":{"account":"The address of the account.","plugin":"The address of the plugin."},"returns":{"_0":"bool A boolean indicating whether the account has the specified plugin."}},"increaseAllowance(address,uint256)":{"details":"Atomically increases the allowance granted to `spender` by the caller. This is an alternative to {approve} that can be used as a mitigation for problems described in {IERC20-approve}. Emits an {Approval} event indicating the updated allowance. Requirements: - `spender` cannot be the zero address."},"mint(address,uint256)":{"details":"Only callable by the owner plugin.","params":{"account":"The address to mint tokens to.","amount":"The amount of tokens to mint."}},"name()":{"details":"Returns the name of the token."},"pluginAt(address,uint256)":{"details":"Returns the address of a plugin at a specified index for a given account .","params":{"account":"The address of the account.","index":"The index of the plugin to retrieve."},"returns":{"_0":"plugin The address of the plugin."}},"pluginBalanceOf(address,address)":{"details":"Returns the balance of a given account if a specified plugin is added or zero.","params":{"account":"The address of the account to query.","plugin":"The address of the plugin to query."},"returns":{"_0":"balance The account balance if the specified plugin is added and zero otherwise."}},"plugins(address)":{"details":"Returns an array of all plugins owned by a given account.","params":{"account":"The address of the account to query."},"returns":{"_0":"plugins An array of plugin addresses."}},"pluginsCount(address)":{"details":"Returns the number of plugins registered for an account.","params":{"account":"The address of the account."},"returns":{"_0":"uint256 A number of plugins registered for the account."}},"removeAllPlugins()":{"details":"Removes all plugins for the calling account."},"removePlugin(address)":{"details":"Removes a plugin for the calling account.","params":{"plugin":"The address of the plugin to remove."}},"symbol()":{"details":"Returns the symbol of the token, usually a shorter version of the name."},"totalSupply()":{"details":"See {IERC20-totalSupply}."},"transfer(address,uint256)":{"details":"See {IERC20-transfer}. Requirements: - `to` cannot be the zero address. - the caller must have a balance of at least `amount`."},"transferFrom(address,address,uint256)":{"details":"See {IERC20-transferFrom}. Emits an {Approval} event indicating the updated allowance. This is not required by the EIP. See the note at the beginning of {ERC20}. NOTE: Does not update the allowance if the current allowance is the maximum `uint256`. Requirements: - `from` and `to` cannot be the zero address. - `from` must have a balance of at least `amount`. - the caller must have allowance for ``from``'s tokens of at least `amount`."}},"title":"CompanyStock","version":1},"evm":{"bytecode":{"linkReferences":{},"object":"60e0604052346200039c57620027c4803803806200001d81620003a1565b92833981016080828203126200039c5781516001600160401b03908181116200039c57826200004e918501620003c7565b9260209283820151908382116200039c576200006c918301620003c7565b606060408301519201519285518181116200029c576003908154906001988983811c9316801562000391575b898410146200037b578190601f9384811162000325575b508990848311600114620002be57600092620002b2575b505060001982851b1c191690891b1782555b83519283116200029c576004938454978989811c9916801562000291575b818a10146200027c5782891162000230575b84959697985080928511600114620001c25750600093620001b6575b505082871b92600019911b1c19161781555b8115620001a7575060805260a0526005553360c05260405161238a90816200043a82396080518181816102f60152610eda015260a051818181610dcd01528181611c0301528181611c8a01528181611d190152611f70015260c05181818161078301528181610c280152610ff20152f35b60405163cdaf747b60e01b8152fd5b01519150388062000124565b929190899550601f1985168760005284600020946000905b828210620002165750508511620001fb575b50505050811b01815562000136565b01519060f884600019921b161c1916905538808080620001ec565b8484015187558c98909601959384019390810190620001da565b856000528060002083860160051c81019982871062000271575b840160051c01988a905b8a81106200026457505062000108565b60008155018a9062000254565b90995089906200024a565b602286634e487b7160e01b6000525260246000fd5b98607f1698620000f6565b634e487b7160e01b600052604160045260246000fd5b015190503880620000c6565b908b9350601f19831691866000528b6000209260005b8d8282106200030e5750508411620002f5575b505050811b018255620000d8565b015160001983871b60f8161c19169055388080620002e7565b8385015186558f97909501949384019301620002d4565b90915084600052896000208480850160051c8201928c861062000371575b918d91869594930160051c01915b82811062000361575050620000af565b600081558594508d910162000351565b9250819262000343565b634e487b7160e01b600052602260045260246000fd5b92607f169262000098565b600080fd5b6040519190601f01601f191682016001600160401b038111838210176200029c57604052565b919080601f840112156200039c5782516001600160401b0381116200029c57602090620003fd601f8201601f19168301620003a1565b928184528282870101116200039c5760005b8181106200042557508260009394955001015290565b85810183015184820184015282016200040f56fe608060408181526004918236101561001657600080fd5b600092833560e01c91826306fdde03146114c657508163095ea7b31461147e57816318160ddd146114415781631945f729146113d357816323b872dd146112a5578163313ce5671461126b57816339509351146111f157816340c10f1914610f9b5781634b12e64314610efd57816353cea5df14610ea45781636172813414610e3457816370a0823114610df05781637ee688cb14610d975781638b822d8814610c4c5781638e371bef14610bdd57816395d89b4114610a855781639dc29fac1461072c578163a457c2d714610629578163a4d95b641461054a578163a9059cbb146104fb578163c125563514610471578163d8867fc81461021b57508063dd62ed3e146101a85763ed6edc821461012d57600080fd5b346101a457807ffffffffffffffffffffffffffffffffffffffffffffffffffffffffffffffffc3601126101a45780602092610167611672565b61016f61169a565b73ffffffffffffffffffffffffffffffffffffffff918216835260068652838320911682526001018452205490519015158152f35b5080fd5b50346101a457807ffffffffffffffffffffffffffffffffffffffffffffffffffffffffffffffffc3601126101a457806020926101e3611672565b6101eb61169a565b73ffffffffffffffffffffffffffffffffffffffff91821683526001865283832091168252845220549051908152f35b9190503461046d57602091827ffffffffffffffffffffffffffffffffffffffffffffffffffffffffffffffffc36011261046957610257611672565b9273ffffffffffffffffffffffffffffffffffffffff808516801561044157908284928651938480927ffc0c546a0000000000000000000000000000000000000000000000000000000082525afa9182156104375787926103fb575b50309116036103d357338552600681526102cf84848720611957565b156103ab57600690338652526102f48285206000805260205260406000205460a01c90565b7f00000000000000000000000000000000000000000000000000000000000000001061038457505133815273ffffffffffffffffffffffffffffffffffffffff821660208201527f68aafb7a848a8e6e0e8fe992de5812474789ddec166ce06be4de83b3aaa2864e90604090a161036a336118ae565b80610373578280f35b61037e913390611bfe565b38808280f35b90517f2846f78a000000000000000000000000000000000000000000000000000000008152fd5b5090517ffce323d6000000000000000000000000000000000000000000000000000000008152fd5b5090517f5940fcc8000000000000000000000000000000000000000000000000000000008152fd5b9091508281813d8311610430575b61041381836116bd565b8101031261042c5751818116810361042c5790386102b3565b8680fd5b503d610409565b85513d89823e3d90fd5b8385517f4c6ea03c000000000000000000000000000000000000000000000000000000008152fd5b8380fd5b8280fd5b8284346104f857817ffffffffffffffffffffffffffffffffffffffffffffffffffffffffffffffffc3601126104f857506104aa611672565b6104b261169a565b926002600554146104d157506020926104ca91611909565b9051908152f35b82517f37ed32e8000000000000000000000000000000000000000000000000000000008152fd5b80fd5b5050346101a457807ffffffffffffffffffffffffffffffffffffffffffffffffffffffffffffffffc3601126101a457602090610543610539611672565b6024359033611dc2565b5160018152f35b9190503461046d5760207ffffffffffffffffffffffffffffffffffffffffffffffffffffffffffffffffc36011261046d57610584611672565b91338452600660205261059983838620611a20565b1561060257505133815273ffffffffffffffffffffffffffffffffffffffff821660208201527f550ef13f654f6fc7054e7c556d2647cb8838befbfa68640bb3050fc458ad473590604090a16105ee336118ae565b806105f7578280f35b61037e913390611d14565b90517f108a506d000000000000000000000000000000000000000000000000000000008152fd5b905082346104f857827ffffffffffffffffffffffffffffffffffffffffffffffffffffffffffffffffc3601126104f857610662611672565b918360243592338152600160205281812073ffffffffffffffffffffffffffffffffffffffff861682526020522054908282106106a95760208561054385850387336121df565b60849060208651917f08c379a0000000000000000000000000000000000000000000000000000000008352820152602560248201527f45524332303a2064656372656173656420616c6c6f77616e63652062656c6f7760448201527f207a65726f0000000000000000000000000000000000000000000000000000006064820152fd5b9190503461046d57807ffffffffffffffffffffffffffffffffffffffffffffffffffffffffffffffffc36011261046d57610765611672565b906024359173ffffffffffffffffffffffffffffffffffffffff91827f0000000000000000000000000000000000000000000000000000000000000000163303610a5d578282169081156109db5781875260209587875281882054868110610959578690848a528989520382892055856002540360025587837fddf252ad1be2c89b69c2b068fc378daa952ba7f163c4a11628f55a4df523b3ef8985518a8152a3600260055414610932575060026005558415158061092a575b61082d575b86600160055580f35b610850918752600686526006610844828920611745565b96888052528620611745565b90845190825195875b8381106108a25750505050845b8481106108735780610824565b80836108816001938561186b565b51168581610892575b505001610866565b61089b91611c87565b388561088a565b856108ad828461186b565b51169089915b88858b8086106108e1575b600195146108d0575b50505001610859565b6108d992611d14565b3888856108c7565b8d8b6108f1888d9997989961186b565b51168614610907575050505060010191906108b3565b938594610918858560019a99611d14565b610922828d61186b565b5295506108be565b50600161081f565b90517f37ed32e8000000000000000000000000000000000000000000000000000000008152fd5b508660849251917f08c379a0000000000000000000000000000000000000000000000000000000008352820152602260248201527f45524332303a206275726e20616d6f756e7420657863656564732062616c616e60448201527f63650000000000000000000000000000000000000000000000000000000000006064820152fd5b517f08c379a0000000000000000000000000000000000000000000000000000000008152602081870152602160248201527f45524332303a206275726e2066726f6d20746865207a65726f2061646472657360448201527f73000000000000000000000000000000000000000000000000000000000000006064820152608490fd5b8490517fb6559712000000000000000000000000000000000000000000000000000000008152fd5b8383346101a457817ffffffffffffffffffffffffffffffffffffffffffffffffffffffffffffffffc3601126101a457805191809380549160019083821c92828516948515610bd3575b6020958686108114610ba757858952908115610b655750600114610b0d575b610b098787610aff828c03836116bd565b519182918261160c565b0390f35b81529295507f8a35acfbc15ff81a39ae7d344fd709f28e8600b4aa8c65c6b64bfe7fe36bd19b5b828410610b525750505082610b0994610aff92820101948680610aee565b8054868501880152928601928101610b34565b7fffffffffffffffffffffffffffffffffffffffffffffffffffffffffffffff00168887015250505050151560051b8301019250610aff82610b098680610aee565b6024846022857f4e487b7100000000000000000000000000000000000000000000000000000000835252fd5b93607f1693610acf565b5050346101a457817ffffffffffffffffffffffffffffffffffffffffffffffffffffffffffffffffc3601126101a4576020905173ffffffffffffffffffffffffffffffffffffffff7f0000000000000000000000000000000000000000000000000000000000000000168152f35b5050346101a457817ffffffffffffffffffffffffffffffffffffffffffffffffffffffffffffffffc3601126101a457338252600690602091808352610c93828520611745565b610c9c336118ae565b9181519081841515925b610cae578780f35b7fffffffffffffffffffffffffffffffffffffffffffffffffffffffffffffffff9033895282885286892086838301610d0973ffffffffffffffffffffffffffffffffffffffff9384610d01848c61186b565b511690611a20565b50867f550ef13f654f6fc7054e7c556d2647cb8838befbfa68640bb3050fc458ad4735610d6785610d3a858d61186b565b518e51338152911673ffffffffffffffffffffffffffffffffffffffff1660208201529081906040820190565b0390a1610d79575b5050500180610ca6565b610d8f92610d8833928a61186b565b5116611d14565b388681610d6f565b5050346101a457817ffffffffffffffffffffffffffffffffffffffffffffffffffffffffffffffffc3601126101a457602090517f00000000000000000000000000000000000000000000000000000000000000008152f35b5050346101a45760207ffffffffffffffffffffffffffffffffffffffffffffffffffffffffffffffffc3601126101a4576020906104ca610e2f611672565b6118ae565b5050346101a45760207ffffffffffffffffffffffffffffffffffffffffffffffffffffffffffffffffc3601126101a4576104ca8160209373ffffffffffffffffffffffffffffffffffffffff610e89611672565b16815260068552206000805260205260406000205460a01c90565b5050346101a457817ffffffffffffffffffffffffffffffffffffffffffffffffffffffffffffffffc3601126101a457602090517f00000000000000000000000000000000000000000000000000000000000000008152f35b8284346104f8576020807ffffffffffffffffffffffffffffffffffffffffffffffffffffffffffffffffc3601126101a4578273ffffffffffffffffffffffffffffffffffffffff9283610f4f611672565b16815260068352610f61828220611745565b918051938080860192818752855180945286019401925b828110610f855785850386f35b8351871685529381019392810192600101610f78565b9190503461046d57807ffffffffffffffffffffffffffffffffffffffffffffffffffffffffffffffffc36011261046d57610fd4611672565b906024359073ffffffffffffffffffffffffffffffffffffffff90817f0000000000000000000000000000000000000000000000000000000000000000163303610a5d578184169485156111955761102e84600254611d86565b6002558587528660205281872084815401905585877fddf252ad1be2c89b69c2b068fc378daa952ba7f163c4a11628f55a4df523b3ef60208551888152a3600260055414610932575060026005558215158061118d575b611093575b85600160055580f35b6110b99086805260066020526110aa818820611745565b95875260066020528620611745565b8451815195875b82811061110b57505050855b8581106110d9575061108a565b80836110e76001938561186b565b51168587826110fa575b505050016110cc565b61110392611bfe565b3885876110f1565b84611116828461186b565b51169089915b878a808510611147575b60019414611137575b5050016110c0565b61114091611c87565b388761112f565b88611156868a9795969761186b565b5116841461116a575050600101919061111c565b839261117a838d60019897611bfe565b8d611185828b61186b565b529450611126565b506001611085565b602060649251917f08c379a0000000000000000000000000000000000000000000000000000000008352820152601f60248201527f45524332303a206d696e7420746f20746865207a65726f2061646472657373006044820152fd5b5050346101a457807ffffffffffffffffffffffffffffffffffffffffffffffffffffffffffffffffc3601126101a457610543602092611264611232611672565b913381526001865284812073ffffffffffffffffffffffffffffffffffffffff84168252865284602435912054611d86565b90336121df565b5050346101a457817ffffffffffffffffffffffffffffffffffffffffffffffffffffffffffffffffc3601126101a4576020905160128152f35b839150346101a45760607ffffffffffffffffffffffffffffffffffffffffffffffffffffffffffffffffc3601126101a4576112df611672565b6112e761169a565b91846044359473ffffffffffffffffffffffffffffffffffffffff8416815260016020528181203382526020522054907fffffffffffffffffffffffffffffffffffffffffffffffffffffffffffffffff820361134d575b602086610543878787611dc2565b848210611376575091839161136b60209695610543950333836121df565b91939481935061133f565b60649060208751917f08c379a0000000000000000000000000000000000000000000000000000000008352820152601d60248201527f45524332303a20696e73756666696369656e7420616c6c6f77616e63650000006044820152fd5b5050346101a457807ffffffffffffffffffffffffffffffffffffffffffffffffffffffffffffffffc3601126101a4576020918173ffffffffffffffffffffffffffffffffffffffff9182611426611672565b16815260068552818120602435825285522054169051908152f35b5050346101a457817ffffffffffffffffffffffffffffffffffffffffffffffffffffffffffffffffc3601126101a4576020906002549051908152f35b5050346101a457807ffffffffffffffffffffffffffffffffffffffffffffffffffffffffffffffffc3601126101a4576020906105436114bc611672565b60243590336121df565b9291503461046957837ffffffffffffffffffffffffffffffffffffffffffffffffffffffffffffffffc36011261046957600354600181811c9186908281168015611602575b60209586861082146115d65750848852908115611596575060011461153d575b610b098686610aff828b03836116bd565b929550600383527fc2575a0e9e593c00f959f8c92f12db2869c3395a3b0502d05e2516446f71f85b5b8284106115835750505082610b0994610aff92820101943861152c565b8054868501880152928601928101611566565b7fffffffffffffffffffffffffffffffffffffffffffffffffffffffffffffff001687860152505050151560051b8301019250610aff82610b093861152c565b8360226024927f4e487b7100000000000000000000000000000000000000000000000000000000835252fd5b93607f169361150c565b60208082528251818301819052939260005b85811061165e575050507fffffffffffffffffffffffffffffffffffffffffffffffffffffffffffffffe0601f8460006040809697860101520116010190565b81810183015184820160400152820161161e565b6004359073ffffffffffffffffffffffffffffffffffffffff8216820361169557565b600080fd5b6024359073ffffffffffffffffffffffffffffffffffffffff8216820361169557565b90601f7fffffffffffffffffffffffffffffffffffffffffffffffffffffffffffffffe0910116810190811067ffffffffffffffff8211176116fe57604052565b7f4e487b7100000000000000000000000000000000000000000000000000000000600052604160045260246000fd5b67ffffffffffffffff81116116fe5760051b60200190565b906000808052602090838252604090818120548060a01c926117668461172d565b92611773825194856116bd565b84845261177f8561172d565b977fffffffffffffffffffffffffffffffffffffffffffffffffffffffffffffffe08786019901368a3784988551871161184257866117c3575b5050505050505050565b8551156118155773ffffffffffffffffffffffffffffffffffffffff8095169052600196875b8781106117f657506117b9565b808991855283835286868620541661180e828a61186b565b52016117e9565b6024837f4e487b710000000000000000000000000000000000000000000000000000000081526032600452fd5b600484517ff9a99b25000000000000000000000000000000000000000000000000000000008152fd5b805182101561187f5760209160051b010190565b7f4e487b7100000000000000000000000000000000000000000000000000000000600052603260045260246000fd5b6002600554146118df5773ffffffffffffffffffffffffffffffffffffffff16600052600060205260406000205490565b60046040517f37ed32e8000000000000000000000000000000000000000000000000000000008152fd5b73ffffffffffffffffffffffffffffffffffffffff80921690600092828452600660205260016040852001911683526020526040822054611948575090565b90604091815280602052205490565b9073ffffffffffffffffffffffffffffffffffffffff600183019116600092818452826020526040842054611a1a5760409260019285805282602052848620928354938460a01c9485156000146119f257505086805260205274ffffffffffffffffffffffffffffffffffffffffff81740100000000000000000000000000000000000000000116858720555b855260205201912055600190565b74010000000000000000000000000000000000000000019055508286528486208190556119e4565b50505090565b906001820173ffffffffffffffffffffffffffffffffffffffff8092169260009380855260209183835260409485872054908115611bf457611a6f836000805260205260406000205460a01c90565b8210611b29575b505085805280835284862054908160a01c908115611b0057906001917fffffffffffffffffffffffffffffffffffffffffffffffffffffffffffffffff820189528552878781205511611ad0575b50845252812055600190565b7fffffffffffffffffffffffff000000000000000000000000000000000000000090868052018486205538611ac4565b600487517f06a2af9e000000000000000000000000000000000000000000000000000000008152fd5b7fffffffffffffffffffffffffffffffffffffffffffffffffffffffffffffffff9081611b63856000805260205260406000205460a01c90565b0189528386528789205416908201611b88846000805260205260406000205460a01c90565b9081811015611bcb5782919080611bb9575089805284875260a01b17878920555b8752848452858720553880611a76565b91505088528285528087892055611ba9565b600489517f4e23d035000000000000000000000000000000000000000000000000000000008152fd5b5050505050505090565b9190917f000000000000000000000000000000000000000000000000000000000000000091604051937f7a1f1aa90000000000000000000000000000000000000000000000000000000085526000600486015260248501526044840152600080606485825a9587f115611c7057505050565b603f0260061c10611c7e5750565b3d6000823e3d90fd5b907f0000000000000000000000000000000000000000000000000000000000000000604051927f7a1f1aa900000000000000000000000000000000000000000000000000000000845260009283600486015283602486015260448501528280606486825a9587f115611cfa575b50505050565b603f0260061c10611d0c578080611cf4565b3d90823e3d90fd5b9190917f000000000000000000000000000000000000000000000000000000000000000091604051937f7a1f1aa90000000000000000000000000000000000000000000000000000000085526004850152600060248501526044840152600080606485825a9587f115611c7057505050565b91908201809211611d9357565b7f4e487b7100000000000000000000000000000000000000000000000000000000600052601160045260246000fd5b9173ffffffffffffffffffffffffffffffffffffffff808416801561215b578184169485156120d75760009082825260209282845260409384842054878110612054578790838652858352038585205588845284842087815401905588827fddf252ad1be2c89b69c2b068fc378daa952ba7f163c4a11628f55a4df523b3ef8388518b8152a360026005541461202b57600260055586151580612021575b611e75575b5050505050505050506001600555565b6006918452818152611e88858520611745565b98845252611e97838320611745565b92875191845198845b848110611eee5750505050505b858110611ebc57808080611e65565b8083611eca6001938561186b565b5116858782611edd575b50505001611ead565b611ee692611bfe565b388587611ed4565b808a8a858e8c8b81611f018f998b61186b565b51169581925b848410611f36575b5050506001965014611f25575b50505001611ea0565b611f2e92611d14565b388a85611f1c565b611f45848b989796959861186b565b51168714611f6957505050505060019192935001908a858e8b95948f8c908f611f07565b94919293947f00000000000000000000000000000000000000000000000000000000000000008c51917f7a1f1aa900000000000000000000000000000000000000000000000000000000835286600484015260248301528660448301525a8380606485828d87f115611ff2575b505050611fe58260019961186b565b528f8d97508c908f611f0f565b93979899509450945050603f91500260061c1061201957858e8b9594938b8f948080611fd6565b3d89823e3d90fd5b5088821415611e60565b600485517f37ed32e8000000000000000000000000000000000000000000000000000000008152fd5b6084828751907f08c379a00000000000000000000000000000000000000000000000000000000082526004820152602660248201527f45524332303a207472616e7366657220616d6f756e742065786365656473206260448201527f616c616e636500000000000000000000000000000000000000000000000000006064820152fd5b60846040517f08c379a000000000000000000000000000000000000000000000000000000000815260206004820152602360248201527f45524332303a207472616e7366657220746f20746865207a65726f206164647260448201527f65737300000000000000000000000000000000000000000000000000000000006064820152fd5b60846040517f08c379a000000000000000000000000000000000000000000000000000000000815260206004820152602560248201527f45524332303a207472616e736665722066726f6d20746865207a65726f20616460448201527f64726573730000000000000000000000000000000000000000000000000000006064820152fd5b73ffffffffffffffffffffffffffffffffffffffff8091169182156122d1571691821561224d5760207f8c5be1e5ebec7d5bd14f71427d1e84f3dd0314c0f7b2291e5b200ac8c7c3b925918360005260018252604060002085600052825280604060002055604051908152a3565b60846040517f08c379a000000000000000000000000000000000000000000000000000000000815260206004820152602260248201527f45524332303a20617070726f766520746f20746865207a65726f20616464726560448201527f73730000000000000000000000000000000000000000000000000000000000006064820152fd5b60846040517f08c379a0000000000000000000000000000000000000000000000000000000008152602060048201526024808201527f45524332303a20617070726f76652066726f6d20746865207a65726f2061646460448201527f72657373000000000000000000000000000000000000000000000000000000006064820152fdfea26469706673582212202ccde52373e82050c255373476c61164e77b1cc8b3bce60d248a35c01039b8e064736f6c63430008130033","opcodes":"PUSH1 0xE0 PUSH1 0x40 MSTORE CALLVALUE PUSH3 0x39C JUMPI PUSH3 0x27C4 DUP1 CODESIZE SUB DUP1 PUSH3 0x1D DUP2 PUSH3 0x3A1 JUMP JUMPDEST SWAP3 DUP4 CODECOPY DUP2 ADD PUSH1 0x80 DUP3 DUP3 SUB SLT PUSH3 0x39C JUMPI DUP2 MLOAD PUSH1 0x1 PUSH1 0x1 PUSH1 0x40 SHL SUB SWAP1 DUP2 DUP2 GT PUSH3 0x39C JUMPI DUP3 PUSH3 0x4E SWAP2 DUP6 ADD PUSH3 0x3C7 JUMP JUMPDEST SWAP3 PUSH1 0x20 SWAP3 DUP4 DUP3 ADD MLOAD SWAP1 DUP4 DUP3 GT PUSH3 0x39C JUMPI PUSH3 0x6C SWAP2 DUP4 ADD PUSH3 0x3C7 JUMP JUMPDEST PUSH1 0x60 PUSH1 0x40 DUP4 ADD MLOAD SWAP3 ADD MLOAD SWAP3 DUP6 MLOAD DUP2 DUP2 GT PUSH3 0x29C JUMPI PUSH1 0x3 SWAP1 DUP2 SLOAD SWAP1 PUSH1 0x1 SWAP9 DUP10 DUP4 DUP2 SHR SWAP4 AND DUP1 ISZERO PUSH3 0x391 JUMPI JUMPDEST DUP10 DUP5 LT EQ PUSH3 0x37B JUMPI DUP2 SWAP1 PUSH1 0x1F SWAP4 DUP5 DUP2 GT PUSH3 0x325 JUMPI JUMPDEST POP DUP10 SWAP1 DUP5 DUP4 GT PUSH1 0x1 EQ PUSH3 0x2BE JUMPI PUSH1 0x0 SWAP3 PUSH3 0x2B2 JUMPI JUMPDEST POP POP PUSH1 0x0 NOT DUP3 DUP6 SHL SHR NOT AND SWAP1 DUP10 SHL OR DUP3 SSTORE JUMPDEST DUP4 MLOAD SWAP3 DUP4 GT PUSH3 0x29C JUMPI PUSH1 0x4 SWAP4 DUP5 SLOAD SWAP8 DUP10 DUP10 DUP2 SHR SWAP10 AND DUP1 ISZERO PUSH3 0x291 JUMPI JUMPDEST DUP2 DUP11 LT EQ PUSH3 0x27C JUMPI DUP3 DUP10 GT PUSH3 0x230 JUMPI JUMPDEST DUP5 SWAP6 SWAP7 SWAP8 SWAP9 POP DUP1 SWAP3 DUP6 GT PUSH1 0x1 EQ PUSH3 0x1C2 JUMPI POP PUSH1 0x0 SWAP4 PUSH3 0x1B6 JUMPI JUMPDEST POP POP DUP3 DUP8 SHL SWAP3 PUSH1 0x0 NOT SWAP2 SHL SHR NOT AND OR DUP2 SSTORE JUMPDEST DUP2 ISZERO PUSH3 0x1A7 JUMPI POP PUSH1 0x80 MSTORE PUSH1 0xA0 MSTORE PUSH1 0x5 SSTORE CALLER PUSH1 0xC0 MSTORE PUSH1 0x40 MLOAD PUSH2 0x238A SWAP1 DUP2 PUSH3 0x43A DUP3 CODECOPY PUSH1 0x80 MLOAD DUP2 DUP2 DUP2 PUSH2 0x2F6 ADD MSTORE PUSH2 0xEDA ADD MSTORE PUSH1 0xA0 MLOAD DUP2 DUP2 DUP2 PUSH2 0xDCD ADD MSTORE DUP2 DUP2 PUSH2 0x1C03 ADD MSTORE DUP2 DUP2 PUSH2 0x1C8A ADD MSTORE DUP2 DUP2 PUSH2 0x1D19 ADD MSTORE PUSH2 0x1F70 ADD MSTORE PUSH1 0xC0 MLOAD DUP2 DUP2 DUP2 PUSH2 0x783 ADD MSTORE DUP2 DUP2 PUSH2 0xC28 ADD MSTORE PUSH2 0xFF2 ADD MSTORE RETURN JUMPDEST PUSH1 0x40 MLOAD PUSH4 0xCDAF747B PUSH1 0xE0 SHL DUP2 MSTORE REVERT JUMPDEST ADD MLOAD SWAP2 POP CODESIZE DUP1 PUSH3 0x124 JUMP JUMPDEST SWAP3 SWAP2 SWAP1 DUP10 SWAP6 POP PUSH1 0x1F NOT DUP6 AND DUP8 PUSH1 0x0 MSTORE DUP5 PUSH1 0x0 KECCAK256 SWAP5 PUSH1 0x0 SWAP1 JUMPDEST DUP3 DUP3 LT PUSH3 0x216 JUMPI POP POP DUP6 GT PUSH3 0x1FB JUMPI JUMPDEST POP POP POP POP DUP2 SHL ADD DUP2 SSTORE PUSH3 0x136 JUMP JUMPDEST ADD MLOAD SWAP1 PUSH1 0xF8 DUP5 PUSH1 0x0 NOT SWAP3 SHL AND SHR NOT AND SWAP1 SSTORE CODESIZE DUP1 DUP1 DUP1 PUSH3 0x1EC JUMP JUMPDEST DUP5 DUP5 ADD MLOAD DUP8 SSTORE DUP13 SWAP9 SWAP1 SWAP7 ADD SWAP6 SWAP4 DUP5 ADD SWAP4 SWAP1 DUP2 ADD SWAP1 PUSH3 0x1DA JUMP JUMPDEST DUP6 PUSH1 0x0 MSTORE DUP1 PUSH1 0x0 KECCAK256 DUP4 DUP7 ADD PUSH1 0x5 SHR DUP2 ADD SWAP10 DUP3 DUP8 LT PUSH3 0x271 JUMPI JUMPDEST DUP5 ADD PUSH1 0x5 SHR ADD SWAP9 DUP11 SWAP1 JUMPDEST DUP11 DUP2 LT PUSH3 0x264 JUMPI POP POP PUSH3 0x108 JUMP JUMPDEST PUSH1 0x0 DUP2 SSTORE ADD DUP11 SWAP1 PUSH3 0x254 JUMP JUMPDEST SWAP1 SWAP10 POP DUP10 SWAP1 PUSH3 0x24A JUMP JUMPDEST PUSH1 0x22 DUP7 PUSH4 0x4E487B71 PUSH1 0xE0 SHL PUSH1 0x0 MSTORE MSTORE PUSH1 0x24 PUSH1 0x0 REVERT JUMPDEST SWAP9 PUSH1 0x7F AND SWAP9 PUSH3 0xF6 JUMP JUMPDEST PUSH4 0x4E487B71 PUSH1 0xE0 SHL PUSH1 0x0 MSTORE PUSH1 0x41 PUSH1 0x4 MSTORE PUSH1 0x24 PUSH1 0x0 REVERT JUMPDEST ADD MLOAD SWAP1 POP CODESIZE DUP1 PUSH3 0xC6 JUMP JUMPDEST SWAP1 DUP12 SWAP4 POP PUSH1 0x1F NOT DUP4 AND SWAP2 DUP7 PUSH1 0x0 MSTORE DUP12 PUSH1 0x0 KECCAK256 SWAP3 PUSH1 0x0 JUMPDEST DUP14 DUP3 DUP3 LT PUSH3 0x30E JUMPI POP POP DUP5 GT PUSH3 0x2F5 JUMPI JUMPDEST POP POP POP DUP2 SHL ADD DUP3 SSTORE PUSH3 0xD8 JUMP JUMPDEST ADD MLOAD PUSH1 0x0 NOT DUP4 DUP8 SHL PUSH1 0xF8 AND SHR NOT AND SWAP1 SSTORE CODESIZE DUP1 DUP1 PUSH3 0x2E7 JUMP JUMPDEST DUP4 DUP6 ADD MLOAD DUP7 SSTORE DUP16 SWAP8 SWAP1 SWAP6 ADD SWAP5 SWAP4 DUP5 ADD SWAP4 ADD PUSH3 0x2D4 JUMP JUMPDEST SWAP1 SWAP2 POP DUP5 PUSH1 0x0 MSTORE DUP10 PUSH1 0x0 KECCAK256 DUP5 DUP1 DUP6 ADD PUSH1 0x5 SHR DUP3 ADD SWAP3 DUP13 DUP7 LT PUSH3 0x371 JUMPI JUMPDEST SWAP2 DUP14 SWAP2 DUP7 SWAP6 SWAP5 SWAP4 ADD PUSH1 0x5 SHR ADD SWAP2 JUMPDEST DUP3 DUP2 LT PUSH3 0x361 JUMPI POP POP PUSH3 0xAF JUMP JUMPDEST PUSH1 0x0 DUP2 SSTORE DUP6 SWAP5 POP DUP14 SWAP2 ADD PUSH3 0x351 JUMP JUMPDEST SWAP3 POP DUP2 SWAP3 PUSH3 0x343 JUMP JUMPDEST PUSH4 0x4E487B71 PUSH1 0xE0 SHL PUSH1 0x0 MSTORE PUSH1 0x22 PUSH1 0x4 MSTORE PUSH1 0x24 PUSH1 0x0 REVERT JUMPDEST SWAP3 PUSH1 0x7F AND SWAP3 PUSH3 0x98 JUMP JUMPDEST PUSH1 0x0 DUP1 REVERT JUMPDEST PUSH1 0x40 MLOAD SWAP2 SWAP1 PUSH1 0x1F ADD PUSH1 0x1F NOT AND DUP3 ADD PUSH1 0x1 PUSH1 0x1 PUSH1 0x40 SHL SUB DUP2 GT DUP4 DUP3 LT OR PUSH3 0x29C JUMPI PUSH1 0x40 MSTORE JUMP JUMPDEST SWAP2 SWAP1 DUP1 PUSH1 0x1F DUP5 ADD SLT ISZERO PUSH3 0x39C JUMPI DUP3 MLOAD PUSH1 0x1 PUSH1 0x1 PUSH1 0x40 SHL SUB DUP2 GT PUSH3 0x29C JUMPI PUSH1 0x20 SWAP1 PUSH3 0x3FD PUSH1 0x1F DUP3 ADD PUSH1 0x1F NOT AND DUP4 ADD PUSH3 0x3A1 JUMP JUMPDEST SWAP3 DUP2 DUP5 MSTORE DUP3 DUP3 DUP8 ADD ADD GT PUSH3 0x39C JUMPI PUSH1 0x0 JUMPDEST DUP2 DUP2 LT PUSH3 0x425 JUMPI POP DUP3 PUSH1 0x0 SWAP4 SWAP5 SWAP6 POP ADD ADD MSTORE SWAP1 JUMP JUMPDEST DUP6 DUP2 ADD DUP4 ADD MLOAD DUP5 DUP3 ADD DUP5 ADD MSTORE DUP3 ADD PUSH3 0x40F JUMP INVALID PUSH1 0x80 PUSH1 0x40 DUP2 DUP2 MSTORE PUSH1 0x4 SWAP2 DUP3 CALLDATASIZE LT ISZERO PUSH2 0x16 JUMPI PUSH1 0x0 DUP1 REVERT JUMPDEST PUSH1 0x0 SWAP3 DUP4 CALLDATALOAD PUSH1 0xE0 SHR SWAP2 DUP3 PUSH4 0x6FDDE03 EQ PUSH2 0x14C6 JUMPI POP DUP2 PUSH4 0x95EA7B3 EQ PUSH2 0x147E JUMPI DUP2 PUSH4 0x18160DDD EQ PUSH2 0x1441 JUMPI DUP2 PUSH4 0x1945F729 EQ PUSH2 0x13D3 JUMPI DUP2 PUSH4 0x23B872DD EQ PUSH2 0x12A5 JUMPI DUP2 PUSH4 0x313CE567 EQ PUSH2 0x126B JUMPI DUP2 PUSH4 0x39509351 EQ PUSH2 0x11F1 JUMPI DUP2 PUSH4 0x40C10F19 EQ PUSH2 0xF9B JUMPI DUP2 PUSH4 0x4B12E643 EQ PUSH2 0xEFD JUMPI DUP2 PUSH4 0x53CEA5DF EQ PUSH2 0xEA4 JUMPI DUP2 PUSH4 0x61728134 EQ PUSH2 0xE34 JUMPI DUP2 PUSH4 0x70A08231 EQ PUSH2 0xDF0 JUMPI DUP2 PUSH4 0x7EE688CB EQ PUSH2 0xD97 JUMPI DUP2 PUSH4 0x8B822D88 EQ PUSH2 0xC4C JUMPI DUP2 PUSH4 0x8E371BEF EQ PUSH2 0xBDD JUMPI DUP2 PUSH4 0x95D89B41 EQ PUSH2 0xA85 JUMPI DUP2 PUSH4 0x9DC29FAC EQ PUSH2 0x72C JUMPI DUP2 PUSH4 0xA457C2D7 EQ PUSH2 0x629 JUMPI DUP2 PUSH4 0xA4D95B64 EQ PUSH2 0x54A JUMPI DUP2 PUSH4 0xA9059CBB EQ PUSH2 0x4FB JUMPI DUP2 PUSH4 0xC1255635 EQ PUSH2 0x471 JUMPI DUP2 PUSH4 0xD8867FC8 EQ PUSH2 0x21B JUMPI POP DUP1 PUSH4 0xDD62ED3E EQ PUSH2 0x1A8 JUMPI PUSH4 0xED6EDC82 EQ PUSH2 0x12D JUMPI PUSH1 0x0 DUP1 REVERT JUMPDEST CALLVALUE PUSH2 0x1A4 JUMPI DUP1 PUSH32 0xFFFFFFFFFFFFFFFFFFFFFFFFFFFFFFFFFFFFFFFFFFFFFFFFFFFFFFFFFFFFFFFC CALLDATASIZE ADD SLT PUSH2 0x1A4 JUMPI DUP1 PUSH1 0x20 SWAP3 PUSH2 0x167 PUSH2 0x1672 JUMP JUMPDEST PUSH2 0x16F PUSH2 0x169A JUMP JUMPDEST PUSH20 0xFFFFFFFFFFFFFFFFFFFFFFFFFFFFFFFFFFFFFFFF SWAP2 DUP3 AND DUP4 MSTORE PUSH1 0x6 DUP7 MSTORE DUP4 DUP4 KECCAK256 SWAP2 AND DUP3 MSTORE PUSH1 0x1 ADD DUP5 MSTORE KECCAK256 SLOAD SWAP1 MLOAD SWAP1 ISZERO ISZERO DUP2 MSTORE RETURN JUMPDEST POP DUP1 REVERT JUMPDEST POP CALLVALUE PUSH2 0x1A4 JUMPI DUP1 PUSH32 0xFFFFFFFFFFFFFFFFFFFFFFFFFFFFFFFFFFFFFFFFFFFFFFFFFFFFFFFFFFFFFFFC CALLDATASIZE ADD SLT PUSH2 0x1A4 JUMPI DUP1 PUSH1 0x20 SWAP3 PUSH2 0x1E3 PUSH2 0x1672 JUMP JUMPDEST PUSH2 0x1EB PUSH2 0x169A JUMP JUMPDEST PUSH20 0xFFFFFFFFFFFFFFFFFFFFFFFFFFFFFFFFFFFFFFFF SWAP2 DUP3 AND DUP4 MSTORE PUSH1 0x1 DUP7 MSTORE DUP4 DUP4 KECCAK256 SWAP2 AND DUP3 MSTORE DUP5 MSTORE KECCAK256 SLOAD SWAP1 MLOAD SWAP1 DUP2 MSTORE RETURN JUMPDEST SWAP2 SWAP1 POP CALLVALUE PUSH2 0x46D JUMPI PUSH1 0x20 SWAP2 DUP3 PUSH32 0xFFFFFFFFFFFFFFFFFFFFFFFFFFFFFFFFFFFFFFFFFFFFFFFFFFFFFFFFFFFFFFFC CALLDATASIZE ADD SLT PUSH2 0x469 JUMPI PUSH2 0x257 PUSH2 0x1672 JUMP JUMPDEST SWAP3 PUSH20 0xFFFFFFFFFFFFFFFFFFFFFFFFFFFFFFFFFFFFFFFF DUP1 DUP6 AND DUP1 ISZERO PUSH2 0x441 JUMPI SWAP1 DUP3 DUP5 SWAP3 DUP7 MLOAD SWAP4 DUP5 DUP1 SWAP3 PUSH32 0xFC0C546A00000000000000000000000000000000000000000000000000000000 DUP3 MSTORE GAS STATICCALL SWAP2 DUP3 ISZERO PUSH2 0x437 JUMPI DUP8 SWAP3 PUSH2 0x3FB JUMPI JUMPDEST POP ADDRESS SWAP2 AND SUB PUSH2 0x3D3 JUMPI CALLER DUP6 MSTORE PUSH1 0x6 DUP2 MSTORE PUSH2 0x2CF DUP5 DUP5 DUP8 KECCAK256 PUSH2 0x1957 JUMP JUMPDEST ISZERO PUSH2 0x3AB JUMPI PUSH1 0x6 SWAP1 CALLER DUP7 MSTORE MSTORE PUSH2 0x2F4 DUP3 DUP6 KECCAK256 PUSH1 0x0 DUP1 MSTORE PUSH1 0x20 MSTORE PUSH1 0x40 PUSH1 0x0 KECCAK256 SLOAD PUSH1 0xA0 SHR SWAP1 JUMP JUMPDEST PUSH32 0x0 LT PUSH2 0x384 JUMPI POP MLOAD CALLER DUP2 MSTORE PUSH20 0xFFFFFFFFFFFFFFFFFFFFFFFFFFFFFFFFFFFFFFFF DUP3 AND PUSH1 0x20 DUP3 ADD MSTORE PUSH32 0x68AAFB7A848A8E6E0E8FE992DE5812474789DDEC166CE06BE4DE83B3AAA2864E SWAP1 PUSH1 0x40 SWAP1 LOG1 PUSH2 0x36A CALLER PUSH2 0x18AE JUMP JUMPDEST DUP1 PUSH2 0x373 JUMPI DUP3 DUP1 RETURN JUMPDEST PUSH2 0x37E SWAP2 CALLER SWAP1 PUSH2 0x1BFE JUMP JUMPDEST CODESIZE DUP1 DUP3 DUP1 RETURN JUMPDEST SWAP1 MLOAD PUSH32 0x2846F78A00000000000000000000000000000000000000000000000000000000 DUP2 MSTORE REVERT JUMPDEST POP SWAP1 MLOAD PUSH32 0xFCE323D600000000000000000000000000000000000000000000000000000000 DUP2 MSTORE REVERT JUMPDEST POP SWAP1 MLOAD PUSH32 0x5940FCC800000000000000000000000000000000000000000000000000000000 DUP2 MSTORE REVERT JUMPDEST SWAP1 SWAP2 POP DUP3 DUP2 DUP2 RETURNDATASIZE DUP4 GT PUSH2 0x430 JUMPI JUMPDEST PUSH2 0x413 DUP2 DUP4 PUSH2 0x16BD JUMP JUMPDEST DUP2 ADD SUB SLT PUSH2 0x42C JUMPI MLOAD DUP2 DUP2 AND DUP2 SUB PUSH2 0x42C JUMPI SWAP1 CODESIZE PUSH2 0x2B3 JUMP JUMPDEST DUP7 DUP1 REVERT JUMPDEST POP RETURNDATASIZE PUSH2 0x409 JUMP JUMPDEST DUP6 MLOAD RETURNDATASIZE DUP10 DUP3 RETURNDATACOPY RETURNDATASIZE SWAP1 REVERT JUMPDEST DUP4 DUP6 MLOAD PUSH32 0x4C6EA03C00000000000000000000000000000000000000000000000000000000 DUP2 MSTORE REVERT JUMPDEST DUP4 DUP1 REVERT JUMPDEST DUP3 DUP1 REVERT JUMPDEST DUP3 DUP5 CALLVALUE PUSH2 0x4F8 JUMPI DUP2 PUSH32 0xFFFFFFFFFFFFFFFFFFFFFFFFFFFFFFFFFFFFFFFFFFFFFFFFFFFFFFFFFFFFFFFC CALLDATASIZE ADD SLT PUSH2 0x4F8 JUMPI POP PUSH2 0x4AA PUSH2 0x1672 JUMP JUMPDEST PUSH2 0x4B2 PUSH2 0x169A JUMP JUMPDEST SWAP3 PUSH1 0x2 PUSH1 0x5 SLOAD EQ PUSH2 0x4D1 JUMPI POP PUSH1 0x20 SWAP3 PUSH2 0x4CA SWAP2 PUSH2 0x1909 JUMP JUMPDEST SWAP1 MLOAD SWAP1 DUP2 MSTORE RETURN JUMPDEST DUP3 MLOAD PUSH32 0x37ED32E800000000000000000000000000000000000000000000000000000000 DUP2 MSTORE REVERT JUMPDEST DUP1 REVERT JUMPDEST POP POP CALLVALUE PUSH2 0x1A4 JUMPI DUP1 PUSH32 0xFFFFFFFFFFFFFFFFFFFFFFFFFFFFFFFFFFFFFFFFFFFFFFFFFFFFFFFFFFFFFFFC CALLDATASIZE ADD SLT PUSH2 0x1A4 JUMPI PUSH1 0x20 SWAP1 PUSH2 0x543 PUSH2 0x539 PUSH2 0x1672 JUMP JUMPDEST PUSH1 0x24 CALLDATALOAD SWAP1 CALLER PUSH2 0x1DC2 JUMP JUMPDEST MLOAD PUSH1 0x1 DUP2 MSTORE RETURN JUMPDEST SWAP2 SWAP1 POP CALLVALUE PUSH2 0x46D JUMPI PUSH1 0x20 PUSH32 0xFFFFFFFFFFFFFFFFFFFFFFFFFFFFFFFFFFFFFFFFFFFFFFFFFFFFFFFFFFFFFFFC CALLDATASIZE ADD SLT PUSH2 0x46D JUMPI PUSH2 0x584 PUSH2 0x1672 JUMP JUMPDEST SWAP2 CALLER DUP5 MSTORE PUSH1 0x6 PUSH1 0x20 MSTORE PUSH2 0x599 DUP4 DUP4 DUP7 KECCAK256 PUSH2 0x1A20 JUMP JUMPDEST ISZERO PUSH2 0x602 JUMPI POP MLOAD CALLER DUP2 MSTORE PUSH20 0xFFFFFFFFFFFFFFFFFFFFFFFFFFFFFFFFFFFFFFFF DUP3 AND PUSH1 0x20 DUP3 ADD MSTORE PUSH32 0x550EF13F654F6FC7054E7C556D2647CB8838BEFBFA68640BB3050FC458AD4735 SWAP1 PUSH1 0x40 SWAP1 LOG1 PUSH2 0x5EE CALLER PUSH2 0x18AE JUMP JUMPDEST DUP1 PUSH2 0x5F7 JUMPI DUP3 DUP1 RETURN JUMPDEST PUSH2 0x37E SWAP2 CALLER SWAP1 PUSH2 0x1D14 JUMP JUMPDEST SWAP1 MLOAD PUSH32 0x108A506D00000000000000000000000000000000000000000000000000000000 DUP2 MSTORE REVERT JUMPDEST SWAP1 POP DUP3 CALLVALUE PUSH2 0x4F8 JUMPI DUP3 PUSH32 0xFFFFFFFFFFFFFFFFFFFFFFFFFFFFFFFFFFFFFFFFFFFFFFFFFFFFFFFFFFFFFFFC CALLDATASIZE ADD SLT PUSH2 0x4F8 JUMPI PUSH2 0x662 PUSH2 0x1672 JUMP JUMPDEST SWAP2 DUP4 PUSH1 0x24 CALLDATALOAD SWAP3 CALLER DUP2 MSTORE PUSH1 0x1 PUSH1 0x20 MSTORE DUP2 DUP2 KECCAK256 PUSH20 0xFFFFFFFFFFFFFFFFFFFFFFFFFFFFFFFFFFFFFFFF DUP7 AND DUP3 MSTORE PUSH1 0x20 MSTORE KECCAK256 SLOAD SWAP1 DUP3 DUP3 LT PUSH2 0x6A9 JUMPI PUSH1 0x20 DUP6 PUSH2 0x543 DUP6 DUP6 SUB DUP8 CALLER PUSH2 0x21DF JUMP JUMPDEST PUSH1 0x84 SWAP1 PUSH1 0x20 DUP7 MLOAD SWAP2 PUSH32 0x8C379A000000000000000000000000000000000000000000000000000000000 DUP4 MSTORE DUP3 ADD MSTORE PUSH1 0x25 PUSH1 0x24 DUP3 ADD MSTORE PUSH32 0x45524332303A2064656372656173656420616C6C6F77616E63652062656C6F77 PUSH1 0x44 DUP3 ADD MSTORE PUSH32 0x207A65726F000000000000000000000000000000000000000000000000000000 PUSH1 0x64 DUP3 ADD MSTORE REVERT JUMPDEST SWAP2 SWAP1 POP CALLVALUE PUSH2 0x46D JUMPI DUP1 PUSH32 0xFFFFFFFFFFFFFFFFFFFFFFFFFFFFFFFFFFFFFFFFFFFFFFFFFFFFFFFFFFFFFFFC CALLDATASIZE ADD SLT PUSH2 0x46D JUMPI PUSH2 0x765 PUSH2 0x1672 JUMP JUMPDEST SWAP1 PUSH1 0x24 CALLDATALOAD SWAP2 PUSH20 0xFFFFFFFFFFFFFFFFFFFFFFFFFFFFFFFFFFFFFFFF SWAP2 DUP3 PUSH32 0x0 AND CALLER SUB PUSH2 0xA5D JUMPI DUP3 DUP3 AND SWAP1 DUP2 ISZERO PUSH2 0x9DB JUMPI DUP2 DUP8 MSTORE PUSH1 0x20 SWAP6 DUP8 DUP8 MSTORE DUP2 DUP9 KECCAK256 SLOAD DUP7 DUP2 LT PUSH2 0x959 JUMPI DUP7 SWAP1 DUP5 DUP11 MSTORE DUP10 DUP10 MSTORE SUB DUP3 DUP10 KECCAK256 SSTORE DUP6 PUSH1 0x2 SLOAD SUB PUSH1 0x2 SSTORE DUP8 DUP4 PUSH32 0xDDF252AD1BE2C89B69C2B068FC378DAA952BA7F163C4A11628F55A4DF523B3EF DUP10 DUP6 MLOAD DUP11 DUP2 MSTORE LOG3 PUSH1 0x2 PUSH1 0x5 SLOAD EQ PUSH2 0x932 JUMPI POP PUSH1 0x2 PUSH1 0x5 SSTORE DUP5 ISZERO ISZERO DUP1 PUSH2 0x92A JUMPI JUMPDEST PUSH2 0x82D JUMPI JUMPDEST DUP7 PUSH1 0x1 PUSH1 0x5 SSTORE DUP1 RETURN JUMPDEST PUSH2 0x850 SWAP2 DUP8 MSTORE PUSH1 0x6 DUP7 MSTORE PUSH1 0x6 PUSH2 0x844 DUP3 DUP10 KECCAK256 PUSH2 0x1745 JUMP JUMPDEST SWAP7 DUP9 DUP1 MSTORE MSTORE DUP7 KECCAK256 PUSH2 0x1745 JUMP JUMPDEST SWAP1 DUP5 MLOAD SWAP1 DUP3 MLOAD SWAP6 DUP8 JUMPDEST DUP4 DUP2 LT PUSH2 0x8A2 JUMPI POP POP POP POP DUP5 JUMPDEST DUP5 DUP2 LT PUSH2 0x873 JUMPI DUP1 PUSH2 0x824 JUMP JUMPDEST DUP1 DUP4 PUSH2 0x881 PUSH1 0x1 SWAP4 DUP6 PUSH2 0x186B JUMP JUMPDEST MLOAD AND DUP6 DUP2 PUSH2 0x892 JUMPI JUMPDEST POP POP ADD PUSH2 0x866 JUMP JUMPDEST PUSH2 0x89B SWAP2 PUSH2 0x1C87 JUMP JUMPDEST CODESIZE DUP6 PUSH2 0x88A JUMP JUMPDEST DUP6 PUSH2 0x8AD DUP3 DUP5 PUSH2 0x186B JUMP JUMPDEST MLOAD AND SWAP1 DUP10 SWAP2 JUMPDEST DUP9 DUP6 DUP12 DUP1 DUP7 LT PUSH2 0x8E1 JUMPI JUMPDEST PUSH1 0x1 SWAP6 EQ PUSH2 0x8D0 JUMPI JUMPDEST POP POP POP ADD PUSH2 0x859 JUMP JUMPDEST PUSH2 0x8D9 SWAP3 PUSH2 0x1D14 JUMP JUMPDEST CODESIZE DUP9 DUP6 PUSH2 0x8C7 JUMP JUMPDEST DUP14 DUP12 PUSH2 0x8F1 DUP9 DUP14 SWAP10 SWAP8 SWAP9 SWAP10 PUSH2 0x186B JUMP JUMPDEST MLOAD AND DUP7 EQ PUSH2 0x907 JUMPI POP POP POP POP PUSH1 0x1 ADD SWAP2 SWAP1 PUSH2 0x8B3 JUMP JUMPDEST SWAP4 DUP6 SWAP5 PUSH2 0x918 DUP6 DUP6 PUSH1 0x1 SWAP11 SWAP10 PUSH2 0x1D14 JUMP JUMPDEST PUSH2 0x922 DUP3 DUP14 PUSH2 0x186B JUMP JUMPDEST MSTORE SWAP6 POP PUSH2 0x8BE JUMP JUMPDEST POP PUSH1 0x1 PUSH2 0x81F JUMP JUMPDEST SWAP1 MLOAD PUSH32 0x37ED32E800000000000000000000000000000000000000000000000000000000 DUP2 MSTORE REVERT JUMPDEST POP DUP7 PUSH1 0x84 SWAP3 MLOAD SWAP2 PUSH32 0x8C379A000000000000000000000000000000000000000000000000000000000 DUP4 MSTORE DUP3 ADD MSTORE PUSH1 0x22 PUSH1 0x24 DUP3 ADD MSTORE PUSH32 0x45524332303A206275726E20616D6F756E7420657863656564732062616C616E PUSH1 0x44 DUP3 ADD MSTORE PUSH32 0x6365000000000000000000000000000000000000000000000000000000000000 PUSH1 0x64 DUP3 ADD MSTORE REVERT JUMPDEST MLOAD PUSH32 0x8C379A000000000000000000000000000000000000000000000000000000000 DUP2 MSTORE PUSH1 0x20 DUP2 DUP8 ADD MSTORE PUSH1 0x21 PUSH1 0x24 DUP3 ADD MSTORE PUSH32 0x45524332303A206275726E2066726F6D20746865207A65726F20616464726573 PUSH1 0x44 DUP3 ADD MSTORE PUSH32 0x7300000000000000000000000000000000000000000000000000000000000000 PUSH1 0x64 DUP3 ADD MSTORE PUSH1 0x84 SWAP1 REVERT JUMPDEST DUP5 SWAP1 MLOAD PUSH32 0xB655971200000000000000000000000000000000000000000000000000000000 DUP2 MSTORE REVERT JUMPDEST DUP4 DUP4 CALLVALUE PUSH2 0x1A4 JUMPI DUP2 PUSH32 0xFFFFFFFFFFFFFFFFFFFFFFFFFFFFFFFFFFFFFFFFFFFFFFFFFFFFFFFFFFFFFFFC CALLDATASIZE ADD SLT PUSH2 0x1A4 JUMPI DUP1 MLOAD SWAP2 DUP1 SWAP4 DUP1 SLOAD SWAP2 PUSH1 0x1 SWAP1 DUP4 DUP3 SHR SWAP3 DUP3 DUP6 AND SWAP5 DUP6 ISZERO PUSH2 0xBD3 JUMPI JUMPDEST PUSH1 0x20 SWAP6 DUP7 DUP7 LT DUP2 EQ PUSH2 0xBA7 JUMPI DUP6 DUP10 MSTORE SWAP1 DUP2 ISZERO PUSH2 0xB65 JUMPI POP PUSH1 0x1 EQ PUSH2 0xB0D JUMPI JUMPDEST PUSH2 0xB09 DUP8 DUP8 PUSH2 0xAFF DUP3 DUP13 SUB DUP4 PUSH2 0x16BD JUMP JUMPDEST MLOAD SWAP2 DUP3 SWAP2 DUP3 PUSH2 0x160C JUMP JUMPDEST SUB SWAP1 RETURN JUMPDEST DUP2 MSTORE SWAP3 SWAP6 POP PUSH32 0x8A35ACFBC15FF81A39AE7D344FD709F28E8600B4AA8C65C6B64BFE7FE36BD19B JUMPDEST DUP3 DUP5 LT PUSH2 0xB52 JUMPI POP POP POP DUP3 PUSH2 0xB09 SWAP5 PUSH2 0xAFF SWAP3 DUP3 ADD ADD SWAP5 DUP7 DUP1 PUSH2 0xAEE JUMP JUMPDEST DUP1 SLOAD DUP7 DUP6 ADD DUP9 ADD MSTORE SWAP3 DUP7 ADD SWAP3 DUP2 ADD PUSH2 0xB34 JUMP JUMPDEST PUSH32 0xFFFFFFFFFFFFFFFFFFFFFFFFFFFFFFFFFFFFFFFFFFFFFFFFFFFFFFFFFFFFFF00 AND DUP9 DUP8 ADD MSTORE POP POP POP POP ISZERO ISZERO PUSH1 0x5 SHL DUP4 ADD ADD SWAP3 POP PUSH2 0xAFF DUP3 PUSH2 0xB09 DUP7 DUP1 PUSH2 0xAEE JUMP JUMPDEST PUSH1 0x24 DUP5 PUSH1 0x22 DUP6 PUSH32 0x4E487B7100000000000000000000000000000000000000000000000000000000 DUP4 MSTORE MSTORE REVERT JUMPDEST SWAP4 PUSH1 0x7F AND SWAP4 PUSH2 0xACF JUMP JUMPDEST POP POP CALLVALUE PUSH2 0x1A4 JUMPI DUP2 PUSH32 0xFFFFFFFFFFFFFFFFFFFFFFFFFFFFFFFFFFFFFFFFFFFFFFFFFFFFFFFFFFFFFFFC CALLDATASIZE ADD SLT PUSH2 0x1A4 JUMPI PUSH1 0x20 SWAP1 MLOAD PUSH20 0xFFFFFFFFFFFFFFFFFFFFFFFFFFFFFFFFFFFFFFFF PUSH32 0x0 AND DUP2 MSTORE RETURN JUMPDEST POP POP CALLVALUE PUSH2 0x1A4 JUMPI DUP2 PUSH32 0xFFFFFFFFFFFFFFFFFFFFFFFFFFFFFFFFFFFFFFFFFFFFFFFFFFFFFFFFFFFFFFFC CALLDATASIZE ADD SLT PUSH2 0x1A4 JUMPI CALLER DUP3 MSTORE PUSH1 0x6 SWAP1 PUSH1 0x20 SWAP2 DUP1 DUP4 MSTORE PUSH2 0xC93 DUP3 DUP6 KECCAK256 PUSH2 0x1745 JUMP JUMPDEST PUSH2 0xC9C CALLER PUSH2 0x18AE JUMP JUMPDEST SWAP2 DUP2 MLOAD SWAP1 DUP2 DUP5 ISZERO ISZERO SWAP3 JUMPDEST PUSH2 0xCAE JUMPI DUP8 DUP1 RETURN JUMPDEST PUSH32 0xFFFFFFFFFFFFFFFFFFFFFFFFFFFFFFFFFFFFFFFFFFFFFFFFFFFFFFFFFFFFFFFF SWAP1 CALLER DUP10 MSTORE DUP3 DUP9 MSTORE DUP7 DUP10 KECCAK256 DUP7 DUP4 DUP4 ADD PUSH2 0xD09 PUSH20 0xFFFFFFFFFFFFFFFFFFFFFFFFFFFFFFFFFFFFFFFF SWAP4 DUP5 PUSH2 0xD01 DUP5 DUP13 PUSH2 0x186B JUMP JUMPDEST MLOAD AND SWAP1 PUSH2 0x1A20 JUMP JUMPDEST POP DUP7 PUSH32 0x550EF13F654F6FC7054E7C556D2647CB8838BEFBFA68640BB3050FC458AD4735 PUSH2 0xD67 DUP6 PUSH2 0xD3A DUP6 DUP14 PUSH2 0x186B JUMP JUMPDEST MLOAD DUP15 MLOAD CALLER DUP2 MSTORE SWAP2 AND PUSH20 0xFFFFFFFFFFFFFFFFFFFFFFFFFFFFFFFFFFFFFFFF AND PUSH1 0x20 DUP3 ADD MSTORE SWAP1 DUP2 SWAP1 PUSH1 0x40 DUP3 ADD SWAP1 JUMP JUMPDEST SUB SWAP1 LOG1 PUSH2 0xD79 JUMPI JUMPDEST POP POP POP ADD DUP1 PUSH2 0xCA6 JUMP JUMPDEST PUSH2 0xD8F SWAP3 PUSH2 0xD88 CALLER SWAP3 DUP11 PUSH2 0x186B JUMP JUMPDEST MLOAD AND PUSH2 0x1D14 JUMP JUMPDEST CODESIZE DUP7 DUP2 PUSH2 0xD6F JUMP JUMPDEST POP POP CALLVALUE PUSH2 0x1A4 JUMPI DUP2 PUSH32 0xFFFFFFFFFFFFFFFFFFFFFFFFFFFFFFFFFFFFFFFFFFFFFFFFFFFFFFFFFFFFFFFC CALLDATASIZE ADD SLT PUSH2 0x1A4 JUMPI PUSH1 0x20 SWAP1 MLOAD PUSH32 0x0 DUP2 MSTORE RETURN JUMPDEST POP POP CALLVALUE PUSH2 0x1A4 JUMPI PUSH1 0x20 PUSH32 0xFFFFFFFFFFFFFFFFFFFFFFFFFFFFFFFFFFFFFFFFFFFFFFFFFFFFFFFFFFFFFFFC CALLDATASIZE ADD SLT PUSH2 0x1A4 JUMPI PUSH1 0x20 SWAP1 PUSH2 0x4CA PUSH2 0xE2F PUSH2 0x1672 JUMP JUMPDEST PUSH2 0x18AE JUMP JUMPDEST POP POP CALLVALUE PUSH2 0x1A4 JUMPI PUSH1 0x20 PUSH32 0xFFFFFFFFFFFFFFFFFFFFFFFFFFFFFFFFFFFFFFFFFFFFFFFFFFFFFFFFFFFFFFFC CALLDATASIZE ADD SLT PUSH2 0x1A4 JUMPI PUSH2 0x4CA DUP2 PUSH1 0x20 SWAP4 PUSH20 0xFFFFFFFFFFFFFFFFFFFFFFFFFFFFFFFFFFFFFFFF PUSH2 0xE89 PUSH2 0x1672 JUMP JUMPDEST AND DUP2 MSTORE PUSH1 0x6 DUP6 MSTORE KECCAK256 PUSH1 0x0 DUP1 MSTORE PUSH1 0x20 MSTORE PUSH1 0x40 PUSH1 0x0 KECCAK256 SLOAD PUSH1 0xA0 SHR SWAP1 JUMP JUMPDEST POP POP CALLVALUE PUSH2 0x1A4 JUMPI DUP2 PUSH32 0xFFFFFFFFFFFFFFFFFFFFFFFFFFFFFFFFFFFFFFFFFFFFFFFFFFFFFFFFFFFFFFFC CALLDATASIZE ADD SLT PUSH2 0x1A4 JUMPI PUSH1 0x20 SWAP1 MLOAD PUSH32 0x0 DUP2 MSTORE RETURN JUMPDEST DUP3 DUP5 CALLVALUE PUSH2 0x4F8 JUMPI PUSH1 0x20 DUP1 PUSH32 0xFFFFFFFFFFFFFFFFFFFFFFFFFFFFFFFFFFFFFFFFFFFFFFFFFFFFFFFFFFFFFFFC CALLDATASIZE ADD SLT PUSH2 0x1A4 JUMPI DUP3 PUSH20 0xFFFFFFFFFFFFFFFFFFFFFFFFFFFFFFFFFFFFFFFF SWAP3 DUP4 PUSH2 0xF4F PUSH2 0x1672 JUMP JUMPDEST AND DUP2 MSTORE PUSH1 0x6 DUP4 MSTORE PUSH2 0xF61 DUP3 DUP3 KECCAK256 PUSH2 0x1745 JUMP JUMPDEST SWAP2 DUP1 MLOAD SWAP4 DUP1 DUP1 DUP7 ADD SWAP3 DUP2 DUP8 MSTORE DUP6 MLOAD DUP1 SWAP5 MSTORE DUP7 ADD SWAP5 ADD SWAP3 JUMPDEST DUP3 DUP2 LT PUSH2 0xF85 JUMPI DUP6 DUP6 SUB DUP7 RETURN JUMPDEST DUP4 MLOAD DUP8 AND DUP6 MSTORE SWAP4 DUP2 ADD SWAP4 SWAP3 DUP2 ADD SWAP3 PUSH1 0x1 ADD PUSH2 0xF78 JUMP JUMPDEST SWAP2 SWAP1 POP CALLVALUE PUSH2 0x46D JUMPI DUP1 PUSH32 0xFFFFFFFFFFFFFFFFFFFFFFFFFFFFFFFFFFFFFFFFFFFFFFFFFFFFFFFFFFFFFFFC CALLDATASIZE ADD SLT PUSH2 0x46D JUMPI PUSH2 0xFD4 PUSH2 0x1672 JUMP JUMPDEST SWAP1 PUSH1 0x24 CALLDATALOAD SWAP1 PUSH20 0xFFFFFFFFFFFFFFFFFFFFFFFFFFFFFFFFFFFFFFFF SWAP1 DUP2 PUSH32 0x0 AND CALLER SUB PUSH2 0xA5D JUMPI DUP2 DUP5 AND SWAP5 DUP6 ISZERO PUSH2 0x1195 JUMPI PUSH2 0x102E DUP5 PUSH1 0x2 SLOAD PUSH2 0x1D86 JUMP JUMPDEST PUSH1 0x2 SSTORE DUP6 DUP8 MSTORE DUP7 PUSH1 0x20 MSTORE DUP2 DUP8 KECCAK256 DUP5 DUP2 SLOAD ADD SWAP1 SSTORE DUP6 DUP8 PUSH32 0xDDF252AD1BE2C89B69C2B068FC378DAA952BA7F163C4A11628F55A4DF523B3EF PUSH1 0x20 DUP6 MLOAD DUP9 DUP2 MSTORE LOG3 PUSH1 0x2 PUSH1 0x5 SLOAD EQ PUSH2 0x932 JUMPI POP PUSH1 0x2 PUSH1 0x5 SSTORE DUP3 ISZERO ISZERO DUP1 PUSH2 0x118D JUMPI JUMPDEST PUSH2 0x1093 JUMPI JUMPDEST DUP6 PUSH1 0x1 PUSH1 0x5 SSTORE DUP1 RETURN JUMPDEST PUSH2 0x10B9 SWAP1 DUP7 DUP1 MSTORE PUSH1 0x6 PUSH1 0x20 MSTORE PUSH2 0x10AA DUP2 DUP9 KECCAK256 PUSH2 0x1745 JUMP JUMPDEST SWAP6 DUP8 MSTORE PUSH1 0x6 PUSH1 0x20 MSTORE DUP7 KECCAK256 PUSH2 0x1745 JUMP JUMPDEST DUP5 MLOAD DUP2 MLOAD SWAP6 DUP8 JUMPDEST DUP3 DUP2 LT PUSH2 0x110B JUMPI POP POP POP DUP6 JUMPDEST DUP6 DUP2 LT PUSH2 0x10D9 JUMPI POP PUSH2 0x108A JUMP JUMPDEST DUP1 DUP4 PUSH2 0x10E7 PUSH1 0x1 SWAP4 DUP6 PUSH2 0x186B JUMP JUMPDEST MLOAD AND DUP6 DUP8 DUP3 PUSH2 0x10FA JUMPI JUMPDEST POP POP POP ADD PUSH2 0x10CC JUMP JUMPDEST PUSH2 0x1103 SWAP3 PUSH2 0x1BFE JUMP JUMPDEST CODESIZE DUP6 DUP8 PUSH2 0x10F1 JUMP JUMPDEST DUP5 PUSH2 0x1116 DUP3 DUP5 PUSH2 0x186B JUMP JUMPDEST MLOAD AND SWAP1 DUP10 SWAP2 JUMPDEST DUP8 DUP11 DUP1 DUP6 LT PUSH2 0x1147 JUMPI JUMPDEST PUSH1 0x1 SWAP5 EQ PUSH2 0x1137 JUMPI JUMPDEST POP POP ADD PUSH2 0x10C0 JUMP JUMPDEST PUSH2 0x1140 SWAP2 PUSH2 0x1C87 JUMP JUMPDEST CODESIZE DUP8 PUSH2 0x112F JUMP JUMPDEST DUP9 PUSH2 0x1156 DUP7 DUP11 SWAP8 SWAP6 SWAP7 SWAP8 PUSH2 0x186B JUMP JUMPDEST MLOAD AND DUP5 EQ PUSH2 0x116A JUMPI POP POP PUSH1 0x1 ADD SWAP2 SWAP1 PUSH2 0x111C JUMP JUMPDEST DUP4 SWAP3 PUSH2 0x117A DUP4 DUP14 PUSH1 0x1 SWAP9 SWAP8 PUSH2 0x1BFE JUMP JUMPDEST DUP14 PUSH2 0x1185 DUP3 DUP12 PUSH2 0x186B JUMP JUMPDEST MSTORE SWAP5 POP PUSH2 0x1126 JUMP JUMPDEST POP PUSH1 0x1 PUSH2 0x1085 JUMP JUMPDEST PUSH1 0x20 PUSH1 0x64 SWAP3 MLOAD SWAP2 PUSH32 0x8C379A000000000000000000000000000000000000000000000000000000000 DUP4 MSTORE DUP3 ADD MSTORE PUSH1 0x1F PUSH1 0x24 DUP3 ADD MSTORE PUSH32 0x45524332303A206D696E7420746F20746865207A65726F206164647265737300 PUSH1 0x44 DUP3 ADD MSTORE REVERT JUMPDEST POP POP CALLVALUE PUSH2 0x1A4 JUMPI DUP1 PUSH32 0xFFFFFFFFFFFFFFFFFFFFFFFFFFFFFFFFFFFFFFFFFFFFFFFFFFFFFFFFFFFFFFFC CALLDATASIZE ADD SLT PUSH2 0x1A4 JUMPI PUSH2 0x543 PUSH1 0x20 SWAP3 PUSH2 0x1264 PUSH2 0x1232 PUSH2 0x1672 JUMP JUMPDEST SWAP2 CALLER DUP2 MSTORE PUSH1 0x1 DUP7 MSTORE DUP5 DUP2 KECCAK256 PUSH20 0xFFFFFFFFFFFFFFFFFFFFFFFFFFFFFFFFFFFFFFFF DUP5 AND DUP3 MSTORE DUP7 MSTORE DUP5 PUSH1 0x24 CALLDATALOAD SWAP2 KECCAK256 SLOAD PUSH2 0x1D86 JUMP JUMPDEST SWAP1 CALLER PUSH2 0x21DF JUMP JUMPDEST POP POP CALLVALUE PUSH2 0x1A4 JUMPI DUP2 PUSH32 0xFFFFFFFFFFFFFFFFFFFFFFFFFFFFFFFFFFFFFFFFFFFFFFFFFFFFFFFFFFFFFFFC CALLDATASIZE ADD SLT PUSH2 0x1A4 JUMPI PUSH1 0x20 SWAP1 MLOAD PUSH1 0x12 DUP2 MSTORE RETURN JUMPDEST DUP4 SWAP2 POP CALLVALUE PUSH2 0x1A4 JUMPI PUSH1 0x60 PUSH32 0xFFFFFFFFFFFFFFFFFFFFFFFFFFFFFFFFFFFFFFFFFFFFFFFFFFFFFFFFFFFFFFFC CALLDATASIZE ADD SLT PUSH2 0x1A4 JUMPI PUSH2 0x12DF PUSH2 0x1672 JUMP JUMPDEST PUSH2 0x12E7 PUSH2 0x169A JUMP JUMPDEST SWAP2 DUP5 PUSH1 0x44 CALLDATALOAD SWAP5 PUSH20 0xFFFFFFFFFFFFFFFFFFFFFFFFFFFFFFFFFFFFFFFF DUP5 AND DUP2 MSTORE PUSH1 0x1 PUSH1 0x20 MSTORE DUP2 DUP2 KECCAK256 CALLER DUP3 MSTORE PUSH1 0x20 MSTORE KECCAK256 SLOAD SWAP1 PUSH32 0xFFFFFFFFFFFFFFFFFFFFFFFFFFFFFFFFFFFFFFFFFFFFFFFFFFFFFFFFFFFFFFFF DUP3 SUB PUSH2 0x134D JUMPI JUMPDEST PUSH1 0x20 DUP7 PUSH2 0x543 DUP8 DUP8 DUP8 PUSH2 0x1DC2 JUMP JUMPDEST DUP5 DUP3 LT PUSH2 0x1376 JUMPI POP SWAP2 DUP4 SWAP2 PUSH2 0x136B PUSH1 0x20 SWAP7 SWAP6 PUSH2 0x543 SWAP6 SUB CALLER DUP4 PUSH2 0x21DF JUMP JUMPDEST SWAP2 SWAP4 SWAP5 DUP2 SWAP4 POP PUSH2 0x133F JUMP JUMPDEST PUSH1 0x64 SWAP1 PUSH1 0x20 DUP8 MLOAD SWAP2 PUSH32 0x8C379A000000000000000000000000000000000000000000000000000000000 DUP4 MSTORE DUP3 ADD MSTORE PUSH1 0x1D PUSH1 0x24 DUP3 ADD MSTORE PUSH32 0x45524332303A20696E73756666696369656E7420616C6C6F77616E6365000000 PUSH1 0x44 DUP3 ADD MSTORE REVERT JUMPDEST POP POP CALLVALUE PUSH2 0x1A4 JUMPI DUP1 PUSH32 0xFFFFFFFFFFFFFFFFFFFFFFFFFFFFFFFFFFFFFFFFFFFFFFFFFFFFFFFFFFFFFFFC CALLDATASIZE ADD SLT PUSH2 0x1A4 JUMPI PUSH1 0x20 SWAP2 DUP2 PUSH20 0xFFFFFFFFFFFFFFFFFFFFFFFFFFFFFFFFFFFFFFFF SWAP2 DUP3 PUSH2 0x1426 PUSH2 0x1672 JUMP JUMPDEST AND DUP2 MSTORE PUSH1 0x6 DUP6 MSTORE DUP2 DUP2 KECCAK256 PUSH1 0x24 CALLDATALOAD DUP3 MSTORE DUP6 MSTORE KECCAK256 SLOAD AND SWAP1 MLOAD SWAP1 DUP2 MSTORE RETURN JUMPDEST POP POP CALLVALUE PUSH2 0x1A4 JUMPI DUP2 PUSH32 0xFFFFFFFFFFFFFFFFFFFFFFFFFFFFFFFFFFFFFFFFFFFFFFFFFFFFFFFFFFFFFFFC CALLDATASIZE ADD SLT PUSH2 0x1A4 JUMPI PUSH1 0x20 SWAP1 PUSH1 0x2 SLOAD SWAP1 MLOAD SWAP1 DUP2 MSTORE RETURN JUMPDEST POP POP CALLVALUE PUSH2 0x1A4 JUMPI DUP1 PUSH32 0xFFFFFFFFFFFFFFFFFFFFFFFFFFFFFFFFFFFFFFFFFFFFFFFFFFFFFFFFFFFFFFFC CALLDATASIZE ADD SLT PUSH2 0x1A4 JUMPI PUSH1 0x20 SWAP1 PUSH2 0x543 PUSH2 0x14BC PUSH2 0x1672 JUMP JUMPDEST PUSH1 0x24 CALLDATALOAD SWAP1 CALLER PUSH2 0x21DF JUMP JUMPDEST SWAP3 SWAP2 POP CALLVALUE PUSH2 0x469 JUMPI DUP4 PUSH32 0xFFFFFFFFFFFFFFFFFFFFFFFFFFFFFFFFFFFFFFFFFFFFFFFFFFFFFFFFFFFFFFFC CALLDATASIZE ADD SLT PUSH2 0x469 JUMPI PUSH1 0x3 SLOAD PUSH1 0x1 DUP2 DUP2 SHR SWAP2 DUP7 SWAP1 DUP3 DUP2 AND DUP1 ISZERO PUSH2 0x1602 JUMPI JUMPDEST PUSH1 0x20 SWAP6 DUP7 DUP7 LT DUP3 EQ PUSH2 0x15D6 JUMPI POP DUP5 DUP9 MSTORE SWAP1 DUP2 ISZERO PUSH2 0x1596 JUMPI POP PUSH1 0x1 EQ PUSH2 0x153D JUMPI JUMPDEST PUSH2 0xB09 DUP7 DUP7 PUSH2 0xAFF DUP3 DUP12 SUB DUP4 PUSH2 0x16BD JUMP JUMPDEST SWAP3 SWAP6 POP PUSH1 0x3 DUP4 MSTORE PUSH32 0xC2575A0E9E593C00F959F8C92F12DB2869C3395A3B0502D05E2516446F71F85B JUMPDEST DUP3 DUP5 LT PUSH2 0x1583 JUMPI POP POP POP DUP3 PUSH2 0xB09 SWAP5 PUSH2 0xAFF SWAP3 DUP3 ADD ADD SWAP5 CODESIZE PUSH2 0x152C JUMP JUMPDEST DUP1 SLOAD DUP7 DUP6 ADD DUP9 ADD MSTORE SWAP3 DUP7 ADD SWAP3 DUP2 ADD PUSH2 0x1566 JUMP JUMPDEST PUSH32 0xFFFFFFFFFFFFFFFFFFFFFFFFFFFFFFFFFFFFFFFFFFFFFFFFFFFFFFFFFFFFFF00 AND DUP8 DUP7 ADD MSTORE POP POP POP ISZERO ISZERO PUSH1 0x5 SHL DUP4 ADD ADD SWAP3 POP PUSH2 0xAFF DUP3 PUSH2 0xB09 CODESIZE PUSH2 0x152C JUMP JUMPDEST DUP4 PUSH1 0x22 PUSH1 0x24 SWAP3 PUSH32 0x4E487B7100000000000000000000000000000000000000000000000000000000 DUP4 MSTORE MSTORE REVERT JUMPDEST SWAP4 PUSH1 0x7F AND SWAP4 PUSH2 0x150C JUMP JUMPDEST PUSH1 0x20 DUP1 DUP3 MSTORE DUP3 MLOAD DUP2 DUP4 ADD DUP2 SWAP1 MSTORE SWAP4 SWAP3 PUSH1 0x0 JUMPDEST DUP6 DUP2 LT PUSH2 0x165E JUMPI POP POP POP PUSH32 0xFFFFFFFFFFFFFFFFFFFFFFFFFFFFFFFFFFFFFFFFFFFFFFFFFFFFFFFFFFFFFFE0 PUSH1 0x1F DUP5 PUSH1 0x0 PUSH1 0x40 DUP1 SWAP7 SWAP8 DUP7 ADD ADD MSTORE ADD AND ADD ADD SWAP1 JUMP JUMPDEST DUP2 DUP2 ADD DUP4 ADD MLOAD DUP5 DUP3 ADD PUSH1 0x40 ADD MSTORE DUP3 ADD PUSH2 0x161E JUMP JUMPDEST PUSH1 0x4 CALLDATALOAD SWAP1 PUSH20 0xFFFFFFFFFFFFFFFFFFFFFFFFFFFFFFFFFFFFFFFF DUP3 AND DUP3 SUB PUSH2 0x1695 JUMPI JUMP JUMPDEST PUSH1 0x0 DUP1 REVERT JUMPDEST PUSH1 0x24 CALLDATALOAD SWAP1 PUSH20 0xFFFFFFFFFFFFFFFFFFFFFFFFFFFFFFFFFFFFFFFF DUP3 AND DUP3 SUB PUSH2 0x1695 JUMPI JUMP JUMPDEST SWAP1 PUSH1 0x1F PUSH32 0xFFFFFFFFFFFFFFFFFFFFFFFFFFFFFFFFFFFFFFFFFFFFFFFFFFFFFFFFFFFFFFE0 SWAP2 ADD AND DUP2 ADD SWAP1 DUP2 LT PUSH8 0xFFFFFFFFFFFFFFFF DUP3 GT OR PUSH2 0x16FE JUMPI PUSH1 0x40 MSTORE JUMP JUMPDEST PUSH32 0x4E487B7100000000000000000000000000000000000000000000000000000000 PUSH1 0x0 MSTORE PUSH1 0x41 PUSH1 0x4 MSTORE PUSH1 0x24 PUSH1 0x0 REVERT JUMPDEST PUSH8 0xFFFFFFFFFFFFFFFF DUP2 GT PUSH2 0x16FE JUMPI PUSH1 0x5 SHL PUSH1 0x20 ADD SWAP1 JUMP JUMPDEST SWAP1 PUSH1 0x0 DUP1 DUP1 MSTORE PUSH1 0x20 SWAP1 DUP4 DUP3 MSTORE PUSH1 0x40 SWAP1 DUP2 DUP2 KECCAK256 SLOAD DUP1 PUSH1 0xA0 SHR SWAP3 PUSH2 0x1766 DUP5 PUSH2 0x172D JUMP JUMPDEST SWAP3 PUSH2 0x1773 DUP3 MLOAD SWAP5 DUP6 PUSH2 0x16BD JUMP JUMPDEST DUP5 DUP5 MSTORE PUSH2 0x177F DUP6 PUSH2 0x172D JUMP JUMPDEST SWAP8 PUSH32 0xFFFFFFFFFFFFFFFFFFFFFFFFFFFFFFFFFFFFFFFFFFFFFFFFFFFFFFFFFFFFFFE0 DUP8 DUP7 ADD SWAP10 ADD CALLDATASIZE DUP11 CALLDATACOPY DUP5 SWAP9 DUP6 MLOAD DUP8 GT PUSH2 0x1842 JUMPI DUP7 PUSH2 0x17C3 JUMPI JUMPDEST POP POP POP POP POP POP POP POP JUMP JUMPDEST DUP6 MLOAD ISZERO PUSH2 0x1815 JUMPI PUSH20 0xFFFFFFFFFFFFFFFFFFFFFFFFFFFFFFFFFFFFFFFF DUP1 SWAP6 AND SWAP1 MSTORE PUSH1 0x1 SWAP7 DUP8 JUMPDEST DUP8 DUP2 LT PUSH2 0x17F6 JUMPI POP PUSH2 0x17B9 JUMP JUMPDEST DUP1 DUP10 SWAP2 DUP6 MSTORE DUP4 DUP4 MSTORE DUP7 DUP7 DUP7 KECCAK256 SLOAD AND PUSH2 0x180E DUP3 DUP11 PUSH2 0x186B JUMP JUMPDEST MSTORE ADD PUSH2 0x17E9 JUMP JUMPDEST PUSH1 0x24 DUP4 PUSH32 0x4E487B7100000000000000000000000000000000000000000000000000000000 DUP2 MSTORE PUSH1 0x32 PUSH1 0x4 MSTORE REVERT JUMPDEST PUSH1 0x4 DUP5 MLOAD PUSH32 0xF9A99B2500000000000000000000000000000000000000000000000000000000 DUP2 MSTORE REVERT JUMPDEST DUP1 MLOAD DUP3 LT ISZERO PUSH2 0x187F JUMPI PUSH1 0x20 SWAP2 PUSH1 0x5 SHL ADD ADD SWAP1 JUMP JUMPDEST PUSH32 0x4E487B7100000000000000000000000000000000000000000000000000000000 PUSH1 0x0 MSTORE PUSH1 0x32 PUSH1 0x4 MSTORE PUSH1 0x24 PUSH1 0x0 REVERT JUMPDEST PUSH1 0x2 PUSH1 0x5 SLOAD EQ PUSH2 0x18DF JUMPI PUSH20 0xFFFFFFFFFFFFFFFFFFFFFFFFFFFFFFFFFFFFFFFF AND PUSH1 0x0 MSTORE PUSH1 0x0 PUSH1 0x20 MSTORE PUSH1 0x40 PUSH1 0x0 KECCAK256 SLOAD SWAP1 JUMP JUMPDEST PUSH1 0x4 PUSH1 0x40 MLOAD PUSH32 0x37ED32E800000000000000000000000000000000000000000000000000000000 DUP2 MSTORE REVERT JUMPDEST PUSH20 0xFFFFFFFFFFFFFFFFFFFFFFFFFFFFFFFFFFFFFFFF DUP1 SWAP3 AND SWAP1 PUSH1 0x0 SWAP3 DUP3 DUP5 MSTORE PUSH1 0x6 PUSH1 0x20 MSTORE PUSH1 0x1 PUSH1 0x40 DUP6 KECCAK256 ADD SWAP2 AND DUP4 MSTORE PUSH1 0x20 MSTORE PUSH1 0x40 DUP3 KECCAK256 SLOAD PUSH2 0x1948 JUMPI POP SWAP1 JUMP JUMPDEST SWAP1 PUSH1 0x40 SWAP2 DUP2 MSTORE DUP1 PUSH1 0x20 MSTORE KECCAK256 SLOAD SWAP1 JUMP JUMPDEST SWAP1 PUSH20 0xFFFFFFFFFFFFFFFFFFFFFFFFFFFFFFFFFFFFFFFF PUSH1 0x1 DUP4 ADD SWAP2 AND PUSH1 0x0 SWAP3 DUP2 DUP5 MSTORE DUP3 PUSH1 0x20 MSTORE PUSH1 0x40 DUP5 KECCAK256 SLOAD PUSH2 0x1A1A JUMPI PUSH1 0x40 SWAP3 PUSH1 0x1 SWAP3 DUP6 DUP1 MSTORE DUP3 PUSH1 0x20 MSTORE DUP5 DUP7 KECCAK256 SWAP3 DUP4 SLOAD SWAP4 DUP5 PUSH1 0xA0 SHR SWAP5 DUP6 ISZERO PUSH1 0x0 EQ PUSH2 0x19F2 JUMPI POP POP DUP7 DUP1 MSTORE PUSH1 0x20 MSTORE PUSH21 0xFFFFFFFFFFFFFFFFFFFFFFFFFFFFFFFFFFFFFFFFFF DUP2 PUSH21 0x10000000000000000000000000000000000000000 ADD AND DUP6 DUP8 KECCAK256 SSTORE JUMPDEST DUP6 MSTORE PUSH1 0x20 MSTORE ADD SWAP2 KECCAK256 SSTORE PUSH1 0x1 SWAP1 JUMP JUMPDEST PUSH21 0x10000000000000000000000000000000000000000 ADD SWAP1 SSTORE POP DUP3 DUP7 MSTORE DUP5 DUP7 KECCAK256 DUP2 SWAP1 SSTORE PUSH2 0x19E4 JUMP JUMPDEST POP POP POP SWAP1 JUMP JUMPDEST SWAP1 PUSH1 0x1 DUP3 ADD PUSH20 0xFFFFFFFFFFFFFFFFFFFFFFFFFFFFFFFFFFFFFFFF DUP1 SWAP3 AND SWAP3 PUSH1 0x0 SWAP4 DUP1 DUP6 MSTORE PUSH1 0x20 SWAP2 DUP4 DUP4 MSTORE PUSH1 0x40 SWAP5 DUP6 DUP8 KECCAK256 SLOAD SWAP1 DUP2 ISZERO PUSH2 0x1BF4 JUMPI PUSH2 0x1A6F DUP4 PUSH1 0x0 DUP1 MSTORE PUSH1 0x20 MSTORE PUSH1 0x40 PUSH1 0x0 KECCAK256 SLOAD PUSH1 0xA0 SHR SWAP1 JUMP JUMPDEST DUP3 LT PUSH2 0x1B29 JUMPI JUMPDEST POP POP DUP6 DUP1 MSTORE DUP1 DUP4 MSTORE DUP5 DUP7 KECCAK256 SLOAD SWAP1 DUP2 PUSH1 0xA0 SHR SWAP1 DUP2 ISZERO PUSH2 0x1B00 JUMPI SWAP1 PUSH1 0x1 SWAP2 PUSH32 0xFFFFFFFFFFFFFFFFFFFFFFFFFFFFFFFFFFFFFFFFFFFFFFFFFFFFFFFFFFFFFFFF DUP3 ADD DUP10 MSTORE DUP6 MSTORE DUP8 DUP8 DUP2 KECCAK256 SSTORE GT PUSH2 0x1AD0 JUMPI JUMPDEST POP DUP5 MSTORE MSTORE DUP2 KECCAK256 SSTORE PUSH1 0x1 SWAP1 JUMP JUMPDEST PUSH32 0xFFFFFFFFFFFFFFFFFFFFFFFF0000000000000000000000000000000000000000 SWAP1 DUP7 DUP1 MSTORE ADD DUP5 DUP7 KECCAK256 SSTORE CODESIZE PUSH2 0x1AC4 JUMP JUMPDEST PUSH1 0x4 DUP8 MLOAD PUSH32 0x6A2AF9E00000000000000000000000000000000000000000000000000000000 DUP2 MSTORE REVERT JUMPDEST PUSH32 0xFFFFFFFFFFFFFFFFFFFFFFFFFFFFFFFFFFFFFFFFFFFFFFFFFFFFFFFFFFFFFFFF SWAP1 DUP2 PUSH2 0x1B63 DUP6 PUSH1 0x0 DUP1 MSTORE PUSH1 0x20 MSTORE PUSH1 0x40 PUSH1 0x0 KECCAK256 SLOAD PUSH1 0xA0 SHR SWAP1 JUMP JUMPDEST ADD DUP10 MSTORE DUP4 DUP7 MSTORE DUP8 DUP10 KECCAK256 SLOAD AND SWAP1 DUP3 ADD PUSH2 0x1B88 DUP5 PUSH1 0x0 DUP1 MSTORE PUSH1 0x20 MSTORE PUSH1 0x40 PUSH1 0x0 KECCAK256 SLOAD PUSH1 0xA0 SHR SWAP1 JUMP JUMPDEST SWAP1 DUP2 DUP2 LT ISZERO PUSH2 0x1BCB JUMPI DUP3 SWAP2 SWAP1 DUP1 PUSH2 0x1BB9 JUMPI POP DUP10 DUP1 MSTORE DUP5 DUP8 MSTORE PUSH1 0xA0 SHL OR DUP8 DUP10 KECCAK256 SSTORE JUMPDEST DUP8 MSTORE DUP5 DUP5 MSTORE DUP6 DUP8 KECCAK256 SSTORE CODESIZE DUP1 PUSH2 0x1A76 JUMP JUMPDEST SWAP2 POP POP DUP9 MSTORE DUP3 DUP6 MSTORE DUP1 DUP8 DUP10 KECCAK256 SSTORE PUSH2 0x1BA9 JUMP JUMPDEST PUSH1 0x4 DUP10 MLOAD PUSH32 0x4E23D03500000000000000000000000000000000000000000000000000000000 DUP2 MSTORE REVERT JUMPDEST POP POP POP POP POP POP POP SWAP1 JUMP JUMPDEST SWAP2 SWAP1 SWAP2 PUSH32 0x0 SWAP2 PUSH1 0x40 MLOAD SWAP4 PUSH32 0x7A1F1AA900000000000000000000000000000000000000000000000000000000 DUP6 MSTORE PUSH1 0x0 PUSH1 0x4 DUP7 ADD MSTORE PUSH1 0x24 DUP6 ADD MSTORE PUSH1 0x44 DUP5 ADD MSTORE PUSH1 0x0 DUP1 PUSH1 0x64 DUP6 DUP3 GAS SWAP6 DUP8 CALL ISZERO PUSH2 0x1C70 JUMPI POP POP POP JUMP JUMPDEST PUSH1 0x3F MUL PUSH1 0x6 SHR LT PUSH2 0x1C7E JUMPI POP JUMP JUMPDEST RETURNDATASIZE PUSH1 0x0 DUP3 RETURNDATACOPY RETURNDATASIZE SWAP1 REVERT JUMPDEST SWAP1 PUSH32 0x0 PUSH1 0x40 MLOAD SWAP3 PUSH32 0x7A1F1AA900000000000000000000000000000000000000000000000000000000 DUP5 MSTORE PUSH1 0x0 SWAP3 DUP4 PUSH1 0x4 DUP7 ADD MSTORE DUP4 PUSH1 0x24 DUP7 ADD MSTORE PUSH1 0x44 DUP6 ADD MSTORE DUP3 DUP1 PUSH1 0x64 DUP7 DUP3 GAS SWAP6 DUP8 CALL ISZERO PUSH2 0x1CFA JUMPI JUMPDEST POP POP POP POP JUMP JUMPDEST PUSH1 0x3F MUL PUSH1 0x6 SHR LT PUSH2 0x1D0C JUMPI DUP1 DUP1 PUSH2 0x1CF4 JUMP JUMPDEST RETURNDATASIZE SWAP1 DUP3 RETURNDATACOPY RETURNDATASIZE SWAP1 REVERT JUMPDEST SWAP2 SWAP1 SWAP2 PUSH32 0x0 SWAP2 PUSH1 0x40 MLOAD SWAP4 PUSH32 0x7A1F1AA900000000000000000000000000000000000000000000000000000000 DUP6 MSTORE PUSH1 0x4 DUP6 ADD MSTORE PUSH1 0x0 PUSH1 0x24 DUP6 ADD MSTORE PUSH1 0x44 DUP5 ADD MSTORE PUSH1 0x0 DUP1 PUSH1 0x64 DUP6 DUP3 GAS SWAP6 DUP8 CALL ISZERO PUSH2 0x1C70 JUMPI POP POP POP JUMP JUMPDEST SWAP2 SWAP1 DUP3 ADD DUP1 SWAP3 GT PUSH2 0x1D93 JUMPI JUMP JUMPDEST PUSH32 0x4E487B7100000000000000000000000000000000000000000000000000000000 PUSH1 0x0 MSTORE PUSH1 0x11 PUSH1 0x4 MSTORE PUSH1 0x24 PUSH1 0x0 REVERT JUMPDEST SWAP2 PUSH20 0xFFFFFFFFFFFFFFFFFFFFFFFFFFFFFFFFFFFFFFFF DUP1 DUP5 AND DUP1 ISZERO PUSH2 0x215B JUMPI DUP2 DUP5 AND SWAP5 DUP6 ISZERO PUSH2 0x20D7 JUMPI PUSH1 0x0 SWAP1 DUP3 DUP3 MSTORE PUSH1 0x20 SWAP3 DUP3 DUP5 MSTORE PUSH1 0x40 SWAP4 DUP5 DUP5 KECCAK256 SLOAD DUP8 DUP2 LT PUSH2 0x2054 JUMPI DUP8 SWAP1 DUP4 DUP7 MSTORE DUP6 DUP4 MSTORE SUB DUP6 DUP6 KECCAK256 SSTORE DUP9 DUP5 MSTORE DUP5 DUP5 KECCAK256 DUP8 DUP2 SLOAD ADD SWAP1 SSTORE DUP9 DUP3 PUSH32 0xDDF252AD1BE2C89B69C2B068FC378DAA952BA7F163C4A11628F55A4DF523B3EF DUP4 DUP9 MLOAD DUP12 DUP2 MSTORE LOG3 PUSH1 0x2 PUSH1 0x5 SLOAD EQ PUSH2 0x202B JUMPI PUSH1 0x2 PUSH1 0x5 SSTORE DUP7 ISZERO ISZERO DUP1 PUSH2 0x2021 JUMPI JUMPDEST PUSH2 0x1E75 JUMPI JUMPDEST POP POP POP POP POP POP POP POP POP PUSH1 0x1 PUSH1 0x5 SSTORE JUMP JUMPDEST PUSH1 0x6 SWAP2 DUP5 MSTORE DUP2 DUP2 MSTORE PUSH2 0x1E88 DUP6 DUP6 KECCAK256 PUSH2 0x1745 JUMP JUMPDEST SWAP9 DUP5 MSTORE MSTORE PUSH2 0x1E97 DUP4 DUP4 KECCAK256 PUSH2 0x1745 JUMP JUMPDEST SWAP3 DUP8 MLOAD SWAP2 DUP5 MLOAD SWAP9 DUP5 JUMPDEST DUP5 DUP2 LT PUSH2 0x1EEE JUMPI POP POP POP POP POP JUMPDEST DUP6 DUP2 LT PUSH2 0x1EBC JUMPI DUP1 DUP1 DUP1 PUSH2 0x1E65 JUMP JUMPDEST DUP1 DUP4 PUSH2 0x1ECA PUSH1 0x1 SWAP4 DUP6 PUSH2 0x186B JUMP JUMPDEST MLOAD AND DUP6 DUP8 DUP3 PUSH2 0x1EDD JUMPI JUMPDEST POP POP POP ADD PUSH2 0x1EAD JUMP JUMPDEST PUSH2 0x1EE6 SWAP3 PUSH2 0x1BFE JUMP JUMPDEST CODESIZE DUP6 DUP8 PUSH2 0x1ED4 JUMP JUMPDEST DUP1 DUP11 DUP11 DUP6 DUP15 DUP13 DUP12 DUP2 PUSH2 0x1F01 DUP16 SWAP10 DUP12 PUSH2 0x186B JUMP JUMPDEST MLOAD AND SWAP6 DUP2 SWAP3 JUMPDEST DUP5 DUP5 LT PUSH2 0x1F36 JUMPI JUMPDEST POP POP POP PUSH1 0x1 SWAP7 POP EQ PUSH2 0x1F25 JUMPI JUMPDEST POP POP POP ADD PUSH2 0x1EA0 JUMP JUMPDEST PUSH2 0x1F2E SWAP3 PUSH2 0x1D14 JUMP JUMPDEST CODESIZE DUP11 DUP6 PUSH2 0x1F1C JUMP JUMPDEST PUSH2 0x1F45 DUP5 DUP12 SWAP9 SWAP8 SWAP7 SWAP6 SWAP9 PUSH2 0x186B JUMP JUMPDEST MLOAD AND DUP8 EQ PUSH2 0x1F69 JUMPI POP POP POP POP POP PUSH1 0x1 SWAP2 SWAP3 SWAP4 POP ADD SWAP1 DUP11 DUP6 DUP15 DUP12 SWAP6 SWAP5 DUP16 DUP13 SWAP1 DUP16 PUSH2 0x1F07 JUMP JUMPDEST SWAP5 SWAP2 SWAP3 SWAP4 SWAP5 PUSH32 0x0 DUP13 MLOAD SWAP2 PUSH32 0x7A1F1AA900000000000000000000000000000000000000000000000000000000 DUP4 MSTORE DUP7 PUSH1 0x4 DUP5 ADD MSTORE PUSH1 0x24 DUP4 ADD MSTORE DUP7 PUSH1 0x44 DUP4 ADD MSTORE GAS DUP4 DUP1 PUSH1 0x64 DUP6 DUP3 DUP14 DUP8 CALL ISZERO PUSH2 0x1FF2 JUMPI JUMPDEST POP POP POP PUSH2 0x1FE5 DUP3 PUSH1 0x1 SWAP10 PUSH2 0x186B JUMP JUMPDEST MSTORE DUP16 DUP14 SWAP8 POP DUP13 SWAP1 DUP16 PUSH2 0x1F0F JUMP JUMPDEST SWAP4 SWAP8 SWAP9 SWAP10 POP SWAP5 POP SWAP5 POP POP PUSH1 0x3F SWAP2 POP MUL PUSH1 0x6 SHR LT PUSH2 0x2019 JUMPI DUP6 DUP15 DUP12 SWAP6 SWAP5 SWAP4 DUP12 DUP16 SWAP5 DUP1 DUP1 PUSH2 0x1FD6 JUMP JUMPDEST RETURNDATASIZE DUP10 DUP3 RETURNDATACOPY RETURNDATASIZE SWAP1 REVERT JUMPDEST POP DUP9 DUP3 EQ ISZERO PUSH2 0x1E60 JUMP JUMPDEST PUSH1 0x4 DUP6 MLOAD PUSH32 0x37ED32E800000000000000000000000000000000000000000000000000000000 DUP2 MSTORE REVERT JUMPDEST PUSH1 0x84 DUP3 DUP8 MLOAD SWAP1 PUSH32 0x8C379A000000000000000000000000000000000000000000000000000000000 DUP3 MSTORE PUSH1 0x4 DUP3 ADD MSTORE PUSH1 0x26 PUSH1 0x24 DUP3 ADD MSTORE PUSH32 0x45524332303A207472616E7366657220616D6F756E7420657863656564732062 PUSH1 0x44 DUP3 ADD MSTORE PUSH32 0x616C616E63650000000000000000000000000000000000000000000000000000 PUSH1 0x64 DUP3 ADD MSTORE REVERT JUMPDEST PUSH1 0x84 PUSH1 0x40 MLOAD PUSH32 0x8C379A000000000000000000000000000000000000000000000000000000000 DUP2 MSTORE PUSH1 0x20 PUSH1 0x4 DUP3 ADD MSTORE PUSH1 0x23 PUSH1 0x24 DUP3 ADD MSTORE PUSH32 0x45524332303A207472616E7366657220746F20746865207A65726F2061646472 PUSH1 0x44 DUP3 ADD MSTORE PUSH32 0x6573730000000000000000000000000000000000000000000000000000000000 PUSH1 0x64 DUP3 ADD MSTORE REVERT JUMPDEST PUSH1 0x84 PUSH1 0x40 MLOAD PUSH32 0x8C379A000000000000000000000000000000000000000000000000000000000 DUP2 MSTORE PUSH1 0x20 PUSH1 0x4 DUP3 ADD MSTORE PUSH1 0x25 PUSH1 0x24 DUP3 ADD MSTORE PUSH32 0x45524332303A207472616E736665722066726F6D20746865207A65726F206164 PUSH1 0x44 DUP3 ADD MSTORE PUSH32 0x6472657373000000000000000000000000000000000000000000000000000000 PUSH1 0x64 DUP3 ADD MSTORE REVERT JUMPDEST PUSH20 0xFFFFFFFFFFFFFFFFFFFFFFFFFFFFFFFFFFFFFFFF DUP1 SWAP2 AND SWAP2 DUP3 ISZERO PUSH2 0x22D1 JUMPI AND SWAP2 DUP3 ISZERO PUSH2 0x224D JUMPI PUSH1 0x20 PUSH32 0x8C5BE1E5EBEC7D5BD14F71427D1E84F3DD0314C0F7B2291E5B200AC8C7C3B925 SWAP2 DUP4 PUSH1 0x0 MSTORE PUSH1 0x1 DUP3 MSTORE PUSH1 0x40 PUSH1 0x0 KECCAK256 DUP6 PUSH1 0x0 MSTORE DUP3 MSTORE DUP1 PUSH1 0x40 PUSH1 0x0 KECCAK256 SSTORE PUSH1 0x40 MLOAD SWAP1 DUP2 MSTORE LOG3 JUMP JUMPDEST PUSH1 0x84 PUSH1 0x40 MLOAD PUSH32 0x8C379A000000000000000000000000000000000000000000000000000000000 DUP2 MSTORE PUSH1 0x20 PUSH1 0x4 DUP3 ADD MSTORE PUSH1 0x22 PUSH1 0x24 DUP3 ADD MSTORE PUSH32 0x45524332303A20617070726F766520746F20746865207A65726F206164647265 PUSH1 0x44 DUP3 ADD MSTORE PUSH32 0x7373000000000000000000000000000000000000000000000000000000000000 PUSH1 0x64 DUP3 ADD MSTORE REVERT JUMPDEST PUSH1 0x84 PUSH1 0x40 MLOAD PUSH32 0x8C379A000000000000000000000000000000000000000000000000000000000 DUP2 MSTORE PUSH1 0x20 PUSH1 0x4 DUP3 ADD MSTORE PUSH1 0x24 DUP1 DUP3 ADD MSTORE PUSH32 0x45524332303A20617070726F76652066726F6D20746865207A65726F20616464 PUSH1 0x44 DUP3 ADD MSTORE PUSH32 0x7265737300000000000000000000000000000000000000000000000000000000 PUSH1 0x64 DUP3 ADD MSTORE REVERT INVALID LOG2 PUSH5 0x6970667358 0x22 SLT KECCAK256 0x2C 0xCD 0xE5 0x23 PUSH20 0xE82050C255373476C61164E77B1CC8B3BCE60D24 DUP11 CALLDATALOAD 0xC0 LT CODECOPY 0xB8 0xE0 PUSH5 0x736F6C6343 STOP ADDMOD SGT STOP CALLER "},"gasEstimates":{"creation":{"codeDepositCost":"1819600","executionCost":"infinite","totalCost":"infinite"},"external":{"addPlugin(address)":"infinite","allowance(address,address)":"3018","approve(address,uint256)":"24360","balanceOf(address)":"4795","burn(address,uint256)":"infinite","decimals()":"281","decreaseAllowance(address,uint256)":"26987","hasPlugin(address,address)":"3047","increaseAllowance(address,uint256)":"26765","mint(address,uint256)":"infinite","name()":"infinite","ownerPlugin()":"infinite","pluginAt(address,uint256)":"2542","pluginBalanceOf(address,address)":"7336","plugins(address)":"infinite","pluginsCallGasLimit()":"infinite","pluginsCount(address)":"2705","pluginsCountLimit()":"infinite","removeAllPlugins()":"infinite","removePlugin(address)":"infinite","symbol()":"infinite","totalSupply()":"2321","transfer(address,uint256)":"infinite","transferFrom(address,address,uint256)":"infinite"}},"methodIdentifiers":{"addPlugin(address)":"d8867fc8","allowance(address,address)":"dd62ed3e","approve(address,uint256)":"095ea7b3","balanceOf(address)":"70a08231","burn(address,uint256)":"9dc29fac","decimals()":"313ce567","decreaseAllowance(address,uint256)":"a457c2d7","hasPlugin(address,address)":"ed6edc82","increaseAllowance(address,uint256)":"39509351","mint(address,uint256)":"40c10f19","name()":"06fdde03","ownerPlugin()":"8e371bef","pluginAt(address,uint256)":"1945f729","pluginBalanceOf(address,address)":"c1255635","plugins(address)":"4b12e643","pluginsCallGasLimit()":"7ee688cb","pluginsCount(address)":"61728134","pluginsCountLimit()":"53cea5df","removeAllPlugins()":"8b822d88","removePlugin(address)":"a4d95b64","symbol()":"95d89b41","totalSupply()":"18160ddd","transfer(address,uint256)":"a9059cbb","transferFrom(address,address,uint256)":"23b872dd"}},"storageLayout":{"storage":[{"astId":1522,"contract":"contracts/CompanyStock.sol:CompanyStock","label":"_balances","offset":0,"slot":"0","type":"t_mapping(t_address,t_uint256)"},{"astId":1528,"contract":"contracts/CompanyStock.sol:CompanyStock","label":"_allowances","offset":0,"slot":"1","type":"t_mapping(t_address,t_mapping(t_address,t_uint256))"},{"astId":1530,"contract":"contracts/CompanyStock.sol:CompanyStock","label":"_totalSupply","offset":0,"slot":"2","type":"t_uint256"},{"astId":1532,"contract":"contracts/CompanyStock.sol:CompanyStock","label":"_name","offset":0,"slot":"3","type":"t_string_storage"},{"astId":1534,"contract":"contracts/CompanyStock.sol:CompanyStock","label":"_symbol","offset":0,"slot":"4","type":"t_string_storage"},{"astId":620,"contract":"contracts/CompanyStock.sol:CompanyStock","label":"_guard","offset":0,"slot":"5","type":"t_struct(Data)1399_storage"},{"astId":625,"contract":"contracts/CompanyStock.sol:CompanyStock","label":"_plugins","offset":0,"slot":"6","type":"t_mapping(t_address,t_struct(Data)394_storage)"}],"types":{"t_address":{"encoding":"inplace","label":"address","numberOfBytes":"20"},"t_mapping(t_address,t_mapping(t_address,t_uint256))":{"encoding":"mapping","key":"t_address","label":"mapping(address => mapping(address => uint256))","numberOfBytes":"32","value":"t_mapping(t_address,t_uint256)"},"t_mapping(t_address,t_struct(Data)394_storage)":{"encoding":"mapping","key":"t_address","label":"mapping(address => struct AddressSet.Data)","numberOfBytes":"32","value":"t_struct(Data)394_storage"},"t_mapping(t_address,t_uint256)":{"encoding":"mapping","key":"t_address","label":"mapping(address => uint256)","numberOfBytes":"32","value":"t_uint256"},"t_mapping(t_uint256,t_uint256)":{"encoding":"mapping","key":"t_uint256","label":"mapping(uint256 => uint256)","numberOfBytes":"32","value":"t_uint256"},"t_string_storage":{"encoding":"bytes","label":"string","numberOfBytes":"32"},"t_struct(Data)1399_storage":{"encoding":"inplace","label":"struct ReentrancyGuardLib.Data","members":[{"astId":1398,"contract":"contracts/CompanyStock.sol:CompanyStock","label":"_status","offset":0,"slot":"0","type":"t_uint256"}],"numberOfBytes":"32"},"t_struct(Data)13_storage":{"encoding":"inplace","label":"struct AddressArray.Data","members":[{"astId":12,"contract":"contracts/CompanyStock.sol:CompanyStock","label":"_raw","offset":0,"slot":"0","type":"t_mapping(t_uint256,t_uint256)"}],"numberOfBytes":"32"},"t_struct(Data)394_storage":{"encoding":"inplace","label":"struct AddressSet.Data","members":[{"astId":389,"contract":"contracts/CompanyStock.sol:CompanyStock","label":"items","offset":0,"slot":"0","type":"t_struct(Data)13_storage"},{"astId":393,"contract":"contracts/CompanyStock.sol:CompanyStock","label":"lookup","offset":0,"slot":"1","type":"t_mapping(t_address,t_uint256)"}],"numberOfBytes":"64"},"t_uint256":{"encoding":"inplace","label":"uint256","numberOfBytes":"32"}}},"userdoc":{"kind":"user","methods":{"burn(address,uint256)":{"notice":"Burn tokens."},"mint(address,uint256)":{"notice":"Mint tokens."},"ownerPlugin()":{"notice":"The address of the owner plugin."}},"version":1}}}}