{"contracts/DividendDispatcherPlugin.sol":{"DividendDispatcherPlugin":{"abi":[{"inputs":[{"internalType":"string","name":"name_","type":"string"},{"internalType":"string","name":"symbol_","type":"string"},{"internalType":"contract IERC20Plugins","name":"token_","type":"address"}],"stateMutability":"nonpayable","type":"constructor"},{"inputs":[],"name":"AccessDenied","type":"error"},{"inputs":[],"name":"ApproveDisabled","type":"error"},{"inputs":[],"name":"TransferDisabled","type":"error"},{"anonymous":false,"inputs":[{"indexed":true,"internalType":"address","name":"owner","type":"address"},{"indexed":true,"internalType":"address","name":"spender","type":"address"},{"indexed":false,"internalType":"uint256","name":"value","type":"uint256"}],"name":"Approval","type":"event"},{"anonymous":false,"inputs":[{"indexed":true,"internalType":"address","name":"from","type":"address"},{"indexed":true,"internalType":"address","name":"to","type":"address"},{"indexed":false,"internalType":"uint256","name":"value","type":"uint256"}],"name":"Transfer","type":"event"},{"inputs":[{"internalType":"address","name":"owner","type":"address"},{"internalType":"address","name":"spender","type":"address"}],"name":"allowance","outputs":[{"internalType":"uint256","name":"","type":"uint256"}],"stateMutability":"view","type":"function"},{"inputs":[{"internalType":"address","name":"","type":"address"},{"internalType":"uint256","name":"","type":"uint256"}],"name":"approve","outputs":[{"internalType":"bool","name":"","type":"bool"}],"stateMutability":"pure","type":"function"},{"inputs":[{"internalType":"address","name":"account","type":"address"}],"name":"balanceOf","outputs":[{"internalType":"uint256","name":"","type":"uint256"}],"stateMutability":"view","type":"function"},{"inputs":[],"name":"decimals","outputs":[{"internalType":"uint8","name":"","type":"uint8"}],"stateMutability":"view","type":"function"},{"inputs":[{"internalType":"address","name":"","type":"address"},{"internalType":"uint256","name":"","type":"uint256"}],"name":"decreaseAllowance","outputs":[{"internalType":"bool","name":"","type":"bool"}],"stateMutability":"pure","type":"function"},{"inputs":[{"internalType":"address","name":"","type":"address"},{"internalType":"uint256","name":"","type":"uint256"}],"name":"increaseAllowance","outputs":[{"internalType":"bool","name":"","type":"bool"}],"stateMutability":"pure","type":"function"},{"inputs":[{"internalType":"address","name":"","type":"address"}],"name":"ledger","outputs":[{"internalType":"uint256","name":"","type":"uint256"}],"stateMutability":"view","type":"function"},{"inputs":[],"name":"name","outputs":[{"internalType":"string","name":"","type":"string"}],"stateMutability":"view","type":"function"},{"inputs":[{"internalType":"uint256","name":"value","type":"uint256"}],"name":"payDividend","outputs":[],"stateMutability":"nonpayable","type":"function"},{"inputs":[],"name":"symbol","outputs":[{"internalType":"string","name":"","type":"string"}],"stateMutability":"view","type":"function"},{"inputs":[],"name":"token","outputs":[{"internalType":"contract IERC20Plugins","name":"","type":"address"}],"stateMutability":"view","type":"function"},{"inputs":[],"name":"totalSupply","outputs":[{"internalType":"uint256","name":"","type":"uint256"}],"stateMutability":"view","type":"function"},{"inputs":[{"internalType":"address","name":"","type":"address"},{"internalType":"uint256","name":"","type":"uint256"}],"name":"transfer","outputs":[{"internalType":"bool","name":"","type":"bool"}],"stateMutability":"pure","type":"function"},{"inputs":[{"internalType":"address","name":"","type":"address"},{"internalType":"address","name":"","type":"address"},{"internalType":"uint256","name":"","type":"uint256"}],"name":"transferFrom","outputs":[{"internalType":"bool","name":"","type":"bool"}],"stateMutability":"pure","type":"function"},{"inputs":[{"internalType":"address","name":"from","type":"address"},{"internalType":"address","name":"to","type":"address"},{"internalType":"uint256","name":"amount","type":"uint256"}],"name":"updateBalances","outputs":[],"stateMutability":"nonpayable","type":"function"},{"inputs":[{"internalType":"address","name":"","type":"address"}],"name":"users","outputs":[{"internalType":"bool","name":"","type":"bool"}],"stateMutability":"view","type":"function"}],"devdoc":{"events":{"Approval(address,address,uint256)":{"details":"Emitted when the allowance of a `spender` for an `owner` is set by a call to {approve}. `value` is the new allowance."},"Transfer(address,address,uint256)":{"details":"Emitted when `value` tokens are moved from one account (`from`) to another (`to`). Note that `value` may be zero."}},"kind":"dev","methods":{"allowance(address,address)":{"details":"See {IERC20-allowance}."},"balanceOf(address)":{"details":"See {IERC20-balanceOf}."},"decimals()":{"details":"Returns the number of decimals used to get its user representation. For example, if `decimals` equals `2`, a balance of `505` tokens should be displayed to a user as `5.05` (`505 / 10 ** 2`). Tokens usually opt for a value of 18, imitating the relationship between Ether and Wei. This is the default value returned by this function, unless it's overridden. NOTE: This information is only used for _display_ purposes: it in no way affects any of the arithmetic of the contract, including {IERC20-balanceOf} and {IERC20-transfer}."},"name()":{"details":"Returns the name of the token."},"symbol()":{"details":"Returns the symbol of the token, usually a shorter version of the name."},"totalSupply()":{"details":"See {IERC20-totalSupply}."},"updateBalances(address,address,uint256)":{"details":"Updates the balances of two addresses in the plugin as a result of any balance changes. Only the Token contract is allowed to call this function.","params":{"amount":"The amount of tokens transferred","from":"The address from which tokens were transferred","to":"The address to which tokens were transferred"}}},"version":1},"evm":{"bytecode":{"linkReferences":{},"object":"60a0604052346200034f5762000ebd803803806200001d8162000354565b9283398101906060818303126200034f5780516001600160401b03908181116200034f57836200004f9184016200037a565b91602093848201518381116200034f576040916200006f9184016200037a565b9101516001600160a01b03811681036200034f5760805282518281116200024f576003918254916001958684811c9416801562000344575b888510146200032e578190601f94858111620002d8575b508890858311600114620002715760009262000265575b505060001982861b1c191690861b1783555b80519384116200024f5760049586548681811c9116801562000244575b828210146200022f57838111620001e4575b50809285116001146200017657509383949184926000956200016a575b50501b92600019911b1c19161790555b604051610ad09081620003ed823960805181818161011e0152818161047801526106b60152f35b01519350388062000133565b92919084601f1981168860005285600020956000905b89838310620001c95750505010620001ae575b50505050811b01905562000143565b01519060f884600019921b161c19169055388080806200019f565b8587015189559097019694850194889350908101906200018c565b87600052816000208480880160051c82019284891062000225575b0160051c019087905b8281106200021857505062000116565b6000815501879062000208565b92508192620001ff565b602288634e487b7160e01b6000525260246000fd5b90607f169062000104565b634e487b7160e01b600052604160045260246000fd5b015190503880620000d5565b90889350601f19831691876000528a6000209260005b8c828210620002c15750508411620002a8575b505050811b018355620000e7565b015160001983881b60f8161c191690553880806200029a565b8385015186558c9790950194938401930162000287565b90915085600052886000208580850160051c8201928b861062000324575b918a91869594930160051c01915b82811062000314575050620000be565b600081558594508a910162000304565b92508192620002f6565b634e487b7160e01b600052602260045260246000fd5b93607f1693620000a7565b600080fd5b6040519190601f01601f191682016001600160401b038111838210176200024f57604052565b919080601f840112156200034f5782516001600160401b0381116200024f57602090620003b0601f8201601f1916830162000354565b928184528282870101116200034f5760005b818110620003d857508260009394955001015290565b8581018301518482018401528201620003c256fe608060408181526004918236101561001657600080fd5b600092833560e01c91826306fdde031461079057508163095ea7b3146102ef57816318160ddd1461075357816323b872dd146107195781632515994e14610636578163313ce567146105fc57816339509351146102ef57816370a082311461059b5781637a1f1aa91461044c57816395d89b41146102f4578163a457c2d7146102ef578163a87430ba14610288578163a9059cbb1461022557508063dd62ed3e146101a7578063fbfa941f146101465763fc0c546a146100d557600080fd5b3461014257817ffffffffffffffffffffffffffffffffffffffffffffffffffffffffffffffffc360112610142576020905173ffffffffffffffffffffffffffffffffffffffff7f0000000000000000000000000000000000000000000000000000000000000000168152f35b5080fd5b50346101425760207ffffffffffffffffffffffffffffffffffffffffffffffffffffffffffffffffc360112610142578060209273ffffffffffffffffffffffffffffffffffffffff610197610940565b1681526005845220549051908152f35b503461014257807ffffffffffffffffffffffffffffffffffffffffffffffffffffffffffffffffc360112610142576101de610940565b6024359073ffffffffffffffffffffffffffffffffffffffff90818316809303610221579160209491849316825260018552828220908252845220549051908152f35b8480fd5b82843461028557817ffffffffffffffffffffffffffffffffffffffffffffffffffffffffffffffffc360112610285575061025e610940565b50517fa24e573d000000000000000000000000000000000000000000000000000000008152fd5b80fd5b5050346101425760207ffffffffffffffffffffffffffffffffffffffffffffffffffffffffffffffffc3601126101425760ff8160209373ffffffffffffffffffffffffffffffffffffffff6102dc610940565b1681526006855220541690519015158152f35b610968565b83833461014257817ffffffffffffffffffffffffffffffffffffffffffffffffffffffffffffffffc36011261014257805191809380549160019083821c92828516948515610442575b6020958686108114610416578589529081156103d4575060011461037c575b610378878761036e828c0383610a2a565b51918291826108da565b0390f35b81529295507f8a35acfbc15ff81a39ae7d344fd709f28e8600b4aa8c65c6b64bfe7fe36bd19b5b8284106103c157505050826103789461036e9282010194868061035d565b80548685018801529286019281016103a3565b7fffffffffffffffffffffffffffffffffffffffffffffffffffffffffffffff00168887015250505050151560051b830101925061036e82610378868061035d565b6024846022857f4e487b7100000000000000000000000000000000000000000000000000000000835252fd5b93607f169361033e565b919050346105975761045d366109ca565b939073ffffffffffffffffffffffffffffffffffffffff90817f000000000000000000000000000000000000000000000000000000000000000016330361056f57811692838752600660205284872060017fffffffffffffffffffffffffffffffffffffffffffffffffffffffffffffff0082541617905516808652600560205283862054908582039182116105435786526005602052838620558185528285205493840180941161051757508352600560205282205580f35b8460116024927f4e487b7100000000000000000000000000000000000000000000000000000000835252fd5b6024876011857f4e487b7100000000000000000000000000000000000000000000000000000000835252fd5b8285517f4ca88867000000000000000000000000000000000000000000000000000000008152fd5b8280fd5b5050346101425760207ffffffffffffffffffffffffffffffffffffffffffffffffffffffffffffffffc360112610142578060209273ffffffffffffffffffffffffffffffffffffffff6105ed610940565b16815280845220549051908152f35b50503461014257817ffffffffffffffffffffffffffffffffffffffffffffffffffffffffffffffffc360112610142576020905160128152f35b919050346105975760207ffffffffffffffffffffffffffffffffffffffffffffffffffffffffffffffffc360112610597578051917fc1255635000000000000000000000000000000000000000000000000000000008352309083015233602483015260208260448173ffffffffffffffffffffffffffffffffffffffff7f0000000000000000000000000000000000000000000000000000000000000000165afa90811561071057506106e8575080f35b602090813d8111610709575b6106fe8183610a2a565b810103126102855780f35b503d6106f4565b513d84823e3d90fd5b828434610285575061072a366109ca565b505050517fa24e573d000000000000000000000000000000000000000000000000000000008152fd5b50503461014257817ffffffffffffffffffffffffffffffffffffffffffffffffffffffffffffffffc360112610142576020906002549051908152f35b929150346108d657837ffffffffffffffffffffffffffffffffffffffffffffffffffffffffffffffffc3601126108d657600354600181811c91869082811680156108cc575b60209586861082146108a057508488529081156108605750600114610807575b610378868661036e828b0383610a2a565b929550600383527fc2575a0e9e593c00f959f8c92f12db2869c3395a3b0502d05e2516446f71f85b5b82841061084d57505050826103789461036e9282010194386107f6565b8054868501880152928601928101610830565b7fffffffffffffffffffffffffffffffffffffffffffffffffffffffffffffff001687860152505050151560051b830101925061036e82610378386107f6565b8360226024927f4e487b7100000000000000000000000000000000000000000000000000000000835252fd5b93607f16936107d6565b8380fd5b60208082528251818301819052939260005b85811061092c575050507fffffffffffffffffffffffffffffffffffffffffffffffffffffffffffffffe0601f8460006040809697860101520116010190565b8181018301518482016040015282016108ec565b6004359073ffffffffffffffffffffffffffffffffffffffff8216820361096357565b600080fd5b346109635760407ffffffffffffffffffffffffffffffffffffffffffffffffffffffffffffffffc3601126109635761099f610940565b5060046040517feb60c2c4000000000000000000000000000000000000000000000000000000008152fd5b7ffffffffffffffffffffffffffffffffffffffffffffffffffffffffffffffffc60609101126109635773ffffffffffffffffffffffffffffffffffffffff90600435828116810361096357916024359081168103610963579060443590565b90601f7fffffffffffffffffffffffffffffffffffffffffffffffffffffffffffffffe0910116810190811067ffffffffffffffff821117610a6b57604052565b7f4e487b7100000000000000000000000000000000000000000000000000000000600052604160045260246000fdfea2646970667358221220bd3ed91222b3ef00446c364834b028da6e5227a9a98e8c684a4cd46c6ecccd7864736f6c63430008130033","opcodes":"PUSH1 0xA0 PUSH1 0x40 MSTORE CALLVALUE PUSH3 0x34F JUMPI PUSH3 0xEBD DUP1 CODESIZE SUB DUP1 PUSH3 0x1D DUP2 PUSH3 0x354 JUMP JUMPDEST SWAP3 DUP4 CODECOPY DUP2 ADD SWAP1 PUSH1 0x60 DUP2 DUP4 SUB SLT PUSH3 0x34F JUMPI DUP1 MLOAD PUSH1 0x1 PUSH1 0x1 PUSH1 0x40 SHL SUB SWAP1 DUP2 DUP2 GT PUSH3 0x34F JUMPI DUP4 PUSH3 0x4F SWAP2 DUP5 ADD PUSH3 0x37A JUMP JUMPDEST SWAP2 PUSH1 0x20 SWAP4 DUP5 DUP3 ADD MLOAD DUP4 DUP2 GT PUSH3 0x34F JUMPI PUSH1 0x40 SWAP2 PUSH3 0x6F SWAP2 DUP5 ADD PUSH3 0x37A JUMP JUMPDEST SWAP2 ADD MLOAD PUSH1 0x1 PUSH1 0x1 PUSH1 0xA0 SHL SUB DUP2 AND DUP2 SUB PUSH3 0x34F JUMPI PUSH1 0x80 MSTORE DUP3 MLOAD DUP3 DUP2 GT PUSH3 0x24F JUMPI PUSH1 0x3 SWAP2 DUP3 SLOAD SWAP2 PUSH1 0x1 SWAP6 DUP7 DUP5 DUP2 SHR SWAP5 AND DUP1 ISZERO PUSH3 0x344 JUMPI JUMPDEST DUP9 DUP6 LT EQ PUSH3 0x32E JUMPI DUP2 SWAP1 PUSH1 0x1F SWAP5 DUP6 DUP2 GT PUSH3 0x2D8 JUMPI JUMPDEST POP DUP9 SWAP1 DUP6 DUP4 GT PUSH1 0x1 EQ PUSH3 0x271 JUMPI PUSH1 0x0 SWAP3 PUSH3 0x265 JUMPI JUMPDEST POP POP PUSH1 0x0 NOT DUP3 DUP7 SHL SHR NOT AND SWAP1 DUP7 SHL OR DUP4 SSTORE JUMPDEST DUP1 MLOAD SWAP4 DUP5 GT PUSH3 0x24F JUMPI PUSH1 0x4 SWAP6 DUP7 SLOAD DUP7 DUP2 DUP2 SHR SWAP2 AND DUP1 ISZERO PUSH3 0x244 JUMPI JUMPDEST DUP3 DUP3 LT EQ PUSH3 0x22F JUMPI DUP4 DUP2 GT PUSH3 0x1E4 JUMPI JUMPDEST POP DUP1 SWAP3 DUP6 GT PUSH1 0x1 EQ PUSH3 0x176 JUMPI POP SWAP4 DUP4 SWAP5 SWAP2 DUP5 SWAP3 PUSH1 0x0 SWAP6 PUSH3 0x16A JUMPI JUMPDEST POP POP SHL SWAP3 PUSH1 0x0 NOT SWAP2 SHL SHR NOT AND OR SWAP1 SSTORE JUMPDEST PUSH1 0x40 MLOAD PUSH2 0xAD0 SWAP1 DUP2 PUSH3 0x3ED DUP3 CODECOPY PUSH1 0x80 MLOAD DUP2 DUP2 DUP2 PUSH2 0x11E ADD MSTORE DUP2 DUP2 PUSH2 0x478 ADD MSTORE PUSH2 0x6B6 ADD MSTORE RETURN JUMPDEST ADD MLOAD SWAP4 POP CODESIZE DUP1 PUSH3 0x133 JUMP JUMPDEST SWAP3 SWAP2 SWAP1 DUP5 PUSH1 0x1F NOT DUP2 AND DUP9 PUSH1 0x0 MSTORE DUP6 PUSH1 0x0 KECCAK256 SWAP6 PUSH1 0x0 SWAP1 JUMPDEST DUP10 DUP4 DUP4 LT PUSH3 0x1C9 JUMPI POP POP POP LT PUSH3 0x1AE JUMPI JUMPDEST POP POP POP POP DUP2 SHL ADD SWAP1 SSTORE PUSH3 0x143 JUMP JUMPDEST ADD MLOAD SWAP1 PUSH1 0xF8 DUP5 PUSH1 0x0 NOT SWAP3 SHL AND SHR NOT AND SWAP1 SSTORE CODESIZE DUP1 DUP1 DUP1 PUSH3 0x19F JUMP JUMPDEST DUP6 DUP8 ADD MLOAD DUP10 SSTORE SWAP1 SWAP8 ADD SWAP7 SWAP5 DUP6 ADD SWAP5 DUP9 SWAP4 POP SWAP1 DUP2 ADD SWAP1 PUSH3 0x18C JUMP JUMPDEST DUP8 PUSH1 0x0 MSTORE DUP2 PUSH1 0x0 KECCAK256 DUP5 DUP1 DUP9 ADD PUSH1 0x5 SHR DUP3 ADD SWAP3 DUP5 DUP10 LT PUSH3 0x225 JUMPI JUMPDEST ADD PUSH1 0x5 SHR ADD SWAP1 DUP8 SWAP1 JUMPDEST DUP3 DUP2 LT PUSH3 0x218 JUMPI POP POP PUSH3 0x116 JUMP JUMPDEST PUSH1 0x0 DUP2 SSTORE ADD DUP8 SWAP1 PUSH3 0x208 JUMP JUMPDEST SWAP3 POP DUP2 SWAP3 PUSH3 0x1FF JUMP JUMPDEST PUSH1 0x22 DUP9 PUSH4 0x4E487B71 PUSH1 0xE0 SHL PUSH1 0x0 MSTORE MSTORE PUSH1 0x24 PUSH1 0x0 REVERT JUMPDEST SWAP1 PUSH1 0x7F AND SWAP1 PUSH3 0x104 JUMP JUMPDEST PUSH4 0x4E487B71 PUSH1 0xE0 SHL PUSH1 0x0 MSTORE PUSH1 0x41 PUSH1 0x4 MSTORE PUSH1 0x24 PUSH1 0x0 REVERT JUMPDEST ADD MLOAD SWAP1 POP CODESIZE DUP1 PUSH3 0xD5 JUMP JUMPDEST SWAP1 DUP9 SWAP4 POP PUSH1 0x1F NOT DUP4 AND SWAP2 DUP8 PUSH1 0x0 MSTORE DUP11 PUSH1 0x0 KECCAK256 SWAP3 PUSH1 0x0 JUMPDEST DUP13 DUP3 DUP3 LT PUSH3 0x2C1 JUMPI POP POP DUP5 GT PUSH3 0x2A8 JUMPI JUMPDEST POP POP POP DUP2 SHL ADD DUP4 SSTORE PUSH3 0xE7 JUMP JUMPDEST ADD MLOAD PUSH1 0x0 NOT DUP4 DUP9 SHL PUSH1 0xF8 AND SHR NOT AND SWAP1 SSTORE CODESIZE DUP1 DUP1 PUSH3 0x29A JUMP JUMPDEST DUP4 DUP6 ADD MLOAD DUP7 SSTORE DUP13 SWAP8 SWAP1 SWAP6 ADD SWAP5 SWAP4 DUP5 ADD SWAP4 ADD PUSH3 0x287 JUMP JUMPDEST SWAP1 SWAP2 POP DUP6 PUSH1 0x0 MSTORE DUP9 PUSH1 0x0 KECCAK256 DUP6 DUP1 DUP6 ADD PUSH1 0x5 SHR DUP3 ADD SWAP3 DUP12 DUP7 LT PUSH3 0x324 JUMPI JUMPDEST SWAP2 DUP11 SWAP2 DUP7 SWAP6 SWAP5 SWAP4 ADD PUSH1 0x5 SHR ADD SWAP2 JUMPDEST DUP3 DUP2 LT PUSH3 0x314 JUMPI POP POP PUSH3 0xBE JUMP JUMPDEST PUSH1 0x0 DUP2 SSTORE DUP6 SWAP5 POP DUP11 SWAP2 ADD PUSH3 0x304 JUMP JUMPDEST SWAP3 POP DUP2 SWAP3 PUSH3 0x2F6 JUMP JUMPDEST PUSH4 0x4E487B71 PUSH1 0xE0 SHL PUSH1 0x0 MSTORE PUSH1 0x22 PUSH1 0x4 MSTORE PUSH1 0x24 PUSH1 0x0 REVERT JUMPDEST SWAP4 PUSH1 0x7F AND SWAP4 PUSH3 0xA7 JUMP JUMPDEST PUSH1 0x0 DUP1 REVERT JUMPDEST PUSH1 0x40 MLOAD SWAP2 SWAP1 PUSH1 0x1F ADD PUSH1 0x1F NOT AND DUP3 ADD PUSH1 0x1 PUSH1 0x1 PUSH1 0x40 SHL SUB DUP2 GT DUP4 DUP3 LT OR PUSH3 0x24F JUMPI PUSH1 0x40 MSTORE JUMP JUMPDEST SWAP2 SWAP1 DUP1 PUSH1 0x1F DUP5 ADD SLT ISZERO PUSH3 0x34F JUMPI DUP3 MLOAD PUSH1 0x1 PUSH1 0x1 PUSH1 0x40 SHL SUB DUP2 GT PUSH3 0x24F JUMPI PUSH1 0x20 SWAP1 PUSH3 0x3B0 PUSH1 0x1F DUP3 ADD PUSH1 0x1F NOT AND DUP4 ADD PUSH3 0x354 JUMP JUMPDEST SWAP3 DUP2 DUP5 MSTORE DUP3 DUP3 DUP8 ADD ADD GT PUSH3 0x34F JUMPI PUSH1 0x0 JUMPDEST DUP2 DUP2 LT PUSH3 0x3D8 JUMPI POP DUP3 PUSH1 0x0 SWAP4 SWAP5 SWAP6 POP ADD ADD MSTORE SWAP1 JUMP JUMPDEST DUP6 DUP2 ADD DUP4 ADD MLOAD DUP5 DUP3 ADD DUP5 ADD MSTORE DUP3 ADD PUSH3 0x3C2 JUMP INVALID PUSH1 0x80 PUSH1 0x40 DUP2 DUP2 MSTORE PUSH1 0x4 SWAP2 DUP3 CALLDATASIZE LT ISZERO PUSH2 0x16 JUMPI PUSH1 0x0 DUP1 REVERT JUMPDEST PUSH1 0x0 SWAP3 DUP4 CALLDATALOAD PUSH1 0xE0 SHR SWAP2 DUP3 PUSH4 0x6FDDE03 EQ PUSH2 0x790 JUMPI POP DUP2 PUSH4 0x95EA7B3 EQ PUSH2 0x2EF JUMPI DUP2 PUSH4 0x18160DDD EQ PUSH2 0x753 JUMPI DUP2 PUSH4 0x23B872DD EQ PUSH2 0x719 JUMPI DUP2 PUSH4 0x2515994E EQ PUSH2 0x636 JUMPI DUP2 PUSH4 0x313CE567 EQ PUSH2 0x5FC JUMPI DUP2 PUSH4 0x39509351 EQ PUSH2 0x2EF JUMPI DUP2 PUSH4 0x70A08231 EQ PUSH2 0x59B JUMPI DUP2 PUSH4 0x7A1F1AA9 EQ PUSH2 0x44C JUMPI DUP2 PUSH4 0x95D89B41 EQ PUSH2 0x2F4 JUMPI DUP2 PUSH4 0xA457C2D7 EQ PUSH2 0x2EF JUMPI DUP2 PUSH4 0xA87430BA EQ PUSH2 0x288 JUMPI DUP2 PUSH4 0xA9059CBB EQ PUSH2 0x225 JUMPI POP DUP1 PUSH4 0xDD62ED3E EQ PUSH2 0x1A7 JUMPI DUP1 PUSH4 0xFBFA941F EQ PUSH2 0x146 JUMPI PUSH4 0xFC0C546A EQ PUSH2 0xD5 JUMPI PUSH1 0x0 DUP1 REVERT JUMPDEST CALLVALUE PUSH2 0x142 JUMPI DUP2 PUSH32 0xFFFFFFFFFFFFFFFFFFFFFFFFFFFFFFFFFFFFFFFFFFFFFFFFFFFFFFFFFFFFFFFC CALLDATASIZE ADD SLT PUSH2 0x142 JUMPI PUSH1 0x20 SWAP1 MLOAD PUSH20 0xFFFFFFFFFFFFFFFFFFFFFFFFFFFFFFFFFFFFFFFF PUSH32 0x0 AND DUP2 MSTORE RETURN JUMPDEST POP DUP1 REVERT JUMPDEST POP CALLVALUE PUSH2 0x142 JUMPI PUSH1 0x20 PUSH32 0xFFFFFFFFFFFFFFFFFFFFFFFFFFFFFFFFFFFFFFFFFFFFFFFFFFFFFFFFFFFFFFFC CALLDATASIZE ADD SLT PUSH2 0x142 JUMPI DUP1 PUSH1 0x20 SWAP3 PUSH20 0xFFFFFFFFFFFFFFFFFFFFFFFFFFFFFFFFFFFFFFFF PUSH2 0x197 PUSH2 0x940 JUMP JUMPDEST AND DUP2 MSTORE PUSH1 0x5 DUP5 MSTORE KECCAK256 SLOAD SWAP1 MLOAD SWAP1 DUP2 MSTORE RETURN JUMPDEST POP CALLVALUE PUSH2 0x142 JUMPI DUP1 PUSH32 0xFFFFFFFFFFFFFFFFFFFFFFFFFFFFFFFFFFFFFFFFFFFFFFFFFFFFFFFFFFFFFFFC CALLDATASIZE ADD SLT PUSH2 0x142 JUMPI PUSH2 0x1DE PUSH2 0x940 JUMP JUMPDEST PUSH1 0x24 CALLDATALOAD SWAP1 PUSH20 0xFFFFFFFFFFFFFFFFFFFFFFFFFFFFFFFFFFFFFFFF SWAP1 DUP2 DUP4 AND DUP1 SWAP4 SUB PUSH2 0x221 JUMPI SWAP2 PUSH1 0x20 SWAP5 SWAP2 DUP5 SWAP4 AND DUP3 MSTORE PUSH1 0x1 DUP6 MSTORE DUP3 DUP3 KECCAK256 SWAP1 DUP3 MSTORE DUP5 MSTORE KECCAK256 SLOAD SWAP1 MLOAD SWAP1 DUP2 MSTORE RETURN JUMPDEST DUP5 DUP1 REVERT JUMPDEST DUP3 DUP5 CALLVALUE PUSH2 0x285 JUMPI DUP2 PUSH32 0xFFFFFFFFFFFFFFFFFFFFFFFFFFFFFFFFFFFFFFFFFFFFFFFFFFFFFFFFFFFFFFFC CALLDATASIZE ADD SLT PUSH2 0x285 JUMPI POP PUSH2 0x25E PUSH2 0x940 JUMP JUMPDEST POP MLOAD PUSH32 0xA24E573D00000000000000000000000000000000000000000000000000000000 DUP2 MSTORE REVERT JUMPDEST DUP1 REVERT JUMPDEST POP POP CALLVALUE PUSH2 0x142 JUMPI PUSH1 0x20 PUSH32 0xFFFFFFFFFFFFFFFFFFFFFFFFFFFFFFFFFFFFFFFFFFFFFFFFFFFFFFFFFFFFFFFC CALLDATASIZE ADD SLT PUSH2 0x142 JUMPI PUSH1 0xFF DUP2 PUSH1 0x20 SWAP4 PUSH20 0xFFFFFFFFFFFFFFFFFFFFFFFFFFFFFFFFFFFFFFFF PUSH2 0x2DC PUSH2 0x940 JUMP JUMPDEST AND DUP2 MSTORE PUSH1 0x6 DUP6 MSTORE KECCAK256 SLOAD AND SWAP1 MLOAD SWAP1 ISZERO ISZERO DUP2 MSTORE RETURN JUMPDEST PUSH2 0x968 JUMP JUMPDEST DUP4 DUP4 CALLVALUE PUSH2 0x142 JUMPI DUP2 PUSH32 0xFFFFFFFFFFFFFFFFFFFFFFFFFFFFFFFFFFFFFFFFFFFFFFFFFFFFFFFFFFFFFFFC CALLDATASIZE ADD SLT PUSH2 0x142 JUMPI DUP1 MLOAD SWAP2 DUP1 SWAP4 DUP1 SLOAD SWAP2 PUSH1 0x1 SWAP1 DUP4 DUP3 SHR SWAP3 DUP3 DUP6 AND SWAP5 DUP6 ISZERO PUSH2 0x442 JUMPI JUMPDEST PUSH1 0x20 SWAP6 DUP7 DUP7 LT DUP2 EQ PUSH2 0x416 JUMPI DUP6 DUP10 MSTORE SWAP1 DUP2 ISZERO PUSH2 0x3D4 JUMPI POP PUSH1 0x1 EQ PUSH2 0x37C JUMPI JUMPDEST PUSH2 0x378 DUP8 DUP8 PUSH2 0x36E DUP3 DUP13 SUB DUP4 PUSH2 0xA2A JUMP JUMPDEST MLOAD SWAP2 DUP3 SWAP2 DUP3 PUSH2 0x8DA JUMP JUMPDEST SUB SWAP1 RETURN JUMPDEST DUP2 MSTORE SWAP3 SWAP6 POP PUSH32 0x8A35ACFBC15FF81A39AE7D344FD709F28E8600B4AA8C65C6B64BFE7FE36BD19B JUMPDEST DUP3 DUP5 LT PUSH2 0x3C1 JUMPI POP POP POP DUP3 PUSH2 0x378 SWAP5 PUSH2 0x36E SWAP3 DUP3 ADD ADD SWAP5 DUP7 DUP1 PUSH2 0x35D JUMP JUMPDEST DUP1 SLOAD DUP7 DUP6 ADD DUP9 ADD MSTORE SWAP3 DUP7 ADD SWAP3 DUP2 ADD PUSH2 0x3A3 JUMP JUMPDEST PUSH32 0xFFFFFFFFFFFFFFFFFFFFFFFFFFFFFFFFFFFFFFFFFFFFFFFFFFFFFFFFFFFFFF00 AND DUP9 DUP8 ADD MSTORE POP POP POP POP ISZERO ISZERO PUSH1 0x5 SHL DUP4 ADD ADD SWAP3 POP PUSH2 0x36E DUP3 PUSH2 0x378 DUP7 DUP1 PUSH2 0x35D JUMP JUMPDEST PUSH1 0x24 DUP5 PUSH1 0x22 DUP6 PUSH32 0x4E487B7100000000000000000000000000000000000000000000000000000000 DUP4 MSTORE MSTORE REVERT JUMPDEST SWAP4 PUSH1 0x7F AND SWAP4 PUSH2 0x33E JUMP JUMPDEST SWAP2 SWAP1 POP CALLVALUE PUSH2 0x597 JUMPI PUSH2 0x45D CALLDATASIZE PUSH2 0x9CA JUMP JUMPDEST SWAP4 SWAP1 PUSH20 0xFFFFFFFFFFFFFFFFFFFFFFFFFFFFFFFFFFFFFFFF SWAP1 DUP2 PUSH32 0x0 AND CALLER SUB PUSH2 0x56F JUMPI DUP2 AND SWAP3 DUP4 DUP8 MSTORE PUSH1 0x6 PUSH1 0x20 MSTORE DUP5 DUP8 KECCAK256 PUSH1 0x1 PUSH32 0xFFFFFFFFFFFFFFFFFFFFFFFFFFFFFFFFFFFFFFFFFFFFFFFFFFFFFFFFFFFFFF00 DUP3 SLOAD AND OR SWAP1 SSTORE AND DUP1 DUP7 MSTORE PUSH1 0x5 PUSH1 0x20 MSTORE DUP4 DUP7 KECCAK256 SLOAD SWAP1 DUP6 DUP3 SUB SWAP2 DUP3 GT PUSH2 0x543 JUMPI DUP7 MSTORE PUSH1 0x5 PUSH1 0x20 MSTORE DUP4 DUP7 KECCAK256 SSTORE DUP2 DUP6 MSTORE DUP3 DUP6 KECCAK256 SLOAD SWAP4 DUP5 ADD DUP1 SWAP5 GT PUSH2 0x517 JUMPI POP DUP4 MSTORE PUSH1 0x5 PUSH1 0x20 MSTORE DUP3 KECCAK256 SSTORE DUP1 RETURN JUMPDEST DUP5 PUSH1 0x11 PUSH1 0x24 SWAP3 PUSH32 0x4E487B7100000000000000000000000000000000000000000000000000000000 DUP4 MSTORE MSTORE REVERT JUMPDEST PUSH1 0x24 DUP8 PUSH1 0x11 DUP6 PUSH32 0x4E487B7100000000000000000000000000000000000000000000000000000000 DUP4 MSTORE MSTORE REVERT JUMPDEST DUP3 DUP6 MLOAD PUSH32 0x4CA8886700000000000000000000000000000000000000000000000000000000 DUP2 MSTORE REVERT JUMPDEST DUP3 DUP1 REVERT JUMPDEST POP POP CALLVALUE PUSH2 0x142 JUMPI PUSH1 0x20 PUSH32 0xFFFFFFFFFFFFFFFFFFFFFFFFFFFFFFFFFFFFFFFFFFFFFFFFFFFFFFFFFFFFFFFC CALLDATASIZE ADD SLT PUSH2 0x142 JUMPI DUP1 PUSH1 0x20 SWAP3 PUSH20 0xFFFFFFFFFFFFFFFFFFFFFFFFFFFFFFFFFFFFFFFF PUSH2 0x5ED PUSH2 0x940 JUMP JUMPDEST AND DUP2 MSTORE DUP1 DUP5 MSTORE KECCAK256 SLOAD SWAP1 MLOAD SWAP1 DUP2 MSTORE RETURN JUMPDEST POP POP CALLVALUE PUSH2 0x142 JUMPI DUP2 PUSH32 0xFFFFFFFFFFFFFFFFFFFFFFFFFFFFFFFFFFFFFFFFFFFFFFFFFFFFFFFFFFFFFFFC CALLDATASIZE ADD SLT PUSH2 0x142 JUMPI PUSH1 0x20 SWAP1 MLOAD PUSH1 0x12 DUP2 MSTORE RETURN JUMPDEST SWAP2 SWAP1 POP CALLVALUE PUSH2 0x597 JUMPI PUSH1 0x20 PUSH32 0xFFFFFFFFFFFFFFFFFFFFFFFFFFFFFFFFFFFFFFFFFFFFFFFFFFFFFFFFFFFFFFFC CALLDATASIZE ADD SLT PUSH2 0x597 JUMPI DUP1 MLOAD SWAP2 PUSH32 0xC125563500000000000000000000000000000000000000000000000000000000 DUP4 MSTORE ADDRESS SWAP1 DUP4 ADD MSTORE CALLER PUSH1 0x24 DUP4 ADD MSTORE PUSH1 0x20 DUP3 PUSH1 0x44 DUP2 PUSH20 0xFFFFFFFFFFFFFFFFFFFFFFFFFFFFFFFFFFFFFFFF PUSH32 0x0 AND GAS STATICCALL SWAP1 DUP2 ISZERO PUSH2 0x710 JUMPI POP PUSH2 0x6E8 JUMPI POP DUP1 RETURN JUMPDEST PUSH1 0x20 SWAP1 DUP2 RETURNDATASIZE DUP2 GT PUSH2 0x709 JUMPI JUMPDEST PUSH2 0x6FE DUP2 DUP4 PUSH2 0xA2A JUMP JUMPDEST DUP2 ADD SUB SLT PUSH2 0x285 JUMPI DUP1 RETURN JUMPDEST POP RETURNDATASIZE PUSH2 0x6F4 JUMP JUMPDEST MLOAD RETURNDATASIZE DUP5 DUP3 RETURNDATACOPY RETURNDATASIZE SWAP1 REVERT JUMPDEST DUP3 DUP5 CALLVALUE PUSH2 0x285 JUMPI POP PUSH2 0x72A CALLDATASIZE PUSH2 0x9CA JUMP JUMPDEST POP POP POP MLOAD PUSH32 0xA24E573D00000000000000000000000000000000000000000000000000000000 DUP2 MSTORE REVERT JUMPDEST POP POP CALLVALUE PUSH2 0x142 JUMPI DUP2 PUSH32 0xFFFFFFFFFFFFFFFFFFFFFFFFFFFFFFFFFFFFFFFFFFFFFFFFFFFFFFFFFFFFFFFC CALLDATASIZE ADD SLT PUSH2 0x142 JUMPI PUSH1 0x20 SWAP1 PUSH1 0x2 SLOAD SWAP1 MLOAD SWAP1 DUP2 MSTORE RETURN JUMPDEST SWAP3 SWAP2 POP CALLVALUE PUSH2 0x8D6 JUMPI DUP4 PUSH32 0xFFFFFFFFFFFFFFFFFFFFFFFFFFFFFFFFFFFFFFFFFFFFFFFFFFFFFFFFFFFFFFFC CALLDATASIZE ADD SLT PUSH2 0x8D6 JUMPI PUSH1 0x3 SLOAD PUSH1 0x1 DUP2 DUP2 SHR SWAP2 DUP7 SWAP1 DUP3 DUP2 AND DUP1 ISZERO PUSH2 0x8CC JUMPI JUMPDEST PUSH1 0x20 SWAP6 DUP7 DUP7 LT DUP3 EQ PUSH2 0x8A0 JUMPI POP DUP5 DUP9 MSTORE SWAP1 DUP2 ISZERO PUSH2 0x860 JUMPI POP PUSH1 0x1 EQ PUSH2 0x807 JUMPI JUMPDEST PUSH2 0x378 DUP7 DUP7 PUSH2 0x36E DUP3 DUP12 SUB DUP4 PUSH2 0xA2A JUMP JUMPDEST SWAP3 SWAP6 POP PUSH1 0x3 DUP4 MSTORE PUSH32 0xC2575A0E9E593C00F959F8C92F12DB2869C3395A3B0502D05E2516446F71F85B JUMPDEST DUP3 DUP5 LT PUSH2 0x84D JUMPI POP POP POP DUP3 PUSH2 0x378 SWAP5 PUSH2 0x36E SWAP3 DUP3 ADD ADD SWAP5 CODESIZE PUSH2 0x7F6 JUMP JUMPDEST DUP1 SLOAD DUP7 DUP6 ADD DUP9 ADD MSTORE SWAP3 DUP7 ADD SWAP3 DUP2 ADD PUSH2 0x830 JUMP JUMPDEST PUSH32 0xFFFFFFFFFFFFFFFFFFFFFFFFFFFFFFFFFFFFFFFFFFFFFFFFFFFFFFFFFFFFFF00 AND DUP8 DUP7 ADD MSTORE POP POP POP ISZERO ISZERO PUSH1 0x5 SHL DUP4 ADD ADD SWAP3 POP PUSH2 0x36E DUP3 PUSH2 0x378 CODESIZE PUSH2 0x7F6 JUMP JUMPDEST DUP4 PUSH1 0x22 PUSH1 0x24 SWAP3 PUSH32 0x4E487B7100000000000000000000000000000000000000000000000000000000 DUP4 MSTORE MSTORE REVERT JUMPDEST SWAP4 PUSH1 0x7F AND SWAP4 PUSH2 0x7D6 JUMP JUMPDEST DUP4 DUP1 REVERT JUMPDEST PUSH1 0x20 DUP1 DUP3 MSTORE DUP3 MLOAD DUP2 DUP4 ADD DUP2 SWAP1 MSTORE SWAP4 SWAP3 PUSH1 0x0 JUMPDEST DUP6 DUP2 LT PUSH2 0x92C JUMPI POP POP POP PUSH32 0xFFFFFFFFFFFFFFFFFFFFFFFFFFFFFFFFFFFFFFFFFFFFFFFFFFFFFFFFFFFFFFE0 PUSH1 0x1F DUP5 PUSH1 0x0 PUSH1 0x40 DUP1 SWAP7 SWAP8 DUP7 ADD ADD MSTORE ADD AND ADD ADD SWAP1 JUMP JUMPDEST DUP2 DUP2 ADD DUP4 ADD MLOAD DUP5 DUP3 ADD PUSH1 0x40 ADD MSTORE DUP3 ADD PUSH2 0x8EC JUMP JUMPDEST PUSH1 0x4 CALLDATALOAD SWAP1 PUSH20 0xFFFFFFFFFFFFFFFFFFFFFFFFFFFFFFFFFFFFFFFF DUP3 AND DUP3 SUB PUSH2 0x963 JUMPI JUMP JUMPDEST PUSH1 0x0 DUP1 REVERT JUMPDEST CALLVALUE PUSH2 0x963 JUMPI PUSH1 0x40 PUSH32 0xFFFFFFFFFFFFFFFFFFFFFFFFFFFFFFFFFFFFFFFFFFFFFFFFFFFFFFFFFFFFFFFC CALLDATASIZE ADD SLT PUSH2 0x963 JUMPI PUSH2 0x99F PUSH2 0x940 JUMP JUMPDEST POP PUSH1 0x4 PUSH1 0x40 MLOAD PUSH32 0xEB60C2C400000000000000000000000000000000000000000000000000000000 DUP2 MSTORE REVERT JUMPDEST PUSH32 0xFFFFFFFFFFFFFFFFFFFFFFFFFFFFFFFFFFFFFFFFFFFFFFFFFFFFFFFFFFFFFFFC PUSH1 0x60 SWAP2 ADD SLT PUSH2 0x963 JUMPI PUSH20 0xFFFFFFFFFFFFFFFFFFFFFFFFFFFFFFFFFFFFFFFF SWAP1 PUSH1 0x4 CALLDATALOAD DUP3 DUP2 AND DUP2 SUB PUSH2 0x963 JUMPI SWAP2 PUSH1 0x24 CALLDATALOAD SWAP1 DUP2 AND DUP2 SUB PUSH2 0x963 JUMPI SWAP1 PUSH1 0x44 CALLDATALOAD SWAP1 JUMP JUMPDEST SWAP1 PUSH1 0x1F PUSH32 0xFFFFFFFFFFFFFFFFFFFFFFFFFFFFFFFFFFFFFFFFFFFFFFFFFFFFFFFFFFFFFFE0 SWAP2 ADD AND DUP2 ADD SWAP1 DUP2 LT PUSH8 0xFFFFFFFFFFFFFFFF DUP3 GT OR PUSH2 0xA6B JUMPI PUSH1 0x40 MSTORE JUMP JUMPDEST PUSH32 0x4E487B7100000000000000000000000000000000000000000000000000000000 PUSH1 0x0 MSTORE PUSH1 0x41 PUSH1 0x4 MSTORE PUSH1 0x24 PUSH1 0x0 REVERT INVALID LOG2 PUSH5 0x6970667358 0x22 SLT KECCAK256 0xBD RETURNDATACOPY 0xD9 SLT 0x22 0xB3 0xEF STOP PREVRANDAO PUSH13 0x364834B028DA6E5227A9A98E8C PUSH9 0x4A4CD46C6ECCCD7864 PUSH20 0x6F6C634300081300330000000000000000000000 "},"gasEstimates":{"creation":{"codeDepositCost":"553600","executionCost":"infinite","totalCost":"infinite"},"external":{"allowance(address,address)":"2802","approve(address,uint256)":"264","balanceOf(address)":"2555","decimals()":"281","decreaseAllowance(address,uint256)":"462","increaseAllowance(address,uint256)":"374","ledger(address)":"2709","name()":"infinite","payDividend(uint256)":"infinite","symbol()":"infinite","token()":"infinite","totalSupply()":"2321","transfer(address,uint256)":"496","transferFrom(address,address,uint256)":"357","updateBalances(address,address,uint256)":"infinite","users(address)":"2655"},"internal":{"_updateBalances(address,address,uint256)":"infinite"}},"methodIdentifiers":{"allowance(address,address)":"dd62ed3e","approve(address,uint256)":"095ea7b3","balanceOf(address)":"70a08231","decimals()":"313ce567","decreaseAllowance(address,uint256)":"a457c2d7","increaseAllowance(address,uint256)":"39509351","ledger(address)":"fbfa941f","name()":"06fdde03","payDividend(uint256)":"2515994e","symbol()":"95d89b41","token()":"fc0c546a","totalSupply()":"18160ddd","transfer(address,uint256)":"a9059cbb","transferFrom(address,address,uint256)":"23b872dd","updateBalances(address,address,uint256)":"7a1f1aa9","users(address)":"a87430ba"}},"storageLayout":{"storage":[{"astId":1522,"contract":"contracts/DividendDispatcherPlugin.sol:DividendDispatcherPlugin","label":"_balances","offset":0,"slot":"0","type":"t_mapping(t_address,t_uint256)"},{"astId":1528,"contract":"contracts/DividendDispatcherPlugin.sol:DividendDispatcherPlugin","label":"_allowances","offset":0,"slot":"1","type":"t_mapping(t_address,t_mapping(t_address,t_uint256))"},{"astId":1530,"contract":"contracts/DividendDispatcherPlugin.sol:DividendDispatcherPlugin","label":"_totalSupply","offset":0,"slot":"2","type":"t_uint256"},{"astId":1532,"contract":"contracts/DividendDispatcherPlugin.sol:DividendDispatcherPlugin","label":"_name","offset":0,"slot":"3","type":"t_string_storage"},{"astId":1534,"contract":"contracts/DividendDispatcherPlugin.sol:DividendDispatcherPlugin","label":"_symbol","offset":0,"slot":"4","type":"t_string_storage"},{"astId":2334,"contract":"contracts/DividendDispatcherPlugin.sol:DividendDispatcherPlugin","label":"ledger","offset":0,"slot":"5","type":"t_mapping(t_address,t_uint256)"},{"astId":2338,"contract":"contracts/DividendDispatcherPlugin.sol:DividendDispatcherPlugin","label":"users","offset":0,"slot":"6","type":"t_mapping(t_address,t_bool)"}],"types":{"t_address":{"encoding":"inplace","label":"address","numberOfBytes":"20"},"t_bool":{"encoding":"inplace","label":"bool","numberOfBytes":"1"},"t_mapping(t_address,t_bool)":{"encoding":"mapping","key":"t_address","label":"mapping(address => bool)","numberOfBytes":"32","value":"t_bool"},"t_mapping(t_address,t_mapping(t_address,t_uint256))":{"encoding":"mapping","key":"t_address","label":"mapping(address => mapping(address => uint256))","numberOfBytes":"32","value":"t_mapping(t_address,t_uint256)"},"t_mapping(t_address,t_uint256)":{"encoding":"mapping","key":"t_address","label":"mapping(address => uint256)","numberOfBytes":"32","value":"t_uint256"},"t_string_storage":{"encoding":"bytes","label":"string","numberOfBytes":"32"},"t_uint256":{"encoding":"inplace","label":"uint256","numberOfBytes":"32"}}},"userdoc":{"kind":"user","methods":{},"version":1}}}}