{"contracts/DividendDispatcherPlugin.sol":{"DividendDispatcherPlugin":{"abi":[{"inputs":[{"internalType":"string","name":"name_","type":"string"},{"internalType":"string","name":"symbol_","type":"string"},{"internalType":"contract IERC20Plugins","name":"token_","type":"address"}],"stateMutability":"nonpayable","type":"constructor"},{"inputs":[],"name":"AccessDenied","type":"error"},{"inputs":[],"name":"ApproveDisabled","type":"error"},{"inputs":[],"name":"TransferDisabled","type":"error"},{"anonymous":false,"inputs":[{"indexed":true,"internalType":"address","name":"owner","type":"address"},{"indexed":true,"internalType":"address","name":"spender","type":"address"},{"indexed":false,"internalType":"uint256","name":"value","type":"uint256"}],"name":"Approval","type":"event"},{"anonymous":false,"inputs":[{"indexed":true,"internalType":"address","name":"previousOwner","type":"address"},{"indexed":true,"internalType":"address","name":"newOwner","type":"address"}],"name":"OwnershipTransferred","type":"event"},{"anonymous":false,"inputs":[{"indexed":true,"internalType":"address","name":"from","type":"address"},{"indexed":true,"internalType":"address","name":"to","type":"address"},{"indexed":false,"internalType":"uint256","name":"value","type":"uint256"}],"name":"Transfer","type":"event"},{"inputs":[{"internalType":"address","name":"owner","type":"address"},{"internalType":"address","name":"spender","type":"address"}],"name":"allowance","outputs":[{"internalType":"uint256","name":"","type":"uint256"}],"stateMutability":"view","type":"function"},{"inputs":[{"internalType":"address","name":"","type":"address"},{"internalType":"uint256","name":"","type":"uint256"}],"name":"approve","outputs":[{"internalType":"bool","name":"","type":"bool"}],"stateMutability":"pure","type":"function"},{"inputs":[{"internalType":"address","name":"account","type":"address"}],"name":"balanceOf","outputs":[{"internalType":"uint256","name":"","type":"uint256"}],"stateMutability":"view","type":"function"},{"inputs":[],"name":"claimDividend","outputs":[],"stateMutability":"nonpayable","type":"function"},{"inputs":[{"internalType":"address","name":"","type":"address"}],"name":"claimedDividend","outputs":[{"internalType":"bool","name":"","type":"bool"}],"stateMutability":"view","type":"function"},{"inputs":[{"internalType":"uint256","name":"","type":"uint256"}],"name":"claimedUsers","outputs":[{"internalType":"address","name":"","type":"address"}],"stateMutability":"view","type":"function"},{"inputs":[],"name":"decimals","outputs":[{"internalType":"uint8","name":"","type":"uint8"}],"stateMutability":"view","type":"function"},{"inputs":[{"internalType":"address","name":"","type":"address"},{"internalType":"uint256","name":"","type":"uint256"}],"name":"decreaseAllowance","outputs":[{"internalType":"bool","name":"","type":"bool"}],"stateMutability":"pure","type":"function"},{"inputs":[{"internalType":"address","name":"","type":"address"},{"internalType":"uint256","name":"","type":"uint256"}],"name":"increaseAllowance","outputs":[{"internalType":"bool","name":"","type":"bool"}],"stateMutability":"pure","type":"function"},{"inputs":[{"internalType":"address","name":"","type":"address"}],"name":"ledger","outputs":[{"internalType":"uint256","name":"","type":"uint256"}],"stateMutability":"view","type":"function"},{"inputs":[],"name":"name","outputs":[{"internalType":"string","name":"","type":"string"}],"stateMutability":"view","type":"function"},{"inputs":[],"name":"owner","outputs":[{"internalType":"address","name":"","type":"address"}],"stateMutability":"view","type":"function"},{"inputs":[],"name":"renounceOwnership","outputs":[],"stateMutability":"nonpayable","type":"function"},{"inputs":[{"internalType":"uint256","name":"value","type":"uint256"}],"name":"setDividend","outputs":[],"stateMutability":"payable","type":"function"},{"inputs":[],"name":"symbol","outputs":[{"internalType":"string","name":"","type":"string"}],"stateMutability":"view","type":"function"},{"inputs":[],"name":"token","outputs":[{"internalType":"contract IERC20Plugins","name":"","type":"address"}],"stateMutability":"view","type":"function"},{"inputs":[],"name":"totalClaimedDividend","outputs":[{"internalType":"uint256","name":"","type":"uint256"}],"stateMutability":"view","type":"function"},{"inputs":[],"name":"totalDividendPool","outputs":[{"internalType":"uint256","name":"","type":"uint256"}],"stateMutability":"view","type":"function"},{"inputs":[],"name":"totalSubscribedSupply","outputs":[{"internalType":"uint256","name":"","type":"uint256"}],"stateMutability":"view","type":"function"},{"inputs":[],"name":"totalSupply","outputs":[{"internalType":"uint256","name":"","type":"uint256"}],"stateMutability":"view","type":"function"},{"inputs":[{"internalType":"address","name":"","type":"address"},{"internalType":"uint256","name":"","type":"uint256"}],"name":"transfer","outputs":[{"internalType":"bool","name":"","type":"bool"}],"stateMutability":"pure","type":"function"},{"inputs":[{"internalType":"address","name":"","type":"address"},{"internalType":"address","name":"","type":"address"},{"internalType":"uint256","name":"","type":"uint256"}],"name":"transferFrom","outputs":[{"internalType":"bool","name":"","type":"bool"}],"stateMutability":"pure","type":"function"},{"inputs":[{"internalType":"address","name":"newOwner","type":"address"}],"name":"transferOwnership","outputs":[],"stateMutability":"nonpayable","type":"function"},{"inputs":[{"internalType":"address","name":"from","type":"address"},{"internalType":"address","name":"to","type":"address"},{"internalType":"uint256","name":"amount","type":"uint256"}],"name":"updateBalances","outputs":[],"stateMutability":"nonpayable","type":"function"}],"devdoc":{"events":{"Approval(address,address,uint256)":{"details":"Emitted when the allowance of a `spender` for an `owner` is set by a call to {approve}. `value` is the new allowance."},"Transfer(address,address,uint256)":{"details":"Emitted when `value` tokens are moved from one account (`from`) to another (`to`). Note that `value` may be zero."}},"kind":"dev","methods":{"allowance(address,address)":{"details":"See {IERC20-allowance}."},"balanceOf(address)":{"details":"See {IERC20-balanceOf}."},"decimals()":{"details":"Returns the number of decimals used to get its user representation. For example, if `decimals` equals `2`, a balance of `505` tokens should be displayed to a user as `5.05` (`505 / 10 ** 2`). Tokens usually opt for a value of 18, imitating the relationship between Ether and Wei. This is the default value returned by this function, unless it's overridden. NOTE: This information is only used for _display_ purposes: it in no way affects any of the arithmetic of the contract, including {IERC20-balanceOf} and {IERC20-transfer}."},"name()":{"details":"Returns the name of the token."},"owner()":{"details":"Returns the address of the current owner."},"renounceOwnership()":{"details":"Leaves the contract without owner. It will not be possible to call `onlyOwner` functions. Can only be called by the current owner. NOTE: Renouncing ownership will leave the contract without an owner, thereby disabling any functionality that is only available to the owner."},"symbol()":{"details":"Returns the symbol of the token, usually a shorter version of the name."},"totalSupply()":{"details":"See {IERC20-totalSupply}."},"transferOwnership(address)":{"details":"Transfers ownership of the contract to a new account (`newOwner`). Can only be called by the current owner."},"updateBalances(address,address,uint256)":{"details":"Updates the balances of two addresses in the plugin as a result of any balance changes. Only the Token contract is allowed to call this function.","params":{"amount":"The amount of tokens transferred","from":"The address from which tokens were transferred","to":"The address to which tokens were transferred"}}},"version":1},"evm":{"bytecode":{"linkReferences":{},"object":"60a06040523462000386576200173f803803806200001d816200038b565b9283398101606082820312620003865781516001600160401b03908181116200038657826200004e918501620003b1565b906020928385015182811162000386576040916200006e918701620003b1565b9401516001600160a01b03949085811681036200038657608052825182811162000286576003918254916001958684811c941680156200037b575b8885101462000365578190601f948581116200030f575b508890858311600114620002a8576000926200029c575b505060001982861b1c191690861b1783555b8051938411620002865760049586548681811c911680156200027b575b8282101462000266578381116200021b575b5080928511600114620001ad5750938394918492600095620001a1575b50501b92600019911b1c19161790555b60058054336001600160a01b03198216811790925560405192167f8be0079c531659141344cd1fd0a4f28419497f9722a3daafe3b4186f6b6457e0600080a361131b90816200042482396080518181816101760152610c030152f35b01519350388062000135565b92919084601f1981168860005285600020956000905b89838310620002005750505010620001e5575b50505050811b01905562000145565b01519060f884600019921b161c1916905538808080620001d6565b858701518955909701969485019488935090810190620001c3565b87600052816000208480880160051c8201928489106200025c575b0160051c019087905b8281106200024f57505062000118565b600081550187906200023f565b9250819262000236565b602288634e487b7160e01b6000525260246000fd5b90607f169062000106565b634e487b7160e01b600052604160045260246000fd5b015190503880620000d7565b90889350601f19831691876000528a6000209260005b8c828210620002f85750508411620002df575b505050811b018355620000e9565b015160001983881b60f8161c19169055388080620002d1565b8385015186558c97909501949384019301620002be565b90915085600052886000208580850160051c8201928b86106200035b575b918a91869594930160051c01915b8281106200034b575050620000c0565b600081558594508a91016200033b565b925081926200032d565b634e487b7160e01b600052602260045260246000fd5b93607f1693620000a9565b600080fd5b6040519190601f01601f191682016001600160401b038111838210176200028657604052565b919080601f84011215620003865782516001600160401b0381116200028657602090620003e7601f8201601f191683016200038b565b92818452828287010111620003865760005b8181106200040f57508260009394955001015290565b8581018301518482018401528201620003f956fe608060408181526004918236101561001657600080fd5b600092833560e01c91826306fdde0314610ead57508163095ea7b31461098057816318160ddd14610e7057816323b872dd14610e36578163313ce56714610dfc578163395093511461098057816370a0823114610d9b578163715018a614610cfd5781637a1f1aa914610bd4578163860030a614610b6d5781638da5cb5b14610b1a57816395d89b41146109c25781639ed7e55614610985578163a457c2d714610980578163a9059cbb14610920578163ae21f6f2146108e3578163b478191214610873578163b54ec8e614610836578163dd62ed3e146107b7578163e091f45314610629578163f0fc6bca1461033c578163f2fde38b146101ff57508063fbfa941f1461019e5763fc0c546a1461012d57600080fd5b3461019a57817ffffffffffffffffffffffffffffffffffffffffffffffffffffffffffffffffc36011261019a576020905173ffffffffffffffffffffffffffffffffffffffff7f0000000000000000000000000000000000000000000000000000000000000000168152f35b5080fd5b503461019a5760207ffffffffffffffffffffffffffffffffffffffffffffffffffffffffffffffffc36011261019a578060209273ffffffffffffffffffffffffffffffffffffffff6101ef61105d565b1681526006845220549051908152f35b9050346103385760207ffffffffffffffffffffffffffffffffffffffffffffffffffffffffffffffffc3601126103385761023861105d565b906102416111ad565b73ffffffffffffffffffffffffffffffffffffffff8092169283156102b5575050600554827fffffffffffffffffffffffff0000000000000000000000000000000000000000821617600555167f8be0079c531659141344cd1fd0a4f28419497f9722a3daafe3b4186f6b6457e08380a380f35b90602060849251917f08c379a0000000000000000000000000000000000000000000000000000000008352820152602660248201527f4f776e61626c653a206e6577206f776e657220697320746865207a65726f206160448201527f64647265737300000000000000000000000000000000000000000000000000006064820152fd5b8280fd5b9190503461033857827ffffffffffffffffffffffffffffffffffffffffffffffffffffffffffffffffc360112610338573383526020906007825260ff81852054166105a857600b546801000000000000000081101561057c578060016103a69201600b55611147565b81549060031b9073ffffffffffffffffffffffffffffffffffffffff33831b921b19161790553384526007825280842060017fffffffffffffffffffffffffffffffffffffffffffffffffffffffffffffff0082541617905560068252808420546008549081156105505704926064840284810460641485151715610524576064600954809602029481860414901517156104f85761044784600a5461129c565b600a55331561049d575083917fddf252ad1be2c89b69c2b068fc378daa952ba7f163c4a11628f55a4df523b3ef916104818560025461129c565b600255338452838252808420858154019055519384523393a380f35b8260649251917f08c379a0000000000000000000000000000000000000000000000000000000008352820152601f60248201527f45524332303a206d696e7420746f20746865207a65726f2061646472657373006044820152fd5b8460116024927f4e487b7100000000000000000000000000000000000000000000000000000000835252fd5b6024866011847f4e487b7100000000000000000000000000000000000000000000000000000000835252fd5b6024866012877f4e487b7100000000000000000000000000000000000000000000000000000000835252fd5b6024856041867f4e487b7100000000000000000000000000000000000000000000000000000000835252fd5b6084935051917f08c379a0000000000000000000000000000000000000000000000000000000008352820152603260248201527f4469766964656e6444697370617463686572506c7567696e3a20616c7265616460448201527f7920636c61696d6564206469766964656e6400000000000000000000000000006064820152fd5b839150602092837ffffffffffffffffffffffffffffffffffffffffffffffffffffffffffffffffc360112610338576106606111ad565b813560095582600a55825b600b548110156107255773ffffffffffffffffffffffffffffffffffffffff61069382611147565b90549060031b1c168452600785528184207fffffffffffffffffffffffffffffffffffffffffffffffffffffffffffffff0081541690557fffffffffffffffffffffffffffffffffffffffffffffffffffffffffffffffff81146106f95760010161066b565b6024846011857f4e487b7100000000000000000000000000000000000000000000000000000000835252fd5b505167ffffffffffffffff81850190811191111761078b5750600b5481600b558061074e575080f35b7f0175b7a638427703f0dbe7bb9bbf987a2551717b34e79f33b5b1008d1fa01db9908101905b81811061078057505080f35b828155600101610774565b9060416024927f4e487b7100000000000000000000000000000000000000000000000000000000835252fd5b50503461019a57807ffffffffffffffffffffffffffffffffffffffffffffffffffffffffffffffffc36011261019a576107ef61105d565b6024359073ffffffffffffffffffffffffffffffffffffffff90818316809303610832579160209491849316825260018552828220908252845220549051908152f35b8480fd5b50503461019a57817ffffffffffffffffffffffffffffffffffffffffffffffffffffffffffffffffc36011261019a576020906009549051908152f35b9050346103385760207ffffffffffffffffffffffffffffffffffffffffffffffffffffffffffffffffc360112610338573591600b548310156108e0575073ffffffffffffffffffffffffffffffffffffffff6108d1602093611147565b92905490519260031b1c168152f35b80fd5b50503461019a57817ffffffffffffffffffffffffffffffffffffffffffffffffffffffffffffffffc36011261019a57602090600a549051908152f35b8284346108e057817ffffffffffffffffffffffffffffffffffffffffffffffffffffffffffffffffc3601126108e0575061095961105d565b50517fa24e573d000000000000000000000000000000000000000000000000000000008152fd5b611085565b50503461019a57817ffffffffffffffffffffffffffffffffffffffffffffffffffffffffffffffffc36011261019a576020906008549051908152f35b83833461019a57817ffffffffffffffffffffffffffffffffffffffffffffffffffffffffffffffffc36011261019a57805191809380549160019083821c92828516948515610b10575b6020958686108114610ae457858952908115610aa25750600114610a4a575b610a468787610a3c828c038361122c565b5191829182610ff7565b0390f35b81529295507f8a35acfbc15ff81a39ae7d344fd709f28e8600b4aa8c65c6b64bfe7fe36bd19b5b828410610a8f5750505082610a4694610a3c92820101948680610a2b565b8054868501880152928601928101610a71565b7fffffffffffffffffffffffffffffffffffffffffffffffffffffffffffffff00168887015250505050151560051b8301019250610a3c82610a468680610a2b565b6024846022857f4e487b7100000000000000000000000000000000000000000000000000000000835252fd5b93607f1693610a0c565b50503461019a57817ffffffffffffffffffffffffffffffffffffffffffffffffffffffffffffffffc36011261019a5760209073ffffffffffffffffffffffffffffffffffffffff600554169051908152f35b50503461019a5760207ffffffffffffffffffffffffffffffffffffffffffffffffffffffffffffffffc36011261019a5760ff8160209373ffffffffffffffffffffffffffffffffffffffff610bc161105d565b1681526007855220541690519015158152f35b9190503461033857610be5366110e7565b929173ffffffffffffffffffffffffffffffffffffffff94919491827f0000000000000000000000000000000000000000000000000000000000000000163303610cd65750811680610c6857508293610c44610c5a939460085461129c565b600855169283855260066020528285205461129c565b918352600660205282205580f35b9316929083610ca457610c9e93508185526006602052610c8b83828720546112d8565b91855260066020528420556008546112d8565b60085580f35b9181610c5a9286526006602052610cbe82858820546112d8565b9086526006602052838620558385528285205461129c565b83517f4ca88867000000000000000000000000000000000000000000000000000000008152fd5b83346108e057807ffffffffffffffffffffffffffffffffffffffffffffffffffffffffffffffffc3601126108e057610d346111ad565b8073ffffffffffffffffffffffffffffffffffffffff6005547fffffffffffffffffffffffff00000000000000000000000000000000000000008116600555167f8be0079c531659141344cd1fd0a4f28419497f9722a3daafe3b4186f6b6457e08280a380f35b50503461019a5760207ffffffffffffffffffffffffffffffffffffffffffffffffffffffffffffffffc36011261019a578060209273ffffffffffffffffffffffffffffffffffffffff610ded61105d565b16815280845220549051908152f35b50503461019a57817ffffffffffffffffffffffffffffffffffffffffffffffffffffffffffffffffc36011261019a576020905160128152f35b8284346108e05750610e47366110e7565b505050517fa24e573d000000000000000000000000000000000000000000000000000000008152fd5b50503461019a57817ffffffffffffffffffffffffffffffffffffffffffffffffffffffffffffffffc36011261019a576020906002549051908152f35b92915034610ff357837ffffffffffffffffffffffffffffffffffffffffffffffffffffffffffffffffc360112610ff357600354600181811c9186908281168015610fe9575b6020958686108214610fbd5750848852908115610f7d5750600114610f24575b610a468686610a3c828b038361122c565b929550600383527fc2575a0e9e593c00f959f8c92f12db2869c3395a3b0502d05e2516446f71f85b5b828410610f6a5750505082610a4694610a3c928201019438610f13565b8054868501880152928601928101610f4d565b7fffffffffffffffffffffffffffffffffffffffffffffffffffffffffffffff001687860152505050151560051b8301019250610a3c82610a4638610f13565b8360226024927f4e487b7100000000000000000000000000000000000000000000000000000000835252fd5b93607f1693610ef3565b8380fd5b60208082528251818301819052939260005b858110611049575050507fffffffffffffffffffffffffffffffffffffffffffffffffffffffffffffffe0601f8460006040809697860101520116010190565b818101830151848201604001528201611009565b6004359073ffffffffffffffffffffffffffffffffffffffff8216820361108057565b600080fd5b346110805760407ffffffffffffffffffffffffffffffffffffffffffffffffffffffffffffffffc360112611080576110bc61105d565b5060046040517feb60c2c4000000000000000000000000000000000000000000000000000000008152fd5b7ffffffffffffffffffffffffffffffffffffffffffffffffffffffffffffffffc60609101126110805773ffffffffffffffffffffffffffffffffffffffff90600435828116810361108057916024359081168103611080579060443590565b600b5481101561117e57600b6000527f0175b7a638427703f0dbe7bb9bbf987a2551717b34e79f33b5b1008d1fa01db90190600090565b7f4e487b7100000000000000000000000000000000000000000000000000000000600052603260045260246000fd5b73ffffffffffffffffffffffffffffffffffffffff6005541633036111ce57565b60646040517f08c379a000000000000000000000000000000000000000000000000000000000815260206004820152602060248201527f4f776e61626c653a2063616c6c6572206973206e6f7420746865206f776e65726044820152fd5b90601f7fffffffffffffffffffffffffffffffffffffffffffffffffffffffffffffffe0910116810190811067ffffffffffffffff82111761126d57604052565b7f4e487b7100000000000000000000000000000000000000000000000000000000600052604160045260246000fd5b919082018092116112a957565b7f4e487b7100000000000000000000000000000000000000000000000000000000600052601160045260246000fd5b919082039182116112a95756fea2646970667358221220389445d99bdea0ca722644bb75416ce9539b0e1f4323f082ace7f0731062799b64736f6c63430008130033","opcodes":"PUSH1 0xA0 PUSH1 0x40 MSTORE CALLVALUE PUSH3 0x386 JUMPI PUSH3 0x173F DUP1 CODESIZE SUB DUP1 PUSH3 0x1D DUP2 PUSH3 0x38B JUMP JUMPDEST SWAP3 DUP4 CODECOPY DUP2 ADD PUSH1 0x60 DUP3 DUP3 SUB SLT PUSH3 0x386 JUMPI DUP2 MLOAD PUSH1 0x1 PUSH1 0x1 PUSH1 0x40 SHL SUB SWAP1 DUP2 DUP2 GT PUSH3 0x386 JUMPI DUP3 PUSH3 0x4E SWAP2 DUP6 ADD PUSH3 0x3B1 JUMP JUMPDEST SWAP1 PUSH1 0x20 SWAP3 DUP4 DUP6 ADD MLOAD DUP3 DUP2 GT PUSH3 0x386 JUMPI PUSH1 0x40 SWAP2 PUSH3 0x6E SWAP2 DUP8 ADD PUSH3 0x3B1 JUMP JUMPDEST SWAP5 ADD MLOAD PUSH1 0x1 PUSH1 0x1 PUSH1 0xA0 SHL SUB SWAP5 SWAP1 DUP6 DUP2 AND DUP2 SUB PUSH3 0x386 JUMPI PUSH1 0x80 MSTORE DUP3 MLOAD DUP3 DUP2 GT PUSH3 0x286 JUMPI PUSH1 0x3 SWAP2 DUP3 SLOAD SWAP2 PUSH1 0x1 SWAP6 DUP7 DUP5 DUP2 SHR SWAP5 AND DUP1 ISZERO PUSH3 0x37B JUMPI JUMPDEST DUP9 DUP6 LT EQ PUSH3 0x365 JUMPI DUP2 SWAP1 PUSH1 0x1F SWAP5 DUP6 DUP2 GT PUSH3 0x30F JUMPI JUMPDEST POP DUP9 SWAP1 DUP6 DUP4 GT PUSH1 0x1 EQ PUSH3 0x2A8 JUMPI PUSH1 0x0 SWAP3 PUSH3 0x29C JUMPI JUMPDEST POP POP PUSH1 0x0 NOT DUP3 DUP7 SHL SHR NOT AND SWAP1 DUP7 SHL OR DUP4 SSTORE JUMPDEST DUP1 MLOAD SWAP4 DUP5 GT PUSH3 0x286 JUMPI PUSH1 0x4 SWAP6 DUP7 SLOAD DUP7 DUP2 DUP2 SHR SWAP2 AND DUP1 ISZERO PUSH3 0x27B JUMPI JUMPDEST DUP3 DUP3 LT EQ PUSH3 0x266 JUMPI DUP4 DUP2 GT PUSH3 0x21B JUMPI JUMPDEST POP DUP1 SWAP3 DUP6 GT PUSH1 0x1 EQ PUSH3 0x1AD JUMPI POP SWAP4 DUP4 SWAP5 SWAP2 DUP5 SWAP3 PUSH1 0x0 SWAP6 PUSH3 0x1A1 JUMPI JUMPDEST POP POP SHL SWAP3 PUSH1 0x0 NOT SWAP2 SHL SHR NOT AND OR SWAP1 SSTORE JUMPDEST PUSH1 0x5 DUP1 SLOAD CALLER PUSH1 0x1 PUSH1 0x1 PUSH1 0xA0 SHL SUB NOT DUP3 AND DUP2 OR SWAP1 SWAP3 SSTORE PUSH1 0x40 MLOAD SWAP3 AND PUSH32 0x8BE0079C531659141344CD1FD0A4F28419497F9722A3DAAFE3B4186F6B6457E0 PUSH1 0x0 DUP1 LOG3 PUSH2 0x131B SWAP1 DUP2 PUSH3 0x424 DUP3 CODECOPY PUSH1 0x80 MLOAD DUP2 DUP2 DUP2 PUSH2 0x176 ADD MSTORE PUSH2 0xC03 ADD MSTORE RETURN JUMPDEST ADD MLOAD SWAP4 POP CODESIZE DUP1 PUSH3 0x135 JUMP JUMPDEST SWAP3 SWAP2 SWAP1 DUP5 PUSH1 0x1F NOT DUP2 AND DUP9 PUSH1 0x0 MSTORE DUP6 PUSH1 0x0 KECCAK256 SWAP6 PUSH1 0x0 SWAP1 JUMPDEST DUP10 DUP4 DUP4 LT PUSH3 0x200 JUMPI POP POP POP LT PUSH3 0x1E5 JUMPI JUMPDEST POP POP POP POP DUP2 SHL ADD SWAP1 SSTORE PUSH3 0x145 JUMP JUMPDEST ADD MLOAD SWAP1 PUSH1 0xF8 DUP5 PUSH1 0x0 NOT SWAP3 SHL AND SHR NOT AND SWAP1 SSTORE CODESIZE DUP1 DUP1 DUP1 PUSH3 0x1D6 JUMP JUMPDEST DUP6 DUP8 ADD MLOAD DUP10 SSTORE SWAP1 SWAP8 ADD SWAP7 SWAP5 DUP6 ADD SWAP5 DUP9 SWAP4 POP SWAP1 DUP2 ADD SWAP1 PUSH3 0x1C3 JUMP JUMPDEST DUP8 PUSH1 0x0 MSTORE DUP2 PUSH1 0x0 KECCAK256 DUP5 DUP1 DUP9 ADD PUSH1 0x5 SHR DUP3 ADD SWAP3 DUP5 DUP10 LT PUSH3 0x25C JUMPI JUMPDEST ADD PUSH1 0x5 SHR ADD SWAP1 DUP8 SWAP1 JUMPDEST DUP3 DUP2 LT PUSH3 0x24F JUMPI POP POP PUSH3 0x118 JUMP JUMPDEST PUSH1 0x0 DUP2 SSTORE ADD DUP8 SWAP1 PUSH3 0x23F JUMP JUMPDEST SWAP3 POP DUP2 SWAP3 PUSH3 0x236 JUMP JUMPDEST PUSH1 0x22 DUP9 PUSH4 0x4E487B71 PUSH1 0xE0 SHL PUSH1 0x0 MSTORE MSTORE PUSH1 0x24 PUSH1 0x0 REVERT JUMPDEST SWAP1 PUSH1 0x7F AND SWAP1 PUSH3 0x106 JUMP JUMPDEST PUSH4 0x4E487B71 PUSH1 0xE0 SHL PUSH1 0x0 MSTORE PUSH1 0x41 PUSH1 0x4 MSTORE PUSH1 0x24 PUSH1 0x0 REVERT JUMPDEST ADD MLOAD SWAP1 POP CODESIZE DUP1 PUSH3 0xD7 JUMP JUMPDEST SWAP1 DUP9 SWAP4 POP PUSH1 0x1F NOT DUP4 AND SWAP2 DUP8 PUSH1 0x0 MSTORE DUP11 PUSH1 0x0 KECCAK256 SWAP3 PUSH1 0x0 JUMPDEST DUP13 DUP3 DUP3 LT PUSH3 0x2F8 JUMPI POP POP DUP5 GT PUSH3 0x2DF JUMPI JUMPDEST POP POP POP DUP2 SHL ADD DUP4 SSTORE PUSH3 0xE9 JUMP JUMPDEST ADD MLOAD PUSH1 0x0 NOT DUP4 DUP9 SHL PUSH1 0xF8 AND SHR NOT AND SWAP1 SSTORE CODESIZE DUP1 DUP1 PUSH3 0x2D1 JUMP JUMPDEST DUP4 DUP6 ADD MLOAD DUP7 SSTORE DUP13 SWAP8 SWAP1 SWAP6 ADD SWAP5 SWAP4 DUP5 ADD SWAP4 ADD PUSH3 0x2BE JUMP JUMPDEST SWAP1 SWAP2 POP DUP6 PUSH1 0x0 MSTORE DUP9 PUSH1 0x0 KECCAK256 DUP6 DUP1 DUP6 ADD PUSH1 0x5 SHR DUP3 ADD SWAP3 DUP12 DUP7 LT PUSH3 0x35B JUMPI JUMPDEST SWAP2 DUP11 SWAP2 DUP7 SWAP6 SWAP5 SWAP4 ADD PUSH1 0x5 SHR ADD SWAP2 JUMPDEST DUP3 DUP2 LT PUSH3 0x34B JUMPI POP POP PUSH3 0xC0 JUMP JUMPDEST PUSH1 0x0 DUP2 SSTORE DUP6 SWAP5 POP DUP11 SWAP2 ADD PUSH3 0x33B JUMP JUMPDEST SWAP3 POP DUP2 SWAP3 PUSH3 0x32D JUMP JUMPDEST PUSH4 0x4E487B71 PUSH1 0xE0 SHL PUSH1 0x0 MSTORE PUSH1 0x22 PUSH1 0x4 MSTORE PUSH1 0x24 PUSH1 0x0 REVERT JUMPDEST SWAP4 PUSH1 0x7F AND SWAP4 PUSH3 0xA9 JUMP JUMPDEST PUSH1 0x0 DUP1 REVERT JUMPDEST PUSH1 0x40 MLOAD SWAP2 SWAP1 PUSH1 0x1F ADD PUSH1 0x1F NOT AND DUP3 ADD PUSH1 0x1 PUSH1 0x1 PUSH1 0x40 SHL SUB DUP2 GT DUP4 DUP3 LT OR PUSH3 0x286 JUMPI PUSH1 0x40 MSTORE JUMP JUMPDEST SWAP2 SWAP1 DUP1 PUSH1 0x1F DUP5 ADD SLT ISZERO PUSH3 0x386 JUMPI DUP3 MLOAD PUSH1 0x1 PUSH1 0x1 PUSH1 0x40 SHL SUB DUP2 GT PUSH3 0x286 JUMPI PUSH1 0x20 SWAP1 PUSH3 0x3E7 PUSH1 0x1F DUP3 ADD PUSH1 0x1F NOT AND DUP4 ADD PUSH3 0x38B JUMP JUMPDEST SWAP3 DUP2 DUP5 MSTORE DUP3 DUP3 DUP8 ADD ADD GT PUSH3 0x386 JUMPI PUSH1 0x0 JUMPDEST DUP2 DUP2 LT PUSH3 0x40F JUMPI POP DUP3 PUSH1 0x0 SWAP4 SWAP5 SWAP6 POP ADD ADD MSTORE SWAP1 JUMP JUMPDEST DUP6 DUP2 ADD DUP4 ADD MLOAD DUP5 DUP3 ADD DUP5 ADD MSTORE DUP3 ADD PUSH3 0x3F9 JUMP INVALID PUSH1 0x80 PUSH1 0x40 DUP2 DUP2 MSTORE PUSH1 0x4 SWAP2 DUP3 CALLDATASIZE LT ISZERO PUSH2 0x16 JUMPI PUSH1 0x0 DUP1 REVERT JUMPDEST PUSH1 0x0 SWAP3 DUP4 CALLDATALOAD PUSH1 0xE0 SHR SWAP2 DUP3 PUSH4 0x6FDDE03 EQ PUSH2 0xEAD JUMPI POP DUP2 PUSH4 0x95EA7B3 EQ PUSH2 0x980 JUMPI DUP2 PUSH4 0x18160DDD EQ PUSH2 0xE70 JUMPI DUP2 PUSH4 0x23B872DD EQ PUSH2 0xE36 JUMPI DUP2 PUSH4 0x313CE567 EQ PUSH2 0xDFC JUMPI DUP2 PUSH4 0x39509351 EQ PUSH2 0x980 JUMPI DUP2 PUSH4 0x70A08231 EQ PUSH2 0xD9B JUMPI DUP2 PUSH4 0x715018A6 EQ PUSH2 0xCFD JUMPI DUP2 PUSH4 0x7A1F1AA9 EQ PUSH2 0xBD4 JUMPI DUP2 PUSH4 0x860030A6 EQ PUSH2 0xB6D JUMPI DUP2 PUSH4 0x8DA5CB5B EQ PUSH2 0xB1A JUMPI DUP2 PUSH4 0x95D89B41 EQ PUSH2 0x9C2 JUMPI DUP2 PUSH4 0x9ED7E556 EQ PUSH2 0x985 JUMPI DUP2 PUSH4 0xA457C2D7 EQ PUSH2 0x980 JUMPI DUP2 PUSH4 0xA9059CBB EQ PUSH2 0x920 JUMPI DUP2 PUSH4 0xAE21F6F2 EQ PUSH2 0x8E3 JUMPI DUP2 PUSH4 0xB4781912 EQ PUSH2 0x873 JUMPI DUP2 PUSH4 0xB54EC8E6 EQ PUSH2 0x836 JUMPI DUP2 PUSH4 0xDD62ED3E EQ PUSH2 0x7B7 JUMPI DUP2 PUSH4 0xE091F453 EQ PUSH2 0x629 JUMPI DUP2 PUSH4 0xF0FC6BCA EQ PUSH2 0x33C JUMPI DUP2 PUSH4 0xF2FDE38B EQ PUSH2 0x1FF JUMPI POP DUP1 PUSH4 0xFBFA941F EQ PUSH2 0x19E JUMPI PUSH4 0xFC0C546A EQ PUSH2 0x12D JUMPI PUSH1 0x0 DUP1 REVERT JUMPDEST CALLVALUE PUSH2 0x19A JUMPI DUP2 PUSH32 0xFFFFFFFFFFFFFFFFFFFFFFFFFFFFFFFFFFFFFFFFFFFFFFFFFFFFFFFFFFFFFFFC CALLDATASIZE ADD SLT PUSH2 0x19A JUMPI PUSH1 0x20 SWAP1 MLOAD PUSH20 0xFFFFFFFFFFFFFFFFFFFFFFFFFFFFFFFFFFFFFFFF PUSH32 0x0 AND DUP2 MSTORE RETURN JUMPDEST POP DUP1 REVERT JUMPDEST POP CALLVALUE PUSH2 0x19A JUMPI PUSH1 0x20 PUSH32 0xFFFFFFFFFFFFFFFFFFFFFFFFFFFFFFFFFFFFFFFFFFFFFFFFFFFFFFFFFFFFFFFC CALLDATASIZE ADD SLT PUSH2 0x19A JUMPI DUP1 PUSH1 0x20 SWAP3 PUSH20 0xFFFFFFFFFFFFFFFFFFFFFFFFFFFFFFFFFFFFFFFF PUSH2 0x1EF PUSH2 0x105D JUMP JUMPDEST AND DUP2 MSTORE PUSH1 0x6 DUP5 MSTORE KECCAK256 SLOAD SWAP1 MLOAD SWAP1 DUP2 MSTORE RETURN JUMPDEST SWAP1 POP CALLVALUE PUSH2 0x338 JUMPI PUSH1 0x20 PUSH32 0xFFFFFFFFFFFFFFFFFFFFFFFFFFFFFFFFFFFFFFFFFFFFFFFFFFFFFFFFFFFFFFFC CALLDATASIZE ADD SLT PUSH2 0x338 JUMPI PUSH2 0x238 PUSH2 0x105D JUMP JUMPDEST SWAP1 PUSH2 0x241 PUSH2 0x11AD JUMP JUMPDEST PUSH20 0xFFFFFFFFFFFFFFFFFFFFFFFFFFFFFFFFFFFFFFFF DUP1 SWAP3 AND SWAP3 DUP4 ISZERO PUSH2 0x2B5 JUMPI POP POP PUSH1 0x5 SLOAD DUP3 PUSH32 0xFFFFFFFFFFFFFFFFFFFFFFFF0000000000000000000000000000000000000000 DUP3 AND OR PUSH1 0x5 SSTORE AND PUSH32 0x8BE0079C531659141344CD1FD0A4F28419497F9722A3DAAFE3B4186F6B6457E0 DUP4 DUP1 LOG3 DUP1 RETURN JUMPDEST SWAP1 PUSH1 0x20 PUSH1 0x84 SWAP3 MLOAD SWAP2 PUSH32 0x8C379A000000000000000000000000000000000000000000000000000000000 DUP4 MSTORE DUP3 ADD MSTORE PUSH1 0x26 PUSH1 0x24 DUP3 ADD MSTORE PUSH32 0x4F776E61626C653A206E6577206F776E657220697320746865207A65726F2061 PUSH1 0x44 DUP3 ADD MSTORE PUSH32 0x6464726573730000000000000000000000000000000000000000000000000000 PUSH1 0x64 DUP3 ADD MSTORE REVERT JUMPDEST DUP3 DUP1 REVERT JUMPDEST SWAP2 SWAP1 POP CALLVALUE PUSH2 0x338 JUMPI DUP3 PUSH32 0xFFFFFFFFFFFFFFFFFFFFFFFFFFFFFFFFFFFFFFFFFFFFFFFFFFFFFFFFFFFFFFFC CALLDATASIZE ADD SLT PUSH2 0x338 JUMPI CALLER DUP4 MSTORE PUSH1 0x20 SWAP1 PUSH1 0x7 DUP3 MSTORE PUSH1 0xFF DUP2 DUP6 KECCAK256 SLOAD AND PUSH2 0x5A8 JUMPI PUSH1 0xB SLOAD PUSH9 0x10000000000000000 DUP2 LT ISZERO PUSH2 0x57C JUMPI DUP1 PUSH1 0x1 PUSH2 0x3A6 SWAP3 ADD PUSH1 0xB SSTORE PUSH2 0x1147 JUMP JUMPDEST DUP2 SLOAD SWAP1 PUSH1 0x3 SHL SWAP1 PUSH20 0xFFFFFFFFFFFFFFFFFFFFFFFFFFFFFFFFFFFFFFFF CALLER DUP4 SHL SWAP3 SHL NOT AND OR SWAP1 SSTORE CALLER DUP5 MSTORE PUSH1 0x7 DUP3 MSTORE DUP1 DUP5 KECCAK256 PUSH1 0x1 PUSH32 0xFFFFFFFFFFFFFFFFFFFFFFFFFFFFFFFFFFFFFFFFFFFFFFFFFFFFFFFFFFFFFF00 DUP3 SLOAD AND OR SWAP1 SSTORE PUSH1 0x6 DUP3 MSTORE DUP1 DUP5 KECCAK256 SLOAD PUSH1 0x8 SLOAD SWAP1 DUP2 ISZERO PUSH2 0x550 JUMPI DIV SWAP3 PUSH1 0x64 DUP5 MUL DUP5 DUP2 DIV PUSH1 0x64 EQ DUP6 ISZERO OR ISZERO PUSH2 0x524 JUMPI PUSH1 0x64 PUSH1 0x9 SLOAD DUP1 SWAP7 MUL MUL SWAP5 DUP2 DUP7 DIV EQ SWAP1 ISZERO OR ISZERO PUSH2 0x4F8 JUMPI PUSH2 0x447 DUP5 PUSH1 0xA SLOAD PUSH2 0x129C JUMP JUMPDEST PUSH1 0xA SSTORE CALLER ISZERO PUSH2 0x49D JUMPI POP DUP4 SWAP2 PUSH32 0xDDF252AD1BE2C89B69C2B068FC378DAA952BA7F163C4A11628F55A4DF523B3EF SWAP2 PUSH2 0x481 DUP6 PUSH1 0x2 SLOAD PUSH2 0x129C JUMP JUMPDEST PUSH1 0x2 SSTORE CALLER DUP5 MSTORE DUP4 DUP3 MSTORE DUP1 DUP5 KECCAK256 DUP6 DUP2 SLOAD ADD SWAP1 SSTORE MLOAD SWAP4 DUP5 MSTORE CALLER SWAP4 LOG3 DUP1 RETURN JUMPDEST DUP3 PUSH1 0x64 SWAP3 MLOAD SWAP2 PUSH32 0x8C379A000000000000000000000000000000000000000000000000000000000 DUP4 MSTORE DUP3 ADD MSTORE PUSH1 0x1F PUSH1 0x24 DUP3 ADD MSTORE PUSH32 0x45524332303A206D696E7420746F20746865207A65726F206164647265737300 PUSH1 0x44 DUP3 ADD MSTORE REVERT JUMPDEST DUP5 PUSH1 0x11 PUSH1 0x24 SWAP3 PUSH32 0x4E487B7100000000000000000000000000000000000000000000000000000000 DUP4 MSTORE MSTORE REVERT JUMPDEST PUSH1 0x24 DUP7 PUSH1 0x11 DUP5 PUSH32 0x4E487B7100000000000000000000000000000000000000000000000000000000 DUP4 MSTORE MSTORE REVERT JUMPDEST PUSH1 0x24 DUP7 PUSH1 0x12 DUP8 PUSH32 0x4E487B7100000000000000000000000000000000000000000000000000000000 DUP4 MSTORE MSTORE REVERT JUMPDEST PUSH1 0x24 DUP6 PUSH1 0x41 DUP7 PUSH32 0x4E487B7100000000000000000000000000000000000000000000000000000000 DUP4 MSTORE MSTORE REVERT JUMPDEST PUSH1 0x84 SWAP4 POP MLOAD SWAP2 PUSH32 0x8C379A000000000000000000000000000000000000000000000000000000000 DUP4 MSTORE DUP3 ADD MSTORE PUSH1 0x32 PUSH1 0x24 DUP3 ADD MSTORE PUSH32 0x4469766964656E6444697370617463686572506C7567696E3A20616C72656164 PUSH1 0x44 DUP3 ADD MSTORE PUSH32 0x7920636C61696D6564206469766964656E640000000000000000000000000000 PUSH1 0x64 DUP3 ADD MSTORE REVERT JUMPDEST DUP4 SWAP2 POP PUSH1 0x20 SWAP3 DUP4 PUSH32 0xFFFFFFFFFFFFFFFFFFFFFFFFFFFFFFFFFFFFFFFFFFFFFFFFFFFFFFFFFFFFFFFC CALLDATASIZE ADD SLT PUSH2 0x338 JUMPI PUSH2 0x660 PUSH2 0x11AD JUMP JUMPDEST DUP2 CALLDATALOAD PUSH1 0x9 SSTORE DUP3 PUSH1 0xA SSTORE DUP3 JUMPDEST PUSH1 0xB SLOAD DUP2 LT ISZERO PUSH2 0x725 JUMPI PUSH20 0xFFFFFFFFFFFFFFFFFFFFFFFFFFFFFFFFFFFFFFFF PUSH2 0x693 DUP3 PUSH2 0x1147 JUMP JUMPDEST SWAP1 SLOAD SWAP1 PUSH1 0x3 SHL SHR AND DUP5 MSTORE PUSH1 0x7 DUP6 MSTORE DUP2 DUP5 KECCAK256 PUSH32 0xFFFFFFFFFFFFFFFFFFFFFFFFFFFFFFFFFFFFFFFFFFFFFFFFFFFFFFFFFFFFFF00 DUP2 SLOAD AND SWAP1 SSTORE PUSH32 0xFFFFFFFFFFFFFFFFFFFFFFFFFFFFFFFFFFFFFFFFFFFFFFFFFFFFFFFFFFFFFFFF DUP2 EQ PUSH2 0x6F9 JUMPI PUSH1 0x1 ADD PUSH2 0x66B JUMP JUMPDEST PUSH1 0x24 DUP5 PUSH1 0x11 DUP6 PUSH32 0x4E487B7100000000000000000000000000000000000000000000000000000000 DUP4 MSTORE MSTORE REVERT JUMPDEST POP MLOAD PUSH8 0xFFFFFFFFFFFFFFFF DUP2 DUP6 ADD SWAP1 DUP2 GT SWAP2 GT OR PUSH2 0x78B JUMPI POP PUSH1 0xB SLOAD DUP2 PUSH1 0xB SSTORE DUP1 PUSH2 0x74E JUMPI POP DUP1 RETURN JUMPDEST PUSH32 0x175B7A638427703F0DBE7BB9BBF987A2551717B34E79F33B5B1008D1FA01DB9 SWAP1 DUP2 ADD SWAP1 JUMPDEST DUP2 DUP2 LT PUSH2 0x780 JUMPI POP POP DUP1 RETURN JUMPDEST DUP3 DUP2 SSTORE PUSH1 0x1 ADD PUSH2 0x774 JUMP JUMPDEST SWAP1 PUSH1 0x41 PUSH1 0x24 SWAP3 PUSH32 0x4E487B7100000000000000000000000000000000000000000000000000000000 DUP4 MSTORE MSTORE REVERT JUMPDEST POP POP CALLVALUE PUSH2 0x19A JUMPI DUP1 PUSH32 0xFFFFFFFFFFFFFFFFFFFFFFFFFFFFFFFFFFFFFFFFFFFFFFFFFFFFFFFFFFFFFFFC CALLDATASIZE ADD SLT PUSH2 0x19A JUMPI PUSH2 0x7EF PUSH2 0x105D JUMP JUMPDEST PUSH1 0x24 CALLDATALOAD SWAP1 PUSH20 0xFFFFFFFFFFFFFFFFFFFFFFFFFFFFFFFFFFFFFFFF SWAP1 DUP2 DUP4 AND DUP1 SWAP4 SUB PUSH2 0x832 JUMPI SWAP2 PUSH1 0x20 SWAP5 SWAP2 DUP5 SWAP4 AND DUP3 MSTORE PUSH1 0x1 DUP6 MSTORE DUP3 DUP3 KECCAK256 SWAP1 DUP3 MSTORE DUP5 MSTORE KECCAK256 SLOAD SWAP1 MLOAD SWAP1 DUP2 MSTORE RETURN JUMPDEST DUP5 DUP1 REVERT JUMPDEST POP POP CALLVALUE PUSH2 0x19A JUMPI DUP2 PUSH32 0xFFFFFFFFFFFFFFFFFFFFFFFFFFFFFFFFFFFFFFFFFFFFFFFFFFFFFFFFFFFFFFFC CALLDATASIZE ADD SLT PUSH2 0x19A JUMPI PUSH1 0x20 SWAP1 PUSH1 0x9 SLOAD SWAP1 MLOAD SWAP1 DUP2 MSTORE RETURN JUMPDEST SWAP1 POP CALLVALUE PUSH2 0x338 JUMPI PUSH1 0x20 PUSH32 0xFFFFFFFFFFFFFFFFFFFFFFFFFFFFFFFFFFFFFFFFFFFFFFFFFFFFFFFFFFFFFFFC CALLDATASIZE ADD SLT PUSH2 0x338 JUMPI CALLDATALOAD SWAP2 PUSH1 0xB SLOAD DUP4 LT ISZERO PUSH2 0x8E0 JUMPI POP PUSH20 0xFFFFFFFFFFFFFFFFFFFFFFFFFFFFFFFFFFFFFFFF PUSH2 0x8D1 PUSH1 0x20 SWAP4 PUSH2 0x1147 JUMP JUMPDEST SWAP3 SWAP1 SLOAD SWAP1 MLOAD SWAP3 PUSH1 0x3 SHL SHR AND DUP2 MSTORE RETURN JUMPDEST DUP1 REVERT JUMPDEST POP POP CALLVALUE PUSH2 0x19A JUMPI DUP2 PUSH32 0xFFFFFFFFFFFFFFFFFFFFFFFFFFFFFFFFFFFFFFFFFFFFFFFFFFFFFFFFFFFFFFFC CALLDATASIZE ADD SLT PUSH2 0x19A JUMPI PUSH1 0x20 SWAP1 PUSH1 0xA SLOAD SWAP1 MLOAD SWAP1 DUP2 MSTORE RETURN JUMPDEST DUP3 DUP5 CALLVALUE PUSH2 0x8E0 JUMPI DUP2 PUSH32 0xFFFFFFFFFFFFFFFFFFFFFFFFFFFFFFFFFFFFFFFFFFFFFFFFFFFFFFFFFFFFFFFC CALLDATASIZE ADD SLT PUSH2 0x8E0 JUMPI POP PUSH2 0x959 PUSH2 0x105D JUMP JUMPDEST POP MLOAD PUSH32 0xA24E573D00000000000000000000000000000000000000000000000000000000 DUP2 MSTORE REVERT JUMPDEST PUSH2 0x1085 JUMP JUMPDEST POP POP CALLVALUE PUSH2 0x19A JUMPI DUP2 PUSH32 0xFFFFFFFFFFFFFFFFFFFFFFFFFFFFFFFFFFFFFFFFFFFFFFFFFFFFFFFFFFFFFFFC CALLDATASIZE ADD SLT PUSH2 0x19A JUMPI PUSH1 0x20 SWAP1 PUSH1 0x8 SLOAD SWAP1 MLOAD SWAP1 DUP2 MSTORE RETURN JUMPDEST DUP4 DUP4 CALLVALUE PUSH2 0x19A JUMPI DUP2 PUSH32 0xFFFFFFFFFFFFFFFFFFFFFFFFFFFFFFFFFFFFFFFFFFFFFFFFFFFFFFFFFFFFFFFC CALLDATASIZE ADD SLT PUSH2 0x19A JUMPI DUP1 MLOAD SWAP2 DUP1 SWAP4 DUP1 SLOAD SWAP2 PUSH1 0x1 SWAP1 DUP4 DUP3 SHR SWAP3 DUP3 DUP6 AND SWAP5 DUP6 ISZERO PUSH2 0xB10 JUMPI JUMPDEST PUSH1 0x20 SWAP6 DUP7 DUP7 LT DUP2 EQ PUSH2 0xAE4 JUMPI DUP6 DUP10 MSTORE SWAP1 DUP2 ISZERO PUSH2 0xAA2 JUMPI POP PUSH1 0x1 EQ PUSH2 0xA4A JUMPI JUMPDEST PUSH2 0xA46 DUP8 DUP8 PUSH2 0xA3C DUP3 DUP13 SUB DUP4 PUSH2 0x122C JUMP JUMPDEST MLOAD SWAP2 DUP3 SWAP2 DUP3 PUSH2 0xFF7 JUMP JUMPDEST SUB SWAP1 RETURN JUMPDEST DUP2 MSTORE SWAP3 SWAP6 POP PUSH32 0x8A35ACFBC15FF81A39AE7D344FD709F28E8600B4AA8C65C6B64BFE7FE36BD19B JUMPDEST DUP3 DUP5 LT PUSH2 0xA8F JUMPI POP POP POP DUP3 PUSH2 0xA46 SWAP5 PUSH2 0xA3C SWAP3 DUP3 ADD ADD SWAP5 DUP7 DUP1 PUSH2 0xA2B JUMP JUMPDEST DUP1 SLOAD DUP7 DUP6 ADD DUP9 ADD MSTORE SWAP3 DUP7 ADD SWAP3 DUP2 ADD PUSH2 0xA71 JUMP JUMPDEST PUSH32 0xFFFFFFFFFFFFFFFFFFFFFFFFFFFFFFFFFFFFFFFFFFFFFFFFFFFFFFFFFFFFFF00 AND DUP9 DUP8 ADD MSTORE POP POP POP POP ISZERO ISZERO PUSH1 0x5 SHL DUP4 ADD ADD SWAP3 POP PUSH2 0xA3C DUP3 PUSH2 0xA46 DUP7 DUP1 PUSH2 0xA2B JUMP JUMPDEST PUSH1 0x24 DUP5 PUSH1 0x22 DUP6 PUSH32 0x4E487B7100000000000000000000000000000000000000000000000000000000 DUP4 MSTORE MSTORE REVERT JUMPDEST SWAP4 PUSH1 0x7F AND SWAP4 PUSH2 0xA0C JUMP JUMPDEST POP POP CALLVALUE PUSH2 0x19A JUMPI DUP2 PUSH32 0xFFFFFFFFFFFFFFFFFFFFFFFFFFFFFFFFFFFFFFFFFFFFFFFFFFFFFFFFFFFFFFFC CALLDATASIZE ADD SLT PUSH2 0x19A JUMPI PUSH1 0x20 SWAP1 PUSH20 0xFFFFFFFFFFFFFFFFFFFFFFFFFFFFFFFFFFFFFFFF PUSH1 0x5 SLOAD AND SWAP1 MLOAD SWAP1 DUP2 MSTORE RETURN JUMPDEST POP POP CALLVALUE PUSH2 0x19A JUMPI PUSH1 0x20 PUSH32 0xFFFFFFFFFFFFFFFFFFFFFFFFFFFFFFFFFFFFFFFFFFFFFFFFFFFFFFFFFFFFFFFC CALLDATASIZE ADD SLT PUSH2 0x19A JUMPI PUSH1 0xFF DUP2 PUSH1 0x20 SWAP4 PUSH20 0xFFFFFFFFFFFFFFFFFFFFFFFFFFFFFFFFFFFFFFFF PUSH2 0xBC1 PUSH2 0x105D JUMP JUMPDEST AND DUP2 MSTORE PUSH1 0x7 DUP6 MSTORE KECCAK256 SLOAD AND SWAP1 MLOAD SWAP1 ISZERO ISZERO DUP2 MSTORE RETURN JUMPDEST SWAP2 SWAP1 POP CALLVALUE PUSH2 0x338 JUMPI PUSH2 0xBE5 CALLDATASIZE PUSH2 0x10E7 JUMP JUMPDEST SWAP3 SWAP2 PUSH20 0xFFFFFFFFFFFFFFFFFFFFFFFFFFFFFFFFFFFFFFFF SWAP5 SWAP2 SWAP5 SWAP2 DUP3 PUSH32 0x0 AND CALLER SUB PUSH2 0xCD6 JUMPI POP DUP2 AND DUP1 PUSH2 0xC68 JUMPI POP DUP3 SWAP4 PUSH2 0xC44 PUSH2 0xC5A SWAP4 SWAP5 PUSH1 0x8 SLOAD PUSH2 0x129C JUMP JUMPDEST PUSH1 0x8 SSTORE AND SWAP3 DUP4 DUP6 MSTORE PUSH1 0x6 PUSH1 0x20 MSTORE DUP3 DUP6 KECCAK256 SLOAD PUSH2 0x129C JUMP JUMPDEST SWAP2 DUP4 MSTORE PUSH1 0x6 PUSH1 0x20 MSTORE DUP3 KECCAK256 SSTORE DUP1 RETURN JUMPDEST SWAP4 AND SWAP3 SWAP1 DUP4 PUSH2 0xCA4 JUMPI PUSH2 0xC9E SWAP4 POP DUP2 DUP6 MSTORE PUSH1 0x6 PUSH1 0x20 MSTORE PUSH2 0xC8B DUP4 DUP3 DUP8 KECCAK256 SLOAD PUSH2 0x12D8 JUMP JUMPDEST SWAP2 DUP6 MSTORE PUSH1 0x6 PUSH1 0x20 MSTORE DUP5 KECCAK256 SSTORE PUSH1 0x8 SLOAD PUSH2 0x12D8 JUMP JUMPDEST PUSH1 0x8 SSTORE DUP1 RETURN JUMPDEST SWAP2 DUP2 PUSH2 0xC5A SWAP3 DUP7 MSTORE PUSH1 0x6 PUSH1 0x20 MSTORE PUSH2 0xCBE DUP3 DUP6 DUP9 KECCAK256 SLOAD PUSH2 0x12D8 JUMP JUMPDEST SWAP1 DUP7 MSTORE PUSH1 0x6 PUSH1 0x20 MSTORE DUP4 DUP7 KECCAK256 SSTORE DUP4 DUP6 MSTORE DUP3 DUP6 KECCAK256 SLOAD PUSH2 0x129C JUMP JUMPDEST DUP4 MLOAD PUSH32 0x4CA8886700000000000000000000000000000000000000000000000000000000 DUP2 MSTORE REVERT JUMPDEST DUP4 CALLVALUE PUSH2 0x8E0 JUMPI DUP1 PUSH32 0xFFFFFFFFFFFFFFFFFFFFFFFFFFFFFFFFFFFFFFFFFFFFFFFFFFFFFFFFFFFFFFFC CALLDATASIZE ADD SLT PUSH2 0x8E0 JUMPI PUSH2 0xD34 PUSH2 0x11AD JUMP JUMPDEST DUP1 PUSH20 0xFFFFFFFFFFFFFFFFFFFFFFFFFFFFFFFFFFFFFFFF PUSH1 0x5 SLOAD PUSH32 0xFFFFFFFFFFFFFFFFFFFFFFFF0000000000000000000000000000000000000000 DUP2 AND PUSH1 0x5 SSTORE AND PUSH32 0x8BE0079C531659141344CD1FD0A4F28419497F9722A3DAAFE3B4186F6B6457E0 DUP3 DUP1 LOG3 DUP1 RETURN JUMPDEST POP POP CALLVALUE PUSH2 0x19A JUMPI PUSH1 0x20 PUSH32 0xFFFFFFFFFFFFFFFFFFFFFFFFFFFFFFFFFFFFFFFFFFFFFFFFFFFFFFFFFFFFFFFC CALLDATASIZE ADD SLT PUSH2 0x19A JUMPI DUP1 PUSH1 0x20 SWAP3 PUSH20 0xFFFFFFFFFFFFFFFFFFFFFFFFFFFFFFFFFFFFFFFF PUSH2 0xDED PUSH2 0x105D JUMP JUMPDEST AND DUP2 MSTORE DUP1 DUP5 MSTORE KECCAK256 SLOAD SWAP1 MLOAD SWAP1 DUP2 MSTORE RETURN JUMPDEST POP POP CALLVALUE PUSH2 0x19A JUMPI DUP2 PUSH32 0xFFFFFFFFFFFFFFFFFFFFFFFFFFFFFFFFFFFFFFFFFFFFFFFFFFFFFFFFFFFFFFFC CALLDATASIZE ADD SLT PUSH2 0x19A JUMPI PUSH1 0x20 SWAP1 MLOAD PUSH1 0x12 DUP2 MSTORE RETURN JUMPDEST DUP3 DUP5 CALLVALUE PUSH2 0x8E0 JUMPI POP PUSH2 0xE47 CALLDATASIZE PUSH2 0x10E7 JUMP JUMPDEST POP POP POP MLOAD PUSH32 0xA24E573D00000000000000000000000000000000000000000000000000000000 DUP2 MSTORE REVERT JUMPDEST POP POP CALLVALUE PUSH2 0x19A JUMPI DUP2 PUSH32 0xFFFFFFFFFFFFFFFFFFFFFFFFFFFFFFFFFFFFFFFFFFFFFFFFFFFFFFFFFFFFFFFC CALLDATASIZE ADD SLT PUSH2 0x19A JUMPI PUSH1 0x20 SWAP1 PUSH1 0x2 SLOAD SWAP1 MLOAD SWAP1 DUP2 MSTORE RETURN JUMPDEST SWAP3 SWAP2 POP CALLVALUE PUSH2 0xFF3 JUMPI DUP4 PUSH32 0xFFFFFFFFFFFFFFFFFFFFFFFFFFFFFFFFFFFFFFFFFFFFFFFFFFFFFFFFFFFFFFFC CALLDATASIZE ADD SLT PUSH2 0xFF3 JUMPI PUSH1 0x3 SLOAD PUSH1 0x1 DUP2 DUP2 SHR SWAP2 DUP7 SWAP1 DUP3 DUP2 AND DUP1 ISZERO PUSH2 0xFE9 JUMPI JUMPDEST PUSH1 0x20 SWAP6 DUP7 DUP7 LT DUP3 EQ PUSH2 0xFBD JUMPI POP DUP5 DUP9 MSTORE SWAP1 DUP2 ISZERO PUSH2 0xF7D JUMPI POP PUSH1 0x1 EQ PUSH2 0xF24 JUMPI JUMPDEST PUSH2 0xA46 DUP7 DUP7 PUSH2 0xA3C DUP3 DUP12 SUB DUP4 PUSH2 0x122C JUMP JUMPDEST SWAP3 SWAP6 POP PUSH1 0x3 DUP4 MSTORE PUSH32 0xC2575A0E9E593C00F959F8C92F12DB2869C3395A3B0502D05E2516446F71F85B JUMPDEST DUP3 DUP5 LT PUSH2 0xF6A JUMPI POP POP POP DUP3 PUSH2 0xA46 SWAP5 PUSH2 0xA3C SWAP3 DUP3 ADD ADD SWAP5 CODESIZE PUSH2 0xF13 JUMP JUMPDEST DUP1 SLOAD DUP7 DUP6 ADD DUP9 ADD MSTORE SWAP3 DUP7 ADD SWAP3 DUP2 ADD PUSH2 0xF4D JUMP JUMPDEST PUSH32 0xFFFFFFFFFFFFFFFFFFFFFFFFFFFFFFFFFFFFFFFFFFFFFFFFFFFFFFFFFFFFFF00 AND DUP8 DUP7 ADD MSTORE POP POP POP ISZERO ISZERO PUSH1 0x5 SHL DUP4 ADD ADD SWAP3 POP PUSH2 0xA3C DUP3 PUSH2 0xA46 CODESIZE PUSH2 0xF13 JUMP JUMPDEST DUP4 PUSH1 0x22 PUSH1 0x24 SWAP3 PUSH32 0x4E487B7100000000000000000000000000000000000000000000000000000000 DUP4 MSTORE MSTORE REVERT JUMPDEST SWAP4 PUSH1 0x7F AND SWAP4 PUSH2 0xEF3 JUMP JUMPDEST DUP4 DUP1 REVERT JUMPDEST PUSH1 0x20 DUP1 DUP3 MSTORE DUP3 MLOAD DUP2 DUP4 ADD DUP2 SWAP1 MSTORE SWAP4 SWAP3 PUSH1 0x0 JUMPDEST DUP6 DUP2 LT PUSH2 0x1049 JUMPI POP POP POP PUSH32 0xFFFFFFFFFFFFFFFFFFFFFFFFFFFFFFFFFFFFFFFFFFFFFFFFFFFFFFFFFFFFFFE0 PUSH1 0x1F DUP5 PUSH1 0x0 PUSH1 0x40 DUP1 SWAP7 SWAP8 DUP7 ADD ADD MSTORE ADD AND ADD ADD SWAP1 JUMP JUMPDEST DUP2 DUP2 ADD DUP4 ADD MLOAD DUP5 DUP3 ADD PUSH1 0x40 ADD MSTORE DUP3 ADD PUSH2 0x1009 JUMP JUMPDEST PUSH1 0x4 CALLDATALOAD SWAP1 PUSH20 0xFFFFFFFFFFFFFFFFFFFFFFFFFFFFFFFFFFFFFFFF DUP3 AND DUP3 SUB PUSH2 0x1080 JUMPI JUMP JUMPDEST PUSH1 0x0 DUP1 REVERT JUMPDEST CALLVALUE PUSH2 0x1080 JUMPI PUSH1 0x40 PUSH32 0xFFFFFFFFFFFFFFFFFFFFFFFFFFFFFFFFFFFFFFFFFFFFFFFFFFFFFFFFFFFFFFFC CALLDATASIZE ADD SLT PUSH2 0x1080 JUMPI PUSH2 0x10BC PUSH2 0x105D JUMP JUMPDEST POP PUSH1 0x4 PUSH1 0x40 MLOAD PUSH32 0xEB60C2C400000000000000000000000000000000000000000000000000000000 DUP2 MSTORE REVERT JUMPDEST PUSH32 0xFFFFFFFFFFFFFFFFFFFFFFFFFFFFFFFFFFFFFFFFFFFFFFFFFFFFFFFFFFFFFFFC PUSH1 0x60 SWAP2 ADD SLT PUSH2 0x1080 JUMPI PUSH20 0xFFFFFFFFFFFFFFFFFFFFFFFFFFFFFFFFFFFFFFFF SWAP1 PUSH1 0x4 CALLDATALOAD DUP3 DUP2 AND DUP2 SUB PUSH2 0x1080 JUMPI SWAP2 PUSH1 0x24 CALLDATALOAD SWAP1 DUP2 AND DUP2 SUB PUSH2 0x1080 JUMPI SWAP1 PUSH1 0x44 CALLDATALOAD SWAP1 JUMP JUMPDEST PUSH1 0xB SLOAD DUP2 LT ISZERO PUSH2 0x117E JUMPI PUSH1 0xB PUSH1 0x0 MSTORE PUSH32 0x175B7A638427703F0DBE7BB9BBF987A2551717B34E79F33B5B1008D1FA01DB9 ADD SWAP1 PUSH1 0x0 SWAP1 JUMP JUMPDEST PUSH32 0x4E487B7100000000000000000000000000000000000000000000000000000000 PUSH1 0x0 MSTORE PUSH1 0x32 PUSH1 0x4 MSTORE PUSH1 0x24 PUSH1 0x0 REVERT JUMPDEST PUSH20 0xFFFFFFFFFFFFFFFFFFFFFFFFFFFFFFFFFFFFFFFF PUSH1 0x5 SLOAD AND CALLER SUB PUSH2 0x11CE JUMPI JUMP JUMPDEST PUSH1 0x64 PUSH1 0x40 MLOAD PUSH32 0x8C379A000000000000000000000000000000000000000000000000000000000 DUP2 MSTORE PUSH1 0x20 PUSH1 0x4 DUP3 ADD MSTORE PUSH1 0x20 PUSH1 0x24 DUP3 ADD MSTORE PUSH32 0x4F776E61626C653A2063616C6C6572206973206E6F7420746865206F776E6572 PUSH1 0x44 DUP3 ADD MSTORE REVERT JUMPDEST SWAP1 PUSH1 0x1F PUSH32 0xFFFFFFFFFFFFFFFFFFFFFFFFFFFFFFFFFFFFFFFFFFFFFFFFFFFFFFFFFFFFFFE0 SWAP2 ADD AND DUP2 ADD SWAP1 DUP2 LT PUSH8 0xFFFFFFFFFFFFFFFF DUP3 GT OR PUSH2 0x126D JUMPI PUSH1 0x40 MSTORE JUMP JUMPDEST PUSH32 0x4E487B7100000000000000000000000000000000000000000000000000000000 PUSH1 0x0 MSTORE PUSH1 0x41 PUSH1 0x4 MSTORE PUSH1 0x24 PUSH1 0x0 REVERT JUMPDEST SWAP2 SWAP1 DUP3 ADD DUP1 SWAP3 GT PUSH2 0x12A9 JUMPI JUMP JUMPDEST PUSH32 0x4E487B7100000000000000000000000000000000000000000000000000000000 PUSH1 0x0 MSTORE PUSH1 0x11 PUSH1 0x4 MSTORE PUSH1 0x24 PUSH1 0x0 REVERT JUMPDEST SWAP2 SWAP1 DUP3 SUB SWAP2 DUP3 GT PUSH2 0x12A9 JUMPI JUMP INVALID LOG2 PUSH5 0x6970667358 0x22 SLT KECCAK256 CODESIZE SWAP5 GASLIMIT 0xD9 SWAP12 0xDE LOG0 0xCA PUSH19 0x2644BB75416CE9539B0E1F4323F082ACE7F073 LT PUSH3 0x799B64 PUSH20 0x6F6C634300081300330000000000000000000000 "},"gasEstimates":{"creation":{"codeDepositCost":"978200","executionCost":"infinite","totalCost":"infinite"},"external":{"allowance(address,address)":"2912","approve(address,uint256)":"264","balanceOf(address)":"2533","claimDividend()":"infinite","claimedDividend(address)":"2611","claimedUsers(uint256)":"6954","decimals()":"259","decreaseAllowance(address,uint256)":"528","increaseAllowance(address,uint256)":"352","ledger(address)":"2885","name()":"infinite","owner()":"2503","renounceOwnership()":"28187","setDividend(uint256)":"infinite","symbol()":"infinite","token()":"infinite","totalClaimedDividend()":"2607","totalDividendPool()":"2651","totalSubscribedSupply()":"2541","totalSupply()":"2321","transfer(address,uint256)":"540","transferFrom(address,address,uint256)":"357","transferOwnership(address)":"28599","updateBalances(address,address,uint256)":"infinite"},"internal":{"_updateBalances(address,address,uint256)":"infinite"}},"methodIdentifiers":{"allowance(address,address)":"dd62ed3e","approve(address,uint256)":"095ea7b3","balanceOf(address)":"70a08231","claimDividend()":"f0fc6bca","claimedDividend(address)":"860030a6","claimedUsers(uint256)":"b4781912","decimals()":"313ce567","decreaseAllowance(address,uint256)":"a457c2d7","increaseAllowance(address,uint256)":"39509351","ledger(address)":"fbfa941f","name()":"06fdde03","owner()":"8da5cb5b","renounceOwnership()":"715018a6","setDividend(uint256)":"e091f453","symbol()":"95d89b41","token()":"fc0c546a","totalClaimedDividend()":"ae21f6f2","totalDividendPool()":"b54ec8e6","totalSubscribedSupply()":"9ed7e556","totalSupply()":"18160ddd","transfer(address,uint256)":"a9059cbb","transferFrom(address,address,uint256)":"23b872dd","transferOwnership(address)":"f2fde38b","updateBalances(address,address,uint256)":"7a1f1aa9"}},"storageLayout":{"storage":[{"astId":304,"contract":"contracts/DividendDispatcherPlugin.sol:DividendDispatcherPlugin","label":"_balances","offset":0,"slot":"0","type":"t_mapping(t_address,t_uint256)"},{"astId":310,"contract":"contracts/DividendDispatcherPlugin.sol:DividendDispatcherPlugin","label":"_allowances","offset":0,"slot":"1","type":"t_mapping(t_address,t_mapping(t_address,t_uint256))"},{"astId":312,"contract":"contracts/DividendDispatcherPlugin.sol:DividendDispatcherPlugin","label":"_totalSupply","offset":0,"slot":"2","type":"t_uint256"},{"astId":314,"contract":"contracts/DividendDispatcherPlugin.sol:DividendDispatcherPlugin","label":"_name","offset":0,"slot":"3","type":"t_string_storage"},{"astId":316,"contract":"contracts/DividendDispatcherPlugin.sol:DividendDispatcherPlugin","label":"_symbol","offset":0,"slot":"4","type":"t_string_storage"},{"astId":183,"contract":"contracts/DividendDispatcherPlugin.sol:DividendDispatcherPlugin","label":"_owner","offset":0,"slot":"5","type":"t_address"},{"astId":1029,"contract":"contracts/DividendDispatcherPlugin.sol:DividendDispatcherPlugin","label":"ledger","offset":0,"slot":"6","type":"t_mapping(t_address,t_uint256)"},{"astId":1033,"contract":"contracts/DividendDispatcherPlugin.sol:DividendDispatcherPlugin","label":"claimedDividend","offset":0,"slot":"7","type":"t_mapping(t_address,t_bool)"},{"astId":1035,"contract":"contracts/DividendDispatcherPlugin.sol:DividendDispatcherPlugin","label":"totalSubscribedSupply","offset":0,"slot":"8","type":"t_uint256"},{"astId":1037,"contract":"contracts/DividendDispatcherPlugin.sol:DividendDispatcherPlugin","label":"totalDividendPool","offset":0,"slot":"9","type":"t_uint256"},{"astId":1039,"contract":"contracts/DividendDispatcherPlugin.sol:DividendDispatcherPlugin","label":"totalClaimedDividend","offset":0,"slot":"10","type":"t_uint256"},{"astId":1042,"contract":"contracts/DividendDispatcherPlugin.sol:DividendDispatcherPlugin","label":"claimedUsers","offset":0,"slot":"11","type":"t_array(t_address)dyn_storage"}],"types":{"t_address":{"encoding":"inplace","label":"address","numberOfBytes":"20"},"t_array(t_address)dyn_storage":{"base":"t_address","encoding":"dynamic_array","label":"address[]","numberOfBytes":"32"},"t_bool":{"encoding":"inplace","label":"bool","numberOfBytes":"1"},"t_mapping(t_address,t_bool)":{"encoding":"mapping","key":"t_address","label":"mapping(address => bool)","numberOfBytes":"32","value":"t_bool"},"t_mapping(t_address,t_mapping(t_address,t_uint256))":{"encoding":"mapping","key":"t_address","label":"mapping(address => mapping(address => uint256))","numberOfBytes":"32","value":"t_mapping(t_address,t_uint256)"},"t_mapping(t_address,t_uint256)":{"encoding":"mapping","key":"t_address","label":"mapping(address => uint256)","numberOfBytes":"32","value":"t_uint256"},"t_string_storage":{"encoding":"bytes","label":"string","numberOfBytes":"32"},"t_uint256":{"encoding":"inplace","label":"uint256","numberOfBytes":"32"}}},"userdoc":{"kind":"user","methods":{},"version":1}}}}